:100000000C9455030C949C030C949C030C949C033B
:100010000C949C030C949C030C949C030C949C03E4
:100020000C949C030C949C030C9460180C947A1D03
:100030000C9416330C949C030C949C030C949C031A
:100040000C949C030C949C030C949C030C949C03B4
:100050000C949C030C9437190C949C030C949C03F3
:100060000C949C030C949C030C949C030C949C0394
:100070000C949C030C949C030C949C030C949C0384
:100080000C949C030C949C030C949C030C949C0374
:100090000C949C030C949C030C949C030C949C0364
:1000A0000C949C030C949C030C949C030501090282
:1000B000A10185020901A1000509190129081500FE
:1000C0002501950875018102050109300931158165
:1000D000257F95027508810609381581257F9501D0
:1000E00075088106050C0A38021581257F95017572
:1000F000088106C0C005010980A101850319012AF4
:10010000B700150126B700950175108100C0050CD8
:100110000901A101850419012AA002150126A002E6
:10012000950175108100C005010906A1018505052D
:100130000719E029E71500250195087501810205D9
:1001400007190029EF1500250195F07501810205B9
:10015000081901290595057501910295017503910D
:1001600001C00660FF0961A1010962150026FF00B8
:100170009520750881020963150026FF00952075FA
:10018000089102C005010906A101050719E029E748
:1001900015002501950875018102950175088101F9
:1001A0000507190029FF150026FF0095067508812F
:1001B000000508190129059505750191029501753C
:1001C000039101C0000101010101010101010202CD
:1001D00002020202020202030303030303030304F5
:1001E00004040404040405050505050606060606C0
:1001F000070707070708080808090909090A0A0A7A
:100200000B0B0B0C0C0C0D0D0D0E0E0E0F0F0F101B
:1002100010111111121213131414151516161717A5
:10022000181819191A1A1B1B1C1D1D1E1E1F202011
:10023000212222232424252626272829292A2B2C5B
:100240002D2D2E2F30313232333435363738393A7E
:100250003B3C3D3E3F404142434445464748494A76
:100260004C4D4E4F50515354555658595A5B5D5E44
:100270005F616264656668696B6C6D6F70727375DF
:1002800077787A7B7D7E8082838587888A8C8E8F43
:1002900091939596989A9C9EA0A2A3A5A7A9ABAD71
:1002A000AFB1B3B5B7BABCBEC0C2C4C6C9CBCDCF5F
:1002B000D1D4D6D8DBDDDFE2E4E7E9EBEEF0F3F50D
:1002C000F8FAFDFFFFAA7F55402223252628292A78
:1002D0002C2D2F3032333536383A3B3D3E404243A9
:1002E0004547494A4C4E5051535557595A5C5E60E8
:1002F00062646668696B6D6F71737577797B7D7FFA
:1003000081838587898A8C8E90929496989A9C9EF8
:100310009FA1A3A5A7A8AAACAEAFB1B3B4B6B8B914
:10032000BBBCBEBFC1C2C3C5C6C7C9CACBCCCDCE7C
:10033000D0D1D2D2D3D4D5D6D7D7D8D9D9DADADB5F
:10034000DBDBDCDCDCDCDCDDDDDDDDDCDCDCDCDCEB
:10035000DBDBDBDADAD9D9D8D7D7D6D5D4D3D2D22A
:10036000D1D0CECDCCCBCAC9C7C6C5C3C2C1BFBE12
:10037000BCBBB9B8B6B4B3B1AFAEACAAA8A7A5A37D
:10038000A19F9E9C9A98969492908E8C8A8987853C
:1003900083817F7D7B79777573716F6D6B6968661B
:1003A0006462605E5C5A5957555351504E4C4A49ED
:1003B00047454342403E3D3B3A3836353332302F95
:1003C0002D2C2A292826252322290014001A00086A
:1003D00000150017001C0018000C00120013002A62
:1003E000002B0004001600070009000A000B000D96
:1003F000000E000F0033002800E1001D001B000666
:1004000000190005001100100036003700520038B6
:10041000003900E000E300E20001512C000000E69A
:1004200000E400500051004F00005CC25CC35CC59A
:100430005CC65CC75CC85CC95CCA5C0100010001A9
:100440000001001E001F00200021002200230024C4
:1004500000250026002700010001005E5D5F5D6051
:100460005D615D625D635D645D655D01000100016C
:100470000001000100010001000100010000000175
:100480000001000100010001000100010001000164
:100490000001000100010001000100010001000154
:1004A0000001000100010001000100010001000144
:1004B0000001000100010001000100010001000134
:1004C0000001000100010001000100010001000124
:1004D0000001000100010001000100010000000115
:1004E0000001000100010001000100010001000104
:1004F00000010001000100010001000100010001F4
:1005000000010001000100010001000100010001E3
:1005100000010001000100010001000100010001D3
:1005200000010001000100010001000100010001C3
:1005300000010001000100010001000100000001B4
:1005400000010001000100010000000000000000A7
:10055000000000000000000000000000000000009B
:10056000000000000000000000000000007E0F00FE
:10057000D4FFFFFFC700000078000000000000006B
:10058000002A2B28000000000000000000000000EE
:100590000000000029000000002C1E34202122242D
:1005A000342627252E362D3738271E1F20212223BB
:1005B0002425263333362E37381F0405060708094D
:1005C0000A0B0C0D0E0F1011121314151617181913
:1005D0001A1B1C1D2F3130232D3504050607080971
:1005E0000A0B0C0D0E0F10111213141516171819F3
:1005F0001A1B1C1D2F3130354C1E0F0500047F3F88
:100600001F643214643214783C1E1E140A05090259
:100610005B00030100A0FA090400000103010100CE
:100620000921110100012240000705810308000192
:100630000904010002030000000921110100012248
:1006400022000705820320000107050303200001A3
:100650000904020001030000000921110100012228
:10066000B6000705840320000112011001000000FC
:1006700008504B41110200010200010E0342004DDF
:10068000003400300056003200000018034B0050C8
:10069000002000520065007000750062006C006967
:1006A0000063000000040309040011241FBECFEF03
:1006B000DAE0DEBFCDBF04B603FE27C080917B0623
:1006C00090917C06A0917D06B0917E068730904B7C
:1006D000A740B04BD1F410927B0610927C0610928A
:1006E0007D0610927E0614BE84B7877F84BF0FB646
:1006F000F894A895809160008861809360001092C2
:1007000060000FBEE0E0F8E3099526E0A2E2B3E066
:1007100001C01D92AB37B207E1F713E0A0E0B1E0F2
:10072000E6ECFBE602C005900D92A232B107D9F7C4
:100730000E94CC290C9480350C940000E8EDF0E088
:1007400080818E7F80831092E2001092DA001092F6
:10075000E100A0EEB0E08C9181608C9380818F7776
:10076000808319BCA7EDB0E08C918E7F8C93808143
:100770008F7E808310924A0408952091E400309186
:10078000E50095E6A9012091EC00822F817020FF01
:1007900006C08091E80080FF06C080E008952091A7
:1007A000E80022FD1AC080916F04882389F085300B
:1007B00089F08091EB0085FD0FC02091E40030911D
:1007C000E50042175307F9F29150E1F684E00895ED
:1007D00082E0089583E0089581E00895EF92FF920A
:1007E0000F931F93CF937C018B010E94BD03C82FF1
:1007F000811117C08091E80085FD0BC08091E80051
:100800008E778093E8000E94BD03882399F3C82F58
:1008100008C0F70181917F018093F1000150110917
:1008200049F78C2FCF911F910F91FF90EF90089572
:100830008091710487FF13C08091E80082FF06C099
:100840008091E8008B778093E80004C080916F046A
:100850008111F2CF089580916F048823D9F380919C
:10086000E80080FFF8CF8091E8008E77ECCF982FDA
:100870009093E900242F762F50E0891731F0709182
:10088000EC002091ED005091F00021FD07C09F5F2A
:10089000973071F78093E90081E008953091EB0083
:1008A0003E7F3093EB003091ED003D7F3093ED00C3
:1008B0003091EB0031603093EB007093EC002093AB
:1008C000ED005093F0002091EE0027FDE0CF80E096
:1008D0000895CF92DF92EF92FF920F931F93CF93E1
:1008E000DF93C8EDD0E088818F7E8883E7EDF0E06C
:1008F00080818160808384E082BF81E080934A04AC
:1009000088818E7F888302EE10E0F80110821092B9
:10091000DA0081EEC82ED12CF601108288818F7703
:10092000888388818068888388818F7D888319BCCB
:1009300010926F041092700410926E0410926D0465
:1009400090EEE92EF12CF70180818B7F80838881E6
:100950008160888342E060E080E00E943704F60115
:1009600080818E7F8083F801808181608083808197
:1009700088608083F70180818E7F80838881806199
:100980008883DF91CF911F910F91FF90EF90DF90BF
:10099000CF900895FC018091770490917804861798
:1009A0009707A0F06115710529F49091E8009E77F2
:1009B0009093E80090E06115710551F4911108C021
:1009C0008091E80082FF34C080E00895BC01F2CF3E
:1009D00080916F048823C1F18530C1F18091E800D6
:1009E00083FD30C08091E80082FDEACF8091E8006D
:1009F00080FFE1CF8091F3002091F200382F611544
:100A0000710519F02830310558F091E02830310592
:100A100009F090E02091E8002E772093E800CBCFFA
:100A200081918093F100615071092F5F3F4FE7CFB3
:100A300080916F04882341F0853041F08091E80077
:100A400083FFBECF81E0089582E0089583E008959A
:100A5000EF92FF920F939701201B31092F3F310531
:100A600019F010F02FEF30E02095382F320F08F4F6
:100A70003FEF832F0F91FF90EF900895EF92FF9239
:100A80000F939701201B31092F3F310519F010F00A
:100A90002FEF30E0322F3095482F430F08F44FEFFF
:100AA000842F620F0F91FF90EF900895EF92FF92C5
:100AB0000F93972F093438F4B701601B71096F3F0A
:100AC000710519F010F06FEF70E0485F5F4F413132
:100AD000510540F0A901485F5F4F4131510510F0C9
:100AE0006FEF70E06095482F460F08F44FEF842FAA
:100AF00037FF02C02D5F3F4F3595279535952795D8
:100B000060917606620F792F0F91FF90EF90089514
:100B1000EF92FF920F931F930E0D1F2D111DF901E0
:100B200037FF03C0F195E195F10924E0EE0FFF1FB7
:100B30002A95E1F7EF3FF10519F014F0EFEFF0E03F
:100B40009A0157FF03C031952195310994E0220F96
:100B5000331F9A95E1F72E173F070CF4F901E00FC8
:100B6000F11FEF3FF10519F010F0EFEFF0E0E09525
:100B7000282F3E2F230F08F42FEF822F1F910F9164
:100B8000FF90EF900895EF92FF920F93970195E0F9
:100B9000099F200D311D11242F3F310519F010F050
:100BA0002FEF30E02095382F320F08F43FEF832FDE
:100BB0000F91FF90EF90089522E8241B08F420E0A5
:100BC000620F08954095282F429F412D1124842FB4
:100BD0000895E42FF0E0EE0FFF1FEB56FD4F9081DC
:100BE000921B97FD9195292F38E1239F212D1124E8
:100BF000620F08950F931F9310E0F801EE0FFF1F8F
:100C0000EB56FD4F9081905797FD9195000F111F66
:100C1000F801EB59FD4F01A90052110B2003F0011F
:100C2000219FF00D112408E310E0091B110997FD25
:100C3000139540039001419F300D1124E20FF31FE3
:100C40009F01220F331F2E0F3F1F37FF02C0215875
:100C50003F4F220F232F221F330B620F1F910F9143
:100C600008950F931F93522F10E0F801EE0FFF1F0E
:100C7000EB59FD4FA1A9A052BB0B9D015203F001FE
:100C8000539FF00D1124000F111FD801AB56BD4F1B
:100C90000C910057110B40039001419F300D11241E
:100CA0002E0F3F1F37FF02C0215C3F4F96E0359566
:100CB00027959A95E1F7620F1F910F9108950F9371
:100CC0001F93522F10E0F801EE0FFF1FEB59FD4F5D
:100CD000A1A9A052BB0B9D015203F001539FF00D3F
:100CE0001124000F111FD801AB56BD4F0C910057B6
:100CF000110B40039001419F300D11242E0F3F1F17
:100D000037FF02C021583F4F220F232F221F330BE2
:100D1000620F1F910F910895EF920F93972F23E089
:100D2000029FB0011124759567956E0D792F0F9173
:100D3000EF900895322F50E0FA01EE0FFF1FEB59AC
:100D4000FD4F91A9905297FD9195440F551FFA01BF
:100D5000EB56FD4F2081231B330B290F311D97FDCF
:100D60003A95620F0895E42FF0E0EE0FFF1FEB5964
:100D7000FD4F61A9621B0895E42FF0E0EE0FFF1F05
:100D8000EB56FD4F6081621B0895622F0895E42F9A
:100D9000F0E0EE0FFF1FEB56FD4F408134EE439F16
:100DA000412D1124E82FF0E050E0445E5F4FDA015E
:100DB000A21BB1099D01B7FF03C0319521953109EF
:100DC00093E0220F331F9A95E1F7AF01421B530BBB
:100DD0009A0157FD20E0582F259F212D1124822FA5
:100DE0000895089580E0089580914C0408959C0131
:100DF0004FB7F8948091460490914704A09148041D
:100E0000B09149044FBF821B930B089520911F019D
:100E10002223C9F02091DF0327FF15C0E62FE695B6
:100E2000E695E695EE31D8F4E80FF92FF11D6770DD
:100E300021E030E001C0220F6A95EAF72095828117
:100E4000282322830895FC0132960896219162138B
:100E500003C0DF0111971C92E817F907B9F708954D
:100E600020911F012223C1F02091DF0327FF14C02E
:100E7000E62FE695E695E695EE31F8F4E80FF92FC2
:100E8000F11D677021E030E001C0220F6A95EAF79A
:100E90008281822B82830895FC0132962FEF30E00D
:100EA0004191641751F02F3F19F4411101C0232FD4
:100EB0003F5F3630A9F72F3F09F40895820F911D47
:100EC00027FD9A95FC01628308958091DA038111D0
:100ED0001092DA0308958091D9039091D803892B59
:100EE0009091D703892B809324039091DA0399235F
:100EF000A1F0892B8093240380911F01882341F165
:100F00008091DF0387FF24C08EE1E6E2F3E090E00A
:100F1000815000F591110E946507E091EA03F0917C
:100F2000EB033097E1F080911F01882359F0809105
:100F3000DF0387FF07C0809124038093250385E0AA
:100F4000809324030280F381E02D84E293E00994EE
:100F500086E0DBCF21912223D9F29F5FD9CF08957C
:100F60002CE0929F800D1124982F9770869586957E
:100F7000869525E0829FF0011124E854FC4F50E053
:100F800040E080E0219130E0092E02C0369527959F
:100F90000A94E2F721703327042E01C0220F0A942D
:100FA000EAF7822B4F5F5F4F4530510559F708959F
:100FB0002CE0929F800D1124982F977041E001C082
:100FC000440F9A95EAF786958695869595E0899FD0
:100FD000F0011124E854FC4F90E080E070E0519162
:100FE000DF0111979B01082E02C0369527950A94C0
:100FF000E2F7217021952527242325272C9301969C
:101000008530910561F708958091B703909186032B
:10101000981301C008958F5F8770FACF882341F03D
:1010200080959091D90389238093D9030C946B0701
:101030000895882339F09091D903982B9093D90380
:101040000C946B07089520917C0330917D03281741
:10105000390771F090937D0380937C03E091EA035C
:10106000F091EB03309721F00084F185E02D099495
:10107000089520917A0330917B032817390771F086
:1010800090937B0380937A03E091EA03F091EB0362
:10109000309721F00680F781E02D09940895E091C2
:1010A000EA03F091EB03309721F00190F081E02DFD
:1010B000099480E00895FA01811101C0FB010994AF
:1010C000CF93DF938F32910520F5880F991F880FFA
:1010D000991FFC01E75AFE4FA28133818081837002
:1010E000C181E82FF0E050EC859FC00111248555A7
:1010F0009B4FC80FD92FD11D6883A80FB92FB11DE1
:101100004C93830F911DDC012C93E55DF94F81E039
:101110008083DF91CF910895FF920F931F93CF9318
:10112000DF93182F062FF42ED0E0C0E02F2D402F94
:10113000612FCE010E9460082196CF32D105B1F710
:10114000DF91CF911F910F91FF9008950C948C081F
:101150000C946008FC019B01009729F480E077FF64
:101160002BC080E80895AC0197FF04C044275527A1
:10117000481B590BB901640F751F37FD10C0241BA4
:10118000350BC901A5E0880F991FAA95E1F70E94C8
:10119000233480E2861BF7FF0FC081950895CB01B1
:1011A00065E0880F991F6A95E1F7BA01621B730B1E
:1011B0000E94233480E6EECF0895EF920F93CF93F1
:1011C000DF93D72FC82FC9010E19BA010E94AA08B0
:1011D000602F681B7D2F8C2FDF91CF910F91EF90A7
:1011E00008950F93CF93DF93D72FC82FC901BA016A
:1011F0000E94AA08682F600F7D2F8C2FDF91CF915E
:101200000F910895EF920F931F93CF93DF93D62FF3
:10121000C72F182FC9010E19010FBA010E94AA0881
:10122000081B202F219F212D1124822F6D2F7C2F11
:10123000DF91CF911F910F91EF9008950F931F931E
:10124000CF93DF93D62FC72F182FC901212F201B33
:10125000022FBA010E94AA08982F990F990F891B93
:10126000800F282F219F212D1124822F6D2F7C2F5D
:10127000DF91CF911F910F910895E82F86FDE095A2
:101280002E2F2F7086FD2F5FE695E695E695E6708A
:10129000F0E0EF5AFE4F9181929F902D212D112465
:1012A00092959F702295207F922B2081920F87FD2F
:1012B000919580E8890F08950F931F93CF93DF9343
:1012C0008B01D82FC42F822F0E943D09EC2FF0E014
:1012D000EE0FFF1FEB56FD4F90819058890F87FD51
:1012E0008195880F682F2CE0629F612D1124600F7B
:1012F000712F8D2FDF91CF911F910F910895AC0128
:101300008230910508F408959FEF413E8EE1580721
:1013100040F49A0195E0369527959A95E1F798E083
:10132000920F61E0E62FE90FFF27FF1F9F01359520
:101330002795822F229FF001239FF00DF00D11249D
:101340004E175F0738F49FEF920F961758F78FEFFD
:10135000860F08952F3FE9F361E0620FF6CF0F93F8
:10136000CF93DF93D72FC82F47FD419588E390E0B7
:10137000841B910947FD9395889FB001899F700D4B
:10138000700D1124229FC001239F900D900D1124F8
:10139000860F971F0E947F09982F990F890F682F3A
:1013A000600F7D2F8C2FDF91CF910F91089530E04A
:1013B00020E0869F212D969F200D311D1124C9010B
:1013C000089580913904982F9E7F61F48170826026
:1013D0008093390480913C04873918F086E9809322
:1013E0003C0408958635B0F381708465F1CFAF92E7
:1013F000BF92CF92DF92FF920F931F93CF93DF9311
:10140000362F472FE82FF0E0EC53FE4F71110FC03D
:10141000E4918E2F2E2F6E2F722FDF91CF911F917F
:101420000F91FF90DF90CF90BF90AF900895C72F9E
:10143000D0E02491F22E022F10E056E0659FC0010B
:101440001124EFEFF0E0BF010E940F34832F90E0F2
:10145000880F991F35E5369FD001379FB00D1124B5
:101460008A1B9B0B982F990F980F6F01CC1ADD0ADE
:10147000C09ED001C19EB00DD09EB00D11248B2F07
:10148000499FA0011124452F55276F01C41AD50A81
:10149000C09EA001C19E500DD09E500D11245F0131
:1014A000A91AB108AC9E6001AD9ED00CBC9ED00CB8
:1014B0001124CD2CDD24EC19FD09E09FE001E19F12
:1014C000D00DF09FD00D1124ED2F62307105A1F0E9
:1014D00050F46115710509F49ECF6130710581F0FA
:1014E000EB2F852F98CF6430710569F080F066305E
:1014F000710509F490CFF4CFE22F2B2F8D2F8BCFD6
:10150000E22F252F88CFEB2F822F2D2F84CF2B2F4B
:101510008F2DE52F80CF5F926F927F928F929F9257
:10152000AF92BF92CF92DF92EF92FF920F931F93F1
:10153000CF93DF933C01C09120018AE0C89FC02D6A
:1015400011241AE01C0FF12E103310F03FE2F32E9D
:1015500060917906669580916A0690916B060E946B
:10156000D709582ED0E0CE01880F991F9C012B5926
:101570003D4F6901CF15A0F081E01F3208F080E0F7
:10158000DF91CF911F910F91FF90EF90DF90CF905F
:10159000BF90AF909F908F907F906F905F900895D5
:1015A000FE01ED50FD4F808190912101892379F159
:1015B000F60180A9282F2057330B590181A9E82F64
:1015C000E052FF0B4F01AA9C9001AB9C300D300DF7
:1015D0001124EE9FC001EF9F900D900D1124820FFA
:1015E000931F0E947F09082F6091760670917706FD
:1015F00080917806E52C9401A501F30109950E94DC
:10160000F709462F282F672FCE010E94A808F2E085
:10161000CF0ED11C2196AECFAF92BF92CF92DF9268
:10162000EF92FF920F931F93CF93DF936C01C091C2
:1016300020018AE0C89FC02D11241AE01C0FB12E92
:10164000103310F03FE2B32E6091790666958091D9
:101650006A0690916B060E94D709A82ED0E0CE01B1
:10166000880F991F9C012B593D4F7901CB1578F0BC
:1016700081E01F3208F080E0DF91CF911F910F9140
:10168000FF90EF90DF90CF90BF90AF900895FE0154
:10169000ED50FD4F8081909121018923C1F0F70128
:1016A00021A92052330B40A94057550B6091760673
:1016B00070917706809178060A2DF60109950E94AF
:1016C000F709462F282F672FCE010E94A808F2E0C5
:1016D000EF0EF11C2196CACFDF92EF92FF920F938B
:1016E0001F93CF93DF937C01C09120018AE0C89FB4
:1016F000C02D11241AE01C0F012F103308F00FE247
:10170000609179066695669521E0620F08F46FEFA7
:1017100080916A0690916B060E94D709D82ED0E07E
:10172000C01760F081E01F3208F080E0DF91CF91B8
:101730001F910F91FF90EF90DF900895FE01ED5003
:10174000FD4F808190912101892391F0609176066F
:1017500070917706809178062D2D4C2FF701099511
:101760000E94F709462F282F672FCE010E94A80854
:101770002196D6CF9F92AF92BF92CF92DF92EF92F7
:10178000FF920F931F93CF93DF936C01C0912001C1
:101790008AE0C89FC02D11241AE01C0FB12E10330F
:1017A00010F03FE2B32E60917906669566958091C0
:1017B0006A0690916B060E94D709F82E80E48F0D7F
:1017C0000E943D0990E8A92EA80E8F2D0E943D0988
:1017D00020E8922E980ED0E0CB1580F081E01F32E9
:1017E00008F080E0DF91CF911F910F91FF90EF9073
:1017F000DF90CF90BF90AF909F900895FE01ED5085
:10180000FD4F8081909121018923A1F0609176069E
:101810007091770680917806EF2C0C2F292D4A2D98
:10182000F60109950E94F709462F282F672FCE0150
:101830000E94A8082196D0CFCF92DF92EF92FF921C
:101840000F931F93CF93DF938C01C09120018AE007
:10185000C89FC02D11242AE0D22EDC0ECD2C2FE201
:101860002D1510F49FE2C92E2091790631E0230F47
:1018700008F42FEF30E050E040E06FEF7FEF80E0C2
:1018800090E00E941D357901D0E02C2FCC1570F02E
:1018900081E0FEE2FD1508F480E0DF91CF911F9119
:1018A0000F91FF90EF90DF90CF900895FE01ED50E3
:1018B000FD4F808190912101892311F140914106D2
:1018C0004150042E000C550B47FF1CC0C70160910E
:1018D000790621E0620F08F46FEF0E94D709AC018E
:1018E000609176067091770680917806F8010995E7
:1018F0000E94F709462F282F672FCE010E94A808C3
:101900002196C3CFFA01EF5BF94F818982130AC098
:10191000FA01EE0FFF1FEF5BF94F818D928D8E154F
:101920009F05A8F241505109CFCF2F923F925F926D
:101930006F927F928F929F92AF92BF92CF92DF92DF
:10194000EF92FF920F931F93CF93DF93CDB7DEB744
:101950002A970FB6F894DEBF0FBECDBF8B837E8370
:101960006D83209120018AE0289F802D11248F8390
:10197000865F89838A83803310F03FE23A838091C7
:1019800041068C83FF81EF2FF0E0FA87E987CF01D2
:10199000880F991F9C012B593D4F69013B81832F73
:1019A00090E0FC013196F887EF838A81998598173A
:1019B000E8F081E0E981EF3208F080E02A960FB686
:1019C000F894DEBF0FBECDBFDF91CF911F910F9175
:1019D000FF90EF90DF90CF90BF90AF909F908F904F
:1019E0007F906F905F903F902F900895E985FA85E2
:1019F000ED50FD4F8081909121018923F1F02090DD
:101A00007606309077062F8138852F5B394F390164
:101A10005B8010E0FC815F16D0F020917806129F69
:101A2000112D1124B101812F0E94F709462F282F73
:101A3000672F89859A850E94A80829853A852F5F96
:101A40003F4F3A87298732E0C30ED11CAECFF30156
:101A500081913F01F601A0A8A81ABB0881A8F30153
:101A60008781881A9908AA9C9001AB9C300D300D93
:101A70001124889CC001899C900D900D1124820F27
:101A8000931F0E947F09082F6091790621E0620F61
:101A900008F46FEFF301EE0FFF1FE154F640858964
:101AA00096890E94D7097C019401A501B101812F7B
:101AB000ED81FE8109951B015394182FABCFCF9375
:101AC000DF93762FE901473908F046E9682F842F24
:101AD0000E94F709798368838A83DF91CF91089503
:101AE00040912904803F59F480912A0487FF0DC05A
:101AF00010922A0441110BC01092240408C0813FA7
:101B000081F480912A0418169CF3442381F080917B
:101B10002B0490912C04892B09F05AC010922104B7
:101B20000895823F49F447FFF0CF10922904809135
:101B30002A048111ECCFE0CF833F19F41416ACF3E3
:101B4000E4CF90912B04893F29F41916F4F61092F2
:101B50002B04DBCF8A3F19F497FFD7CFF8CF9091B2
:101B60002C048B3F29F497FFD0CF10922C04CDCFBB
:101B70008C3F19F41916CCF3C8CF9CE0980F953020
:101B800090F4845F990B21E030E0B90102C0660F48
:101B9000771F8A95E2F7CB018095909128048923DD
:101BA00080932804B2CF8D3F31F480917F038E7FE4
:101BB00080937F03AACF8E3F21F480917F038D7F96
:101BC000F7CF8F3F09F0A1CF80917F038B7FF0CFBC
:101BD000089580917F0380FD16C081FD16C082FDAF
:101BE00016C0809121048823A1F0883280F428E077
:101BF000829FC001112468E270E00E942334862F86
:101C0000672B39F0089582E0089584E0089588E014
:101C1000089581E0089580917F0380FD14C081FDC7
:101C200014C082FD16C080912404882381F0843181
:101C300080F422E3829FC001112464E170E00E94DD
:101C40002334862F08958CE0089589E1089585E076
:101C5000089582E30895803F31F40E940B0E819530
:101C600080932A040895813F19F40E940B0EF8CF47
:101C7000823F31F40E940B0E8195809329040895D0
:101C8000833F19F40E940B0EF8CF893F29F40E947C
:101C9000E90D80932B0408958A3F21F40E94E90DF9
:101CA0008195F7CF8B3F31F40E94E90D81958093A8
:101CB0002C0408958C3F19F40E94E90DF8CF9CE0A4
:101CC000980F953070F4845F990B21E030E001C0EB
:101CD000220F8A95EAF780912804822B80932804AA
:101CE00008958D3F31F480917F03816080937F035D
:101CF00008958E3F21F480917F038260F7CF8F3F5C
:101D0000B9F780917F038460F1CFF894E82FE295D2
:101D1000EF70F0E031A1282F2F7081E090E001C03A
:101D2000880F2A95EAF7982F9095932391A392A173
:101D3000892B82A3789408959091DF0392FF06C0C7
:101D4000282F28712830F9F4877F846093FF06C01C
:101D5000282F28712831F1F4877E84612091E003D7
:101D600020FF06C0382F38713830D9F4877F816062
:101D700021FF06C0282F28712831D1F4877E816188
:101D800094FD877E0895282F24712430F9F68B7FE7
:101D90008860DCCF282F2471243101F78B7E886185
:101DA000DDCF382F3171313019F78E7F8860E0CF69
:101DB000282F2171213121F78E7E8861E1CF809318
:101DC0002D0660932E0624E630E042E050E06DE2FE
:101DD00076E080EA0E94CE3321E0892B09F020E0F2
:101DE000822F0895FF920F931F93CF93DF93C82FF5
:101DF000082F10E007551B4FF80180818823B9F0A8
:101E000065EC8EEF0E94DF0E60E08DEF0E94DF0E2A
:101E1000F8E1CF9FE0011124C758DB4FF12C699105
:101E20008F2D0E94DF0EF39488E1F812F8CFF801AD
:101E30001082DF91CF911F910F91FF900895CF9263
:101E4000DF92EF92FF920F931F93CF93DF93C82FF0
:101E5000C82ED12CC601855D994F7C01FC01808183
:101E6000882369F165EC8EEF0E94DF0E61E08DEF53
:101E70000E94DF0EF0ECCF9FE0011124C555DB4F2F
:101E800010E000E000932D06DE01A00FB11FEEE28E
:101E9000F6E08D91819386E0EE33F807D1F724E6E2
:101EA00030E041E150E06DE276E080EA0E94CE331E
:101EB000892B81F4005F1F4F003C110519F7F701D2
:101EC0001082DF91CF911F910F91FF90EF90DF90E3
:101ED000CF900895F601E755FB4F81E08083EFCF67
:101EE00080E00E941F0F81E00C941F0FCF9384E0CD
:101EF00090E00E94D534C82F82E290E00E94D53451
:101F0000982F8C2FCF9108950F931F93CF93DF932A
:101F1000C42FD0E0CC0FDD1F28E1629FC00DD11D82
:101F2000112430E6839FC00DD11D1124CE01879668
:101F30000E94D534082F10E0102F0027CE0188967C
:101F40000E94D5349801282BC901DF91CF911F91B0
:101F50000F910895462F843038F4743028F46C3093
:101F600018F4672F0C94840F90E080E00895CF93CD
:101F7000DF930E94AA0FEC0182389105A9F1D8F5F0
:101F80008133910509F496C048F58932910509F429
:101F90008AC08A9709F495C0C11521E5D20708F0D7
:101FA000BCC0C11530E5D30708F014C1C83ED10547
:101FB00008F09CC0C03ED10560F5C83AD10508F0D4
:101FC00087C0C53AD10508F0FDC0C130D10509F17F
:101FD0002097F9F0C430D105E0F440C08533910575
:101FE00009F45AC0C997C1F68091DF03837089F064
:101FF000C0EED0E00EC0833E910599F170F4803EB2
:10200000910501F1823E910539F68091DF0382FD51
:1020100021C0CE01DF91CF910895863E910561F1F7
:10202000873E910571F1843E910509F0B5CF80910D
:10203000E00381FFEECF8091DF03C7EED0E084FDA7
:102040000DC0E7CF8091DF0380FD12C19091E003C6
:1020500090FFDFCFC3EED0E084FFDBCFD0E0C0E065
:10206000D8CF8091DF0382FD06C19091E00390FDFF
:10207000BFCF84FFCECFF2CF8091DF0383FDDDCFD2
:10208000C8CF8091DF0383FDF9C09091E00391FFF9
:10209000F0CFC4EED0E0BDCF8091DF0385FFB9CF94
:1020A000C9E2D0E0B6CF8091DF0385FFB2CFC5E3B0
:1020B000D0E0AFCF8091DF0386FFABCFCAE2D0E0A4
:1020C000A8CF8091DF0386FFA4CFC1E3D0E0A1CFEA
:1020D000CF3BD10518F6C85AD0E0CC0FDD1FC85E43
:1020E000DD4F0990D881C02DD46493CFC11540E253
:1020F000D40758F4C11581E0D80708F08ACFC03F53
:10210000D10508F4ABCFD06584CFC11590E4D907D1
:1021100008F4A4CFDF70D06A7CCFC11525E5D207C3
:1021200000F5C11534E5D30708F08AC0C11543E5B1
:10213000D40708F071C0C11582E5D80708F467C05C
:10214000CE018370992721E030E002C0220F331FB7
:102150008A95E2F7C695C69580E2C89FE0011124F2
:1021600052C0C11599E5D907A8F4C11528E5D207D1
:1021700008F06BC0C11536E5D30708F06FCF8C2F80
:102180000E949C0EC82FD0E0DC2FCC27CC27DF711B
:10219000D0623FCFC1154AE5D40708F45BC0CE0139
:1021A00090568115904208F059CF8D2F8F710E9463
:1021B0009C0E90E0982F882788279F719C012C2BDC
:1021C000E901E6CFC55AD0E0CB5EDD4FC881D0E053
:1021D000D0641FCFCE01E4E096958795EA95E1F7AC
:1021E00083702C2F26952695237040E2249F900122
:1021F0001124382B8C2F8370C1E0D0E002C0CC0FAB
:10220000DD1F8A95E2F7C22BD32BDC6802CFDC2FCF
:10221000CC27C16FD06AFDCECE018370992721E013
:1022200030E002C0220F331F8A95E2F7C695C695AB
:1022300090E2C99FE0011124C22BD32BDA68E9CECA
:10224000DC2FCC27C46FD06AE4CEDC2FCC27C06F44
:10225000D06ADFCE8C2F8F700E949C0E34E0D69512
:10226000C7953A95E1F7CF709C2FEC01D069D1CE9C
:10227000C9E3D0E0CECEC2EED0E0CBCEC6EED0E009
:10228000C8CEBF92CF92DF92EF92FF920F931F932F
:10229000CF93DF938C01C0907106D0907206E090CE
:1022A0007306F09074068091DB039091DC03A0919B
:1022B000DD03B091DE03C82AD92AEA2AFB2ACFE13E
:1022C000D0E0BC2ED701C6010C2E04C0B695A79550
:1022D000979587950A94D2F780FD0EC0219788F7CD
:1022E000B12C8B2DDF91CF911F910F91FF90EF902B
:1022F000DF90CF90BF900895B8018C2F0E94B70F48
:10230000019761F3EECFCF93DF93EC010E9441116F
:10231000BE01DF91CF910C94B70F0E948311292F3A
:102320002F7092959F7092509E3078F4E92FF0E0D4
:10233000EE57FA4C0C943734803F19F020F4883E65
:1023400020F481E00895843FE1F380E00895883E21
:10235000C0F3813FD1F7F5CF822F8695869586957C
:1023600008956F927F928F929F92AF92BF92CF9279
:10237000DF92EF92FF920F931F93CF93DF9389EC3D
:10238000C82E83E0D82E9FE9E92EF12CE701C05634
:10239000D10936011BC0F50185909490692DC801C3
:1023A0000E94F934682DC80101960E94F93482E038
:1023B000A80EB11C0E5F1F4FC017D10761F788E14F
:1023C000680E711C6896CE15DF0529F08E01085144
:1023D00011095301E0CF7E0180E6E80EF11C80E692
:1023E000C80ED11C8FE1E81682E0F80679F6DF917D
:1023F000CF911F910F91FF90EF90DF90CF90BF9002
:10240000AF909F908F907F906F900895CF93C091E1
:10241000E003C2FB992790F9981781F080FBC2F97D
:10242000C093E0036091DF0384E090E00E94F93400
:102430006C2F82E290E0CF910C94F934CF91089503
:10244000CF93DF93C7EAD1E060E0CE010E94F93478
:102450002196C11584E0D807B9F7DF91CF9108958F
:10246000CF93DF9300D00F92CDB7DEB790916F047A
:10247000943011F589837B836A839093E9008FEF11
:102480009091E800815095FD06C095ED9A95F1F781
:1024900000008111F5CF8091E80085FF0DC050E06C
:1024A00040E063E070E0CE0101960E94EE0380916F
:1024B000E8008E778093E8000F900F900F90DF91E7
:1024C000CF910895BC0184E00C943012BC0183E0EC
:1024D0000C9430129C0184E08093E9009FEF80917E
:1024E000E800915085FD06C085ED8A95F1F7000062
:1024F0009111F5CF8091E80085FF0CC050E040E0DD
:1025000066E070E0C9010E94EE038091E8008E77DA
:102510008093E8000895CF93DF93EC0180911F0131
:102520008823B1F18091DF0387FF32C060E284E04D
:102530008093E9008FEF9091E800815095FD06C0EF
:1025400095ED9A95F1F700008111F5CF8091E800A3
:1025500085FF1BC080911F0170E050E040E08111B9
:1025600004C050E040E068E070E0CE010E94EE035D
:102570008091E8008E778093E80080E2FE01ADE470
:10258000B4E001900D928A95E1F7DF91CF91089523
:1025900068E081E0CDCF81E08093E00080E280932D
:1025A000D8001092C9008FE19EE40197F1F700C0B6
:1025B000000087E090EBDC0180937B0690937C0623
:1025C000A0937D06B0937E0688E19CE00FB6F89458
:1025D000A895809360000FBE90936000FFCF80911C
:1025E000390480FD0AC0EAE4F3E01182108212820D
:1025F000339653E0EC35F507C1F7209A35B13E7FAD
:1026000025B121604FB7F8948AE493E0FC01519121
:10261000CF0168E025B9000000C057FF35B9550F5C
:10262000000000C000C000C035B900C06A9591F735
:10263000F3E08C359F0751F74FBF8FE594E001978A
:10264000F1F700C000000895EF92FF921F93CF931F
:10265000DF93EC018AE4E82E83E0F82E10E08C8111
:10266000970140913C0460913B04810F0E945F0DF3
:10267000165D83E0E80EF11C1C3F89F70E94EF1203
:102680009A818C8190FF08C08F5F8C83DF91CF91FE
:102690001F91FF90EF9008958150F7CFBF92CF9296
:1026A000DF92EF92FF920F931F93CF93DF93FC0182
:1026B0008281DD24DA9480FD02C0DD24D3940AE413
:1026C00013E0D0E0C0E026E0B22EF80111821082C3
:1026D000128294E0E92EF12CC12C809147038C0DDD
:1026E00087300CF43DC06B2D0E940134892F082ED9
:1026F000000C990B8C179D0791F480913C048E9DE2
:10270000A0018F9D500D11245595479555954795DE
:10271000980160913B0480913A040E945F0DCD0CBA
:10272000F1E0EF1AF108C9F621960D5F1F4FC63090
:10273000D10559F60E94EF128091470391E0D9121A
:1027400015C0811111C085E080934703DF91CF91BF
:102750001F910F91FF90EF90DF90CF90BF90089561
:1027600087FFC5CF8A5FC3CF8150EECF90E001963F
:10277000BE010E942334E8CF0F931F93CF93DF93C2
:10278000CAE4D3E0FE01118210821282339683E004
:10279000EC35F807C1F710E000E080914803082EFF
:1027A000000C990B081719078CF180911001082E65
:1027B000000C990B801791074CF19E0140913C044D
:1027C00060913B0480913A040E945F0D0F5F1F4FA0
:1027D00023960630110509F70E94EF1280910F0130
:1027E00090914803980F9093480320911001280F6F
:1027F00020931001121614F495301CF081958093EB
:102800000F01DF91CF911F910F91089519821882C6
:102810001A82DCCF8F929F92AF92BF92CF92DF92BB
:10282000EF92FF920F931F93CF93DF93EC014C81B4
:10283000042F10E09801D8010E9471359B01AC0172
:102840000E943C354B015C01E0E2F0E0E01BF10B43
:10285000A5E5B0E0AC019B010E943C356B017C0119
:102860009F01DF010E9444349B01AC010E94473567
:102870009B01AC01280D391D4A1D5B1DC701B60126
:102880000E944F35F22E822F90E039E23F15D8F1A9
:1028900043E0249F9001112435952795122F109520
:1028A0009AE4C92E93E0D92E00E085E5E82EEF18D2
:1028B0008E2D01FD8F2D9601412F60913B040E94CA
:1028C0005F0D0F5F53E0C50ED11C063089F70E94E3
:1028D000EF129C8181E0992319F0903219F48FEF67
:1028E0008093110180911101890F8C83DF91CF9129
:1028F0001F910F91FF90EF90DF90CF90BF90AF901E
:102900009F908F90089525E530E0A901481B590B51
:10291000CA019A01220F331F280F391F37FFBCCF7E
:102920002F5F3F4FB9CFEF92FF920F931F93CF933B
:10293000DF938C01CAE4D3E0F12CE12CF8019481FF
:1029400060913B0480913A04F3E0EF16F104FCF44B
:102950009923F9F09E0140913C040E945F0D2FEFF6
:10296000E21AF20A239686E0E816F10439F70E948B
:10297000EF12F801848190E0019681709927848399
:10298000DF91CF911F910F91FF90EF9008959923C0
:1029900009F39E0140E0E1CF9091390490FF0CC013
:1029A000EAE4F3E0818360834283339693E0EC357D
:1029B000F907C1F70C94EF1208950F931F93CF936B
:1029C000DF9300D00F92CDB7DEB78C018091490321
:1029D00081110AC09E012F5F3F4F46E96FEF0E94B1
:1029E0005F0D8A8180934903F8016481613069F049
:1029F0008091490340E0662361F040E0623011F4C9
:102A00004091490380E060E004C06091490340E0E8
:102A100080E00E94CC14F801848190E0019663E08C
:102A200070E00E94233484830F900F900F90DF9109
:102A3000CF911F910F910895CF93DF9300D00F9204
:102A4000CDB7DEB79091390490FF0AC09E012F5F89
:102A50003F4F0E945F0D4B8169818A810E94CC1497
:102A60000F900F900F90DF91CF910895CF93DF9348
:102A7000EC01EC81F0E0E753FD4F4491E9E3F4E031
:102A8000628181810E941C158C818F5F8C83DF9114
:102A9000CF910895CF93DF93EC01E9E3F4E0438114
:102AA00062818C810E941C158C818F5F8C83DF91E9
:102AB000CF9108954F925F926F927F928F929F92E3
:102AC000AF92BF92CF92DF92EF92FF920F931F933C
:102AD000CF93DF93FC016280448081E08483E9EC42
:102AE000F2E07490E8E4F3E0E491CCE5D3E03AE47A
:102AF000E32E33E0F32E4AE7C42E43E0D42E52E017
:102B0000A52EBB24B39488248A94912C55245A94DE
:102B1000E7190E2F10E082E0861530F080913A041C
:102B2000888380913B048983411021C01B821A82D3
:102B300097014A81698188810E945F0D259683E013
:102B4000E80EF11CCC16DD0631F7DF91CF911F9115
:102B50000F91FF90EF90DF90CF90BF90AF909F903C
:102B60008F907F906F905F904F900C94EF128B81BD
:102B70008823E9F081508B83859DC00111246C81ED
:102B800070E00E940F34FB01FF27E753FD4F849153
:102B9000E82FE719E59DC0011124B8010E940F3408
:102BA00080913C04689FB00111247A83C1CF0E94B8
:102BB0009F3420913C04269521582A9DA0012B9DED
:102BC000500D1124452F5527841795070CF0B0CFD1
:102BD00082E0861588F40E949F34B4010E94233459
:102BE00088830E949F3420913B042695622F70E0D9
:102BF0000E942334280F29831A8280913C04893C47
:102C000020F088EC8C838B8393CF8431D8F784E1D8
:102C1000F9CF6AEE7EEF90E080E00E94173560E029
:102C200082E090E00E94F93460E083E090E00E944E
:102C3000F9341092DB031092DC031092DD03109242
:102C4000DE0360E084E090E00E94F93460E082E21C
:102C500090E00E94F93460E085E090E00E94F93451
:102C600060E086E090E00E94F9346FEF87E090E04A
:102C70000E94F93440E050E0BA0188E090E00E9400
:102C80000B3560E08DE090E00E94F93440E050E0C8
:102C9000BA0188E190E00E940B3560E087E190E0A6
:102CA0000E94F93440E050E0BA018CE190E00E94CB
:102CB0000B3570E060E080E290E00E94173540E064
:102CC00050E0BA0188E190E00E940B3540E050E00E
:102CD000BA018FE090E00E940B3540E050E0BA016D
:102CE00083E190E00C940B35CF92DF92EF92FF924C
:102CF0006B017C010E94E109B701A60188E090E028
:102D0000FF90EF90DF90CF900C940B355F926F9215
:102D10007F928F929F92AF92BF92CF92DF92EF926B
:102D2000FF920F931F93CF93DF9300D00F92CDB7F5
:102D3000DEB7182F762E042F622E9091390490FF63
:102D400029C0E92FE695AE2FB0E0AA5DBE4F8C9169
:102D5000809337049E7F923081F59E012F5F3F4F15
:102D6000812F0E945F0D4B8169818A810E94CC1462
:102D700010933A0470923B0400933C04662051F097
:102D80006091390470913A0480913B0490913C0425
:102D90000E9474160F900F900F90DF91CF911F91AA
:102DA0000F91FF90EF90DF90CF90BF90AF909F90EA
:102DB0008F907F906F905F900895823019F400910A
:102DC0003C04D6CF863019F410913A04D1CF893023
:102DD000D9F3893169F6E9518E2F8170582EE69525
:102DE000F0E0EC53FD4FA590B490BB248AE4E82EAC
:102DF00083E0F82ED12CC12C96E0892E912CC601AF
:102E0000B4010E940F34812F511013C0860F970117
:102E1000402F672D0E945F0DCA0CDB1C83E0E80E7B
:102E2000F11C8CE5E81683E0F80649F70E94EF12E2
:102E30009FCF861BECCFE9E3F4E0438128E0421BFF
:102E400008F440E021E0628181810C948616E9E378
:102E5000F4E0438128E0420F08F44FEF21E0628163
:102E600081810C948616E9E3F4E0628128E0621B1C
:102E700008F460E021E0438181810C948616E9E347
:102E8000F4E0628128E0620F08F46FEF21E04381F3
:102E900081810C948616E9E3F4E0818121E043818D
:102EA000628188500C948616E9E3F4E0818121E088
:102EB00043816281885F0C94861680913D0488234B
:102EC00019F0815080933D046091390470913A0467
:102ED00080913B0490913C040C94741680913D04C5
:102EE000833018F48F5F80933D04609139047091B2
:102EF0003A0480913B0490913C040C947416E9E3ED
:102F0000F4E08DE0808311828FEF828386E98383F2
:102F1000148260817181828193810C947416CF92A6
:102F2000DF92FF920F931F93CF93DF930E943D3365
:102F300065EC8EEF0E94DF0E60E08DEF0E94DF0EE9
:102F4000C0E060E08C2F0E94DF0ECF5FC831C9F770
:102F500065EC8EEF0E94DF0E61E08DEF0E94DF0EC8
:102F6000C0E060E08C2F0E94DF0ECF5FC03CC9F74D
:102F700065EC8EEF0E94DF0E63E08DEF0E94DF0EA6
:102F80006FEF81E00E94DF0E61E080E00E94DF0EC3
:102F90008FE39CE90197F1F700C00000E9E5F1E05B
:102FA00050E040E098E1F92EC1E0D0E001E011816D
:102FB00072816381DA01AA0FBB1FAA0FBB1FA75A38
:102FC000BE4F8C91837090E0A12FA695A695A695F3
:102FD000F89E9001F99E300D112427583B4FA20F07
:102FE000B32FB11D17706E0101C0CC0C1A95EAF712
:102FF0001C911C291C93A72FA695A695A695A20FF8
:10300000B32FB11D77706E0101C0CC0C7A95EAF731
:103010007C917C297C93A62FA695A695A695A20FB8
:10302000B32FB11D67709E0102C0220F331F6A9536
:10303000E2F7B9012C91262B2C9387559B4FDC018D
:103040000C934F5F5F4F34964F32510509F0AFCF6D
:1030500080E00E94F20E81E0DF91CF911F910F91ED
:10306000FF90DF90CF900C94F20E46E050E06CE1C0
:1030700070E085E796E00C94E934909175069370C2
:1030800059F08093760660937706473908F046E951
:10309000409378060C9435180895E5E7F6E081E250
:1030A00080838091230190912401A0912501818347
:1030B0009283A3838FE784838FEF85830C943518E5
:1030C0001F920F920FB60F9211242F933F934F939D
:1030D0005F936F937F938F939F93AF93BF93EF9380
:1030E000FF938091E10082FF09C08091E20082FF9E
:1030F00005C08091E1008B7F8093E1008091DA0030
:1031000080FF24C08091D80080FF20C08091DA0029
:103110008E7F8093DA008091D90080FF9BC080E190
:1031200089BD82E189BD09B400FEFDCF81E08093B5
:103130006F0480914A04811109C00E949E030E947D
:1031400069048091E20084608093E2008091E10054
:1031500080FF17C08091E20080FF13C08091E200E1
:103160008E7F8093E2008091E20080618093E20094
:103170008091D80080628093D80019BC85E080934C
:103180006F048091E10084FF29C08091E20084FFF8
:1031900025C080E189BD82E189BD89B5982F9170F4
:1031A00080FFFBCF8091D8008F7D8093D8008091E5
:1031B000E1008F7E8093E1008091E2008F7E80931A
:1031C000E2008091E20081608093E20080917004CF
:1031D000882309F445C084E080936F048091E10066
:1031E00083FF27C08091E20083FF23C08091E1002C
:1031F000877F8093E10082E080936F0410927004D7
:103200008091E1008E7F8093E1008091E2008E7FCB
:103210008093E2008091E20080618093E20042E0CE
:1032200060E080E00E9437048091F0008860809325
:10323000F000FF91EF91BF91AF919F918F917F919E
:103240006F915F914F913F912F910F900FBE0F9013
:103250001F90189519BC10926F0410924A0476CFF3
:103260008091E30087FD93E090936F04B7CF78944B
:103270001F921FB61F9211248F939F93AF93BF93FA
:103280008091460490914704A0914804B09149046C
:103290000196A11DB11D8093460490934704A0930D
:1032A0004804B0934904BF91AF919F918F911F90B3
:1032B0001FBE1F9018952FB7F894809146049091E7
:1032C0004704A0914804B09149042FBF08959091FC
:1032D000390490FF3DC09170811129C09260909394
:1032E0003904662351F06091390470913A04809159
:1032F0003B0490913C040E947416609139046695D9
:1033000070E04BE050E084E091E00E94AF34892B04
:10331000A9F01092380481E08093F00320E04091FE
:103320003C0460913B0480913A040C9486168B32E5
:1033300010F09465D4CF880F982BD1CF81E0809383
:1033400038040E945B199093EE038093ED03E3CF62
:103350000895809139048695815009F48AE261E0EC
:103360000C9467198091390486958F5F8B3208F031
:1033700081E061E00C9467199091390490FF07C0D7
:103380009695981720F0961710F40C94B21961E0F6
:103390000C9467190E945B199C01909129048091FB
:1033A0002A04982B21F03093260420932504909131
:1033B0002B0480912C04982B21F03093230420932C
:1033C0002204E091EA03F091EB03309749F082E0A8
:1033D000809327040480F581E02D87E294E009942E
:1033E000089590E080E00E94390890E080E00E941B
:1033F00023081092D8031092D7030E946B0786E02F
:10340000E7E2F4E0DF011D928A95E9F710922404C7
:103410001092210410927F030C94CA1960937106D4
:103420007093720680937306909374060C94F1194E
:103430000F931F93609171067091720680917306CD
:10344000909174068B019C01067011272227332767
:10345000063011052105310529F468601F910F918F
:103460000C940E1A677FFACF0F931F9341E050E040
:1034700060E070E004C0440F551F661F771F8A95F7
:10348000D2F7CB01BA016095709580959095009127
:1034900071061091720620917306309174066023B4
:1034A0007123822393231F910F910C940E1A9091F4
:1034B000D603809589238093D603282F277039F46B
:1034C000282F082E000C330B9217130621F490912D
:1034D000E00392FF07C08595859585950E94341A73
:1034E0001092D60308950F931F9341E050E060E0DF
:1034F00070E004C0440F551F661F771F8A95D2F7EE
:103500008091710690917206A0917306B091740635
:103510008A019B01082B192B2A2B3B2BC901B801CF
:103520001F910F910C940E1A6093DB037093DC03D0
:103530008093DD039093DE030C94F1191092D9036C
:1035400080911F01E6E2F3E0882359F08091DF03C8
:1035500087FF07C08EE1DF011D928A95E9F70C9481
:10356000F11986E0F8CF1F93CF93DF93CDB7DEB785
:10357000AA970FB6F894DEBF0FBECDBF81E794E0E7
:103580002091F100DC012D93CD01B4E089379B0738
:10359000B9F780917204833009F471C0B8F48130B6
:1035A00009F448C0823009F4B2C08091E80083FF7A
:1035B0003AC180917104909172049A3008F033C13D
:1035C000E92FF0E0E057FA4C0C9437348A3009F4D4
:1035D0008DC08B3009F470C0893039F78091710447
:1035E000813219F78091750490917604009711F05B
:1035F0000297D9F68091E800877F8093E800809158
:10360000E80082FF37C09091F3008091F2000297AA
:1036100029F48091F1008B7F813021F48091F100B9
:1036200080934C048091E8008B778093E8000E949F
:103630001804BBCF80917104813A09F0B6CF809114
:10364000E800877F8093E80080917504909176046C
:10365000892B61F460E28DE494E070E00E94CA047A
:103660008091E8008B778093E8009FCF60E090E046
:1036700080E0F3CF80916F048111C1CF96CF80910C
:103680007104813A09F091CF80917504909176048C
:10369000892B09F08ACF8091E800877F8093E8002A
:1036A0008091E80080FFFCCF80911F018093F100A2
:1036B0008091E8008E77B9CF80917104813209F052
:1036C00074CF8091750490917604892B09F06DCFA9
:1036D0008091E800877F8093E8000E941804809121
:1036E000730480931F010E949E1A5FCF8091710422
:1036F000813209F05ACF8091E800877F8093E800FB
:103700000E9418048091740480934B044ECF8091E2
:103710007104813A09F049CF8091E800877F809356
:10372000E8008091E80080FFFCCF80914B04BECF81
:10373000803899F0823809F076C0809175048F70D6
:10374000873008F070C08093E9008091EB0085FB22
:10375000882780F91092E90006C080916D0490914D
:103760006E04911182609091E800977F9093E80039
:103770008093F1001092F1008091E8008E77B5C13E
:10378000882309F4A2C1823009F04DC080917304EE
:103790008111A6C1809175048F702FEF280F2630FC
:1037A00008F041C08093E9002091EB0020FF98C110
:1037B000933031F48091EB0080628093EB0090C1F4
:1037C0009091EB0090619093EB0021E030E001C01C
:1037D000220F8A95EAF72093EA001092EA0080917E
:1037E000EB008860EACF81111EC0109173041F772F
:1037F0008091E3008078812B8093E3008091E80042
:10380000877F8093E8000E9418048091E80080FF81
:10381000FCCF8091E30080688093E30082E0111187
:1038200083E080936F048091E80083FF0AC0809159
:10383000E800877F8093E8008091EB0080628093AE
:10384000EB00AA960FB6F894DEBF0FBECDBFDF9196
:10385000CF911F9108958058823028F720917304EA
:10386000309174042C3DE3E03E07A1F583E08A83A8
:103870008AE289834FB7F894DE01139620E03EE098
:1038800051E2E32FF0E050935700E49120FF03C092
:10389000E295EF703F5FEF708E2F90E0EA30C0F05E
:1038A000C7968D939D932F5F243159F74FBF809119
:1038B000E800877F8093E8006AE270E0CE0101961D
:1038C0000E94CA048091E8008B778093E800ABCF18
:1038D000C096E7CF8091750490917604432F5527C9
:1038E0004330510509F44AC078F54130510509F4D7
:1038F0007AC08BE590E0EEE0F6E04230510509F049
:1039000092CF2091E800277F2093E8002091770450
:10391000309178048217930708F49C0140E0211548
:10392000310509F065C0411163C08091E80082FD56
:10393000C9CF80916F04882329F2853019F28091D4
:10394000E80083FFF2CFBECF4132510509F43CC0FD
:103950004232510509F067CF8330910508F063CFFB
:10396000FC01EE0FFF1FE75AFD4F0190F081E02DA3
:103970008A5A9D4FDC018C9190E01AC03327213088
:103980003105D1F02115310561F02230310509F002
:103990004ACFEBE7F6E0E4918E2F90E0EBE7F6E01C
:1039A00007C0E5EAF6E0E4918E2F90E0E5EAF6E064
:1039B000009709F438CFA5CFEBE8F6E0E4918E2F1D
:1039C00090E0EBE8F6E0F4CF8330910508F02BCFE0
:1039D000880F991FFC01E15AFD4F0190F081E02D05
:1039E00089E090E08ECF82E190E0E9E6F6E089CFD1
:1039F00080916F04882309F465CF853009F462CF84
:103A00008091E80083FD5ECF8091E80082FD8DCF3C
:103A10008091E80080FF83CF9091F3008091F200C5
:103A20002115310519F08830910550F041E00897D3
:103A300009F040E08091E8008E778093E8006FCF36
:103A400044914093F1003196215031090196E8CF1D
:103A5000803809F0E8CE8091E800877F8093E80005
:103A6000809170048093F10087CE8111DCCE10919B
:103A70007304123008F0D7CE8091E800877F8093DE
:103A8000E800109370040E941804112311F084E0E0
:103A900005C08091E30087FDFACF81E080936F0439
:103AA00042E061EC81E00E94370442E261EC84E094
:103AB0000E94370442E261EC82E00E94370442E255
:103AC00060EC83E00E943704AECE809173048130B5
:103AD00009F0A9CE81E0933009F080E080936E0474
:103AE0001092E9008091E800877F8093E8000E94AF
:103AF000180499CE1F920F920FB60F9211242F9394
:103B00003F934F935F936F937F938F939F93AF9365
:103B1000BF93CF93DF93EF93FF93D091E900DF70D2
:103B20008091EC00C82FC17080FDC0E81092E900C0
:103B30008091F000877F8093F00078940E94B31A00
:103B40001092E9008091F00088608093F000CD2B06
:103B5000CF70C093E900FF91EF91DF91CF91BF91BA
:103B6000AF919F918F917F916F915F914F913F9115
:103B70002F910F900FBE0F901F9018958823B1F1D1
:103B80009CEF980F913A38F4682F84E293E00E94FA
:103B900006070C946B0790E2980F983088F48770B2
:103BA00021E030E0A90102C0440F551F8A95E2F7D9
:103BB000CA0180959091D90389238093D903E9CFD5
:103BC0009BE5980F933020F490E080E00C94390846
:103BD00098E5980F973120F490E080E00C9423084A
:103BE000803F20F00E94700D0C94CA190895CF9365
:103BF000C82F882309F46FC08CEF8C0F813AC0F571
:103C000080911F01882311F18091DF0387FF1EC07F
:103C1000EC2FE695E695E695F0E0EC5DFC4F8281B1
:103C200090E04C2F477021E030E002C0220F331F9C
:103C30004A95E2F782239323892B91F06C2F84E23B
:103C400093E00E9406070E946B070AC0E6E2F3E0D9
:103C50008CE293E02191C21789F38E179F07D1F769
:103C60006C2F84E293E00E943007CF910C946B0795
:103C700080E28C0F883068F4C77021E030E001C02A
:103C8000220FCA95EAF78091D903822B8093D9033A
:103C9000ECCFEBE5EC0FE33040F4F0E0EB5EFD4FF2
:103CA000808190E0CF910C943908E8E5EC0FE73182
:103CB00050F4F0E0EE0FFF1FE85EFD4F8081918130
:103CC000CF910C942308C03F30F08C2F0E942B0E14
:103CD000CF910C94CA19CF9108951F93CF93DF937E
:103CE000182FD0E0C0E0893311F4C0E5D0E0812F77
:103CF0000E94F71D209731F4812FDF91CF911F9102
:103D00000C94BE1D8FE99FE00197F1F700C0000001
:103D10002197F0CF0F931F93CF93DF93C62FD42F0C
:103D2000022FFC0182818823A1F0609370060E941B
:103D30005B1990936F0680936E06C77081E001C097
:103D4000880FCA95EAF7DF91CF911F910F910C94DC
:103D5000190880917006681335C080916E069091A5
:103D60006F060E94F706883C910560F510E21D0F72
:103D7000CD17B9F080E28C0F883040F4C77081E035
:103D800001C0880FCA95EAF70E940E08183048F45F
:103D900081E09D2F977001C0880F9A95EAF70E94E5
:103DA0001908802F0E946D1E183098F4D77081E09A
:103DB00001C0880FDA95EAF7DF91CF911F910F913B
:103DC0000C940E08C77081E001C0880FCA95EAF70D
:103DD000F3CFDF91CF911F910F9108953F924F92B2
:103DE0005F926F927F928F929F92AF92BF92CF928B
:103DF000DF92EF92FF920F931F93CF93DF9300D048
:103E000000D00F92CDB7DEB78C01FC018381948185
:103E1000892B31F08081918189238F3F09F074C60D
:103E20000F900F900F900F900F90DF91CF911F91F7
:103E30000F91FF90EF90DF90CF90BF90AF909F9049
:103E40008F907F906F905F904F903F9008950E9469
:103E50004111F82E682F89819A810E94D8076981C3
:103E60007A818F2D0E94AA0F7C01F801828188231C
:103E700009F43DC6970122513F452031310508F034
:103E80001FC68FEF93E00E94D534FEEEEF0E57EA87
:103E9000852E99249394882381F18091D60387708D
:103EA00009F4BECFF8018281882309F4B9CF82E0FA
:103EB0000F900F900F900F900F90DF91CF911F9167
:103EC0000F91FF90EF90DF90CF90BF90AF909F90B9
:103ED0008F907F906F905F904F903F900C94571A07
:103EE000811424E09206C9F2C4010E94D5348111E4
:103EF00001C0EA943FEF831A930AE110F1CF1C82CC
:103F00001B82442443944AE0342E74018FEFE81A54
:103F1000F80AC4010E94D53489831A82882309F4DF
:103F2000BCCF9FEF980F933000F58A83498292E0CF
:103F3000890E911CC7010E94D5348B83882309F414
:103F4000ACCFFE0131967F01F70120812223E9F2F7
:103F5000213009F049C091818281913041F4F2E031
:103F6000EF0EF11C0E946D1E09C04701EACF92308E
:103F700049F422E0E20EF11C0E94F71D3FEFE31A24
:103F8000F30AE2CF933031F432E0E30EF11C0E94E9
:103F9000BE1DF4CF943021F08FEFE81AF80AEECF6F
:103FA00092E0E90EF11C30E020E0B7016F5F7F4F37
:103FB000F70141818053990B8A30910550F02150CF
:103FC0003109E0F28FE99FE00197F1F700C00000AE
:103FD000F6CF329EF001339EF00D11249C012E0F7E
:103FE0003F1F842F7B01E1CFE22FF0E0E758FA4F2B
:103FF0005490822F86958695869590E0FC01E7592E
:10400000FA4F64902770712C022E02C07594679449
:104010000A94E2F7E1E06E227724FC01E75AFA4FB6
:10402000A490B12C022E02C0B594A7940A94E2F792
:10403000F1E0AF22BB24FC01E75BFA4FC490D12C26
:1040400002C0D594C7942A95E2F721E0C222DD246C
:104050006114710419F081EE0E94F71DA114B104DE
:1040600019F086EE0E94F71D852D0E946D1EAB286B
:1040700019F086EE0E94BE1D672819F081EE0E949D
:10408000BE1DCD2809F47ACF8CE26CCF81E00E946E
:10409000731A0E94181A01CF81E00E94341AF9CFD6
:1040A00082E0F5CF882309F4F8CE8091750691E07F
:1040B000892780937506109214010E943518EDCE61
:1040C000882309F4EACE80917506982F96959695E7
:1040D0009F5F923208F091E0837009F4DECE990F71
:1040E000990F892BE6CF882309F4D7CE80917606E5
:1040F00090E0409178066091770608960E943D18FE
:10410000CCCE882309F4C9CE8091760640917806FA
:10411000609177068850990BF1CF882309F4BDCEC2
:104120006091770620E1620F08F46FEF80917606C8
:104130004091780690E0E2CF882309F4AECE6091FA
:10414000770620E1621B08F460E0F0CF882309F4D1
:10415000A4CE4091780620E1420F08F44FEF809101
:10416000760660917706E6CF882369F0409178065D
:1041700020E1421B08F440E08091760660917706CA
:1041800090E00E943D18F8018281882309F4CDC493
:1041900010927006F2E0EF16FCE5FF0608F47AC113
:1041A00026E1E2162CE5F20630F0C7018A5F9C4555
:1041B000099708F06FC10E94760F9093E0038093F7
:1041C000DF0330E1E3163CE5F30609F432C108F001
:1041D000B1C098E0E9169CE5F90609F420C108F0A1
:1041E0007AC0F4E0EF16FCE5FF0609F410C108F010
:1041F0005CC032E0E3163CE5F30609F4FEC083E060
:10420000E8168CE5F80609F4FEC06091DF03F09033
:10421000E00384E090E00E94F9346F2D82E290E0A8
:104220000E94F9340E949E1A38CE83EFE8168CE57E
:10423000F80661F1A0F4E8EDEE16ECE5FE0611F1EA
:10424000F9EDEF16FCE5FF0669F127EDE2162CE526
:10425000F20609F098CF26E241EE61EE0FC035EF8D
:10426000E3163CE5F306D1F0A8F027E245EE66EE52
:1042700096EFE9169CE5F90609F085CFC8010E9482
:104280008A1E0BCE27E245EE65EEF8CF26E241EE20
:1042900060EEF4CF27E245EE64EEF0CF26E241EE89
:1042A00062EEECCF28E241E0EFCF8091DF03806146
:1042B00096E0E9169CE5F90609F4A2C08091DF03B7
:1042C0008860E7E0EE16ECE5FE0608F499C0809100
:1042D000DF03806295C08091DF038D7FFCE0EF16E5
:1042E000FCE5FF0609F48CC078F48091DF038C6054
:1042F0003AE0E3163CE5F30609F482C008F493C003
:104300008091DF038E7F7CC08091DF03877F9EE0FA
:10431000E9169CE5F90609F473C08091DF038B7FF1
:10432000EFE0EE16ECE5FE0608F46AC08091DF03CC
:104330008F7E66C0FBEFEF16FCE5FF0609F46BC04D
:1043400068F533E1E3163CE5F30609F47AC090F42E
:1043500091E1E9169CE5F90609F46FC0E2E1EE1679
:10436000ECE5FE0609F051CF0E949E1A8091DF0312
:104370008F7746C0F5E1EF16FCE5FF0609F469C04A
:1043800008F47DC08091E00381603AEFE3163CE5DC
:10439000F30609F03ACF8093E00337CF8FEFE816AA
:1043A0008CE5F80609F451C0A0F48091E0038D7FFC
:1043B000EDEFEE16ECE5FE0671F38091E0038E7FE3
:1043C000FEEFEF16FCE5FF0630F38091E00383601B
:1043D000E2CF21E0E2162DE5F20609F459C008F417
:1043E00044C060E082E0E8168DE5F80609F00DCFE4
:1043F0008EE090E00E94F93408CF8091DF03816065
:104400008093DF0302CF8091DF038260F9CF809138
:10441000DF038460F5CF8091E0038260BCCF8091A0
:10442000DF038064EDCF0E949E1A8091DF038068D5
:10443000E7CF8091DF038F7DE3CF8091DF038F7B18
:10444000DFCF8091DF03837FDBCF8091E0038C7F20
:10445000A2CF8091DF0382FB992790F921E0922778
:1044600090FB82F990FB83F9CBCF8091E003982FEA
:10447000909591708E7F892B90FB81F98CCF0E9453
:104480009E1A9091DF03892F97FB87F98058B8CF48
:1044900061E0AECF8091D90396E1E9169CE5F9067B
:1044A00009F052C38A7A91E009F490E090937E0378
:1044B00069E2811165E384E293E00E9430070E9483
:1044C0006B07EBCC8091390480FF1BC08E7F8093FB
:1044D00039046091390470913A0480913B049091C1
:1044E0003C040E94741610923804EFEFF0E722E0CB
:1044F000E150F0402040E1F700C000000E94EF12C0
:10450000CCCC81608093390461E086950E94671964
:10451000C4CC49EA59E162EB79E10E945B08BDCC69
:1045200042EB59E169EA79E1F8CF44E557E16BE400
:1045300077E1F3CF43E357E16FE377E1EECF4BE170
:1045400057E167E277E1E9CF47E257E16BE177E1D5
:10455000E4CF4EE657E16DE577E1DFCF61E081E042
:10456000D5CF65E082E00E94BC1997CC68E086E078
:10457000FACF64E18FE0F7CF67E185E1F4CF62E243
:1045800089E1F1CF61E083E2C1CFFBE5EF16FDE504
:10459000FF0611F12CE5E2162DE5F20609F006C33F
:1045A0008091E00382FB882780F991E089270E94AF
:1045B0000612FCC20E949E1A3FEF84E39CE0315039
:1045C00080409040E1F700C000000E94CB120E94A2
:1045D000091663CC81E0EBCF80E0E9CFC7010E94F0
:1045E000B007D82EF2C22F2D2F70A22E8F2D807FD4
:1045F00019F0A29490EFA922DD20C9F0AA2069F059
:1046000080E28E0D883010F081100BC08091D903AC
:10461000A82AA092D9030E946B078E2D0E94F71D35
:1046200019C08091D803A82AA092D803F4CF8E2D68
:104630000E94BE1DAA2071F0A09480E28E0D8830E9
:1046400010F081103DC08091D903A822A092D90317
:104650000E946B07232D2850330B2430310510F4B2
:104660000E944F08CC2009F4DBCB8091D60380FD5B
:10467000D7CBF80112828595859585950E94731A8E
:10468000C8010E94EE1E8091D6038595859585957B
:104690000F900F900F900F900F90DF91CF911F917F
:1046A0000F91FF90EF90DF90CF90BF90AF909F90D1
:1046B0008F907F906F905F904F903F900C94341A42
:1046C0008091D803A822A092D803C2CF3F2D3F707B
:1046D000932E8F2D807F803219F0929480EF982254
:1046E000882071F081E0881681F1DD20D9F1AA20BF
:1046F00091F1F801858180FF90CF8F7085832BC069
:10470000DD20B1F09091DA03892D892BA11003C02F
:104710000E9419089FCFE1E0AE12FACF2091E0038A
:1047200022FD98CF981709F495CF8093DA0392CFA2
:10473000A11006C00E946507892D0E940E088ACF2D
:10474000F1E0AF1609F486CFF5CFDD2031F025E09A
:104750002A1508F47FCF892DDBCF34E03A1508F411
:1047600079CFEACFAA2041F3F9E38F1209C02FEFE6
:1047700037EE83E0215030408040E1F700C0000078
:104780008E2D0E94BE1D66CF8F2D869586958370D7
:1047900061F0813009F05ECFC7019370D11002C083
:1047A00090E080E00E94230855CFC7019370D1109C
:1047B00002C090E080E00E9439084CCF8E2DDD20B1
:1047C00029F00E942B0E0E94CA1944CF0E94700D3E
:1047D000FACF8F2D837009F066C0D1103BCF8E2D9C
:1047E000829586958770880F880F6E2D6F70462E84
:1047F000512C712C612C082E04C0440C551C661CD5
:10480000771C0A94D2F740E050E0BA01E4FE0FC0F2
:104810004FE050E060E070E004C0440F551F661F99
:10482000771F8A95D2F740955095609570958F2D9A
:10483000869586958370823019F1D8F48090DB03D9
:104840009090DC03A090DD03B090DE03813069F02E
:104850004429552966297729CB01BA016821792194
:104860008A219B210E94941AF5CE482859286A284B
:104870007B28CB01BA016429752986299729F2CFB3
:1048800044295529662977294090DB035090DC03A1
:104890006090DD037090DE03CB01BA0164257525BD
:1048A00086259725DFCF8695DD2011F08F2D81702D
:1048B000882309F4CFCE8E2D829586958770880F38
:1048C000880F6E2D6F70462E512C712C612C082E86
:1048D00004C0440C551C661C771C0A94D2F740E0B7
:1048E00050E0BA01E4FE0FC04FE050E060E070E03D
:1048F00004C0440F551F661F771F8A95D2F7409555
:104900005095609570958F2D869586958370823031
:1049100019F1D8F48090710690907206A0907306F9
:10492000B0907406813069F04429552966297729A9
:10493000CB01BA01682179218A219B210E940E1A9C
:1049400089CE482859286A287B28CB01BA016429D6
:10495000752986299729F2CF44295529662977296F
:1049600040907106509072066090730670907406C5
:10497000CB01BA016425752586259725DFCF9F2DAC
:104980009F70F92EDD2029F0892F0E94731A8E2D39
:10499000BFCE8E2D0E940E088F2D0E94341A5ACE43
:1049A0008E2DE2EF8E1609F457C0E81578F0F0EF7F
:1049B0008F1649F121EF821609F446C0DD2009F473
:1049C0006FC0A1102ACE8F2D8F7143C033EF831695
:1049D00009F447C094EF8912F1CFDD2009F455C0E6
:1049E0002F2D2F71F22E822F0E94731A8091E003D7
:1049F00082FD07C038E0F39EC001112483608093DC
:104A0000D6038F2D26C0DD20D1F0E4E0EA1508F4AE
:104A100021CE2F2D2F7161E070E080E090E004C086
:104A2000660F771F881F991F2A95D2F7409071064D
:104A30005090720660907306709074069BCFF5E0FC
:104A4000FA1508F407CEE5CF8F2D8F71DD2009F41C
:104A5000A4CF0E94731AFECD8F2D8F71DD20C9F374
:104A60009CCF60E070E0CB01DD2009F467CF2F2DF3
:104A70002F7161E070E080E090E004C0660F771F66
:104A8000881F991F2A95D2F759CF81E00E94571AA3
:104A900081E08A1508F0DECD82E00E94571ADACD57
:104AA000AA2059F0893309F06BCE9FEFE7EEF3E0CF
:104AB0009150E040F040E1F761CE8F2D8F716DCFC6
:104AC000F0E1EF16FFE5FF0609F4E0CA21E1E21686
:104AD0002FE5F20609F4E4CAF701EE55FD45E8308A
:104AE000F10508F0A2CBE656FA4C0C94373430E1CD
:104AF000E3163FE5F30609F4CFCA91E1E9169FE515
:104B0000F90651F782E0C9CA85E0DE0111960190ED
:104B10000D928A95E1F7F801228189819A8121110C
:104B200096C90E94B007F82E9AC9F6E1EF16FCE587
:104B3000FF06E1F580917E0369E2811165E384E27D
:104B400093E00E940607BBCC82722CECE2162CE5A7
:104B5000F20609F4FECC08F0A5C096ECE9169CE537
:104B6000F90609F4E2CC08F074C0F3ECEF16FCE5AA
:104B7000FF0609F4CECC08F05BC032ECE3163CE54E
:104B8000F30609F49FCC3AE5E3163DE5F30609F494
:104B900021CD08F0FACCE1149CE5F90609F40ACD20
:104BA000EEEDEE16ECE5FE0609F411CDF80182817A
:104BB000E080F180882309F411CDC7010E944111E2
:104BC000D82E682FC7010E94D807B7018D2D0E94EB
:104BD000B70F7C01882EF801D280A580A2943FE017
:104BE000A3228091D6038770A1F0CD2CDD2091F017
:104BF0008F2D807F803421F080E28E0D883048F048
:104C000082E00E94571A8091D6038770CC24C39407
:104C10008111C12C3F2C32942FE03222FBE0F3159E
:104C200008F418CDE32DF0E0EE55FA4C0C9437342F
:104C300094ECE9169CE5F90609F472CC4BE457E1D3
:104C400064E577E1E5ECEE16ECE5FE0609F465CCEB
:104C50009ACFF9ECEF16FCE5FF0609F470CC88F466
:104C600037ECE3163CE5F30609F464CC4FE357E177
:104C700063E377E198ECE9169CE5F90609F44DCC7D
:104C800082CFEAECEE16ECE5FE0609F45DCC4DE5CC
:104C900057E16EE677E1FBECEF16FCE5FF0609F461
:104CA0003CCC71CF21EDE2162CE5F20609F461CC83
:104CB000B8F48EECE8168CE5F80609F452CC08F44A
:104CC0004DCCEFECEE16ECE5FE0609F44FCC6EE0B1
:104CD00089E0F0EDEF16FCE5FF0609F444CC53CF74
:104CE00024EDE2162CE5F20609F449CC78F482EDC5
:104CF000E8168CE5F80609F43FCC61E088E193ED15
:104D0000E9169CE5F90609F401CC3DCFE5EDEE1678
:104D1000ECE5FE0609F436CC6AE285E2FDE5EF1625
:104D2000FF0609F420CC2FCF1F93CF93DF93809100
:104D30008503807FA9F480918203882389F0809184
:104D4000B703D09186036091800370918103A09195
:104D50008303B0918403C62FC72316E0D81304C081
:104D6000DF91CF911F91089590E0109711F0CF3F00
:104D700019F401968770F2CF189F9001199F300D9A
:104D80001124F901E957FC4F41814713F2CF4081CB
:104D90004613EFCF42814111ECCF438154814A1B2E
:104DA0005B0B483C510528F7809185038F7080612B
:104DB00080938503F901E457FC4F80818F708061F7
:104DC000808380E893E00E94EE1EDF91CF911F91D7
:104DD0000C940408AF92BF92CF92DF92EF92FF92B1
:104DE0000F931F93CF93DF93CDB7DEB761970FB6C5
:104DF000F894DEBF0FBECDBF8C0185E0F801DE0167
:104E00001D9601900D928A95E1F7F80180819181BC
:104E1000E28020E8A22E23E0B22E609183037091FD
:104E200084036115710509F43EC1309180034091FE
:104E30008103232F24232F3F09F435C1C380D4805D
:104E4000F0908203F601E61BF70BFF2009F4FBC08C
:104E500020918503522F507FE83CF10508F0BBC03C
:104E6000511178C0FE2C491321C038131FC0E11026
:104E70001DC02F70206120938503C5010E94EE1E86
:104E800080918503F80185838F2D61960FB6F89484
:104E9000DEBF0FBECDBFDF91CF911F910F91FF906D
:104EA000EF90DF90CF90BF90AF900895CD2829F07C
:104EB000282F29232F3F09F014C120E0F22FF17091
:104EC000DF2E20FF3DC02091B7034091860356E0BE
:104ED000241315C08D879E878D859E850E94831122
:104EE000292F22952F702230F8F0243020F59F7062
:104EF000F9F0F8019581907FD9F4D12C1FC030E0F2
:104F0000529FF001539FF00D1124E957FC4F61812E
:104F1000961306C06081861303C06281E61210C03A
:104F20002F5F3F4F2770D4CF9F7011F0882329F354
:104F3000805E883010F3C8010E94EE1EFD2CA4CFC5
:104F4000EE2009F4A1CF80918503816080938503D1
:104F5000F12C9ACF491312C0381310C0E1100EC0C3
:104F6000F8012583C8010E94EE1E86E0F801A0E842
:104F7000B3E001900D928A95E1F786CF8D879E87E9
:104F80008D859E850E948D11882309F1EE20F9F010
:104F900080918503803270F02091800330918103ED
:104FA00038872F831986DB86CA868C87CE010796C1
:104FB0000E94EE1E86E0F801A0E8B3E001900D9299
:104FC0008A95E1F70E949426FF24F3945DCFC801EF
:104FD0000E94EE1EF9CF51110AC080E893E00E94B2
:104FE000EE1E86E0F50111928A95E9F7B1CF4913DB
:104FF0000FC038130DC0E1100BC0F8012583C801A4
:105000000E94EE1E86E0F50111928A95E9F73CCFE9
:105010008D879E878D859E850E948D118823B9F28C
:10502000EE20A9F280918503803220F22091800346
:10503000309181033A8329831B82DD82CC828E8367
:10504000CE010196B5CFE83CF105E0F6FE2CEE204E
:1050500009F4BDCF491316C0381314C080918503DD
:1050600080FD83CF982F907F09F47FCFF80185834F
:10507000903F09F477CF982F907F905F8F70892BA6
:10508000858370CF8D879E878D859E850E948D112B
:10509000811190CF80918503816080938503C80141
:1050A0000E94EE1EF1CEEE2009F491CF8D879E87EF
:1050B0008D859E850E948D11F82E882309F487CF57
:1050C00086E0F801A0E8B3E001900D928A95E1F73F
:1050D00080918003909181030E9483110E94942605
:1050E000D3CE21E02E25EACE1F93CF93DF93CDB709
:1050F000DEB767970FB6F894DEBF0FBECDBF342F73
:105100004B8B252F5C8B6D8B7E8B8F8B8E899F8934
:1051100061111092D8031A8A198A3D872E876F87EA
:10512000998B888B86E0FE013D96DE0117960190F3
:105130000D928A95E1F7CE0107960E94EA26882310
:1051400089F016E08091B70390918603891349C0D6
:1051500067960FB6F894DEBF0FBECDBFDF91CF913B
:105160001F91089586E0FE013796DE0111960190A9
:105170000D928A95E1F78A859B85892B11F38F81A2
:10518000988589238F3FE9F22091860330E0C90199
:105190000196877099274091B7034817190671F453
:1051A0000E949E1A109286031092B70386E0E0E8F0
:1051B000F3E0DF011D928A95E9F7C3CF96E0929F55
:1051C000D001939FB00D1124A957BC4FFE01319619
:1051D00001900D929A95E1F7809386030E9404084E
:1051E000B0CF819FC001112489579C4F0E94EA26AD
:1051F000882309F4ADCF8091B70390E001968770C2
:1052000099278093B7039ECF6F927F929F92AF9220
:10521000BF92CF92DF92EF92FF920F931F93CF93A3
:10522000DF9396E4E92E92E0F92E10E000E0C0E072
:10523000CC24C394D12C39EEA32E33E0B32ED70166
:105240008D917D01F894E82FE295EF70F0E021A1B7
:105250008F70A60102C0440F551F8A95E2F7CA015C
:10526000922F982B91A392A18095892382A3789461
:1052700000C0A601002E02C0440F551F0A94E2F799
:10528000BA0160957095E1EEF3E082E5682E82E068
:10529000782ED0E021913191D3019D903D01892D4F
:1052A00082958F7090E0DC0190968C9190E0B92D02
:1052B000BF7002C095958795BA95E2F780FD55C0FD
:1052C000C901842B952B2817390739F09F012250EB
:1052D0003109D9018D939C93D1E0AE16BF06D1F66A
:1052E000F701319780810E94850EB0EABA95F1F7F7
:1052F000CD2B0F5F1F4F0C30110509F0A0CFCC2331
:10530000C1F181E0809346030E945B1990934503AD
:105310008093440380914403909145030E94F706D3
:10532000069758F18091E1039091E20390933F0436
:1053300080933E048091E3039091E40390934104B1
:10534000809340048091E5039091E6039093430499
:10535000809342048091E7039091E8039093450481
:10536000809344041092460308C0C9018623972302
:10537000AACF809146038111CDCF8C2FDF91CF91A1
:105380001F910F91FF90EF90DF90CF90BF90AF9063
:105390009F907F906F900895CDB7DEB7AA970FB614
:1053A000F894DEBF0FBECDBF84B7877F84BF0FB632
:1053B000F894A895809160008861809360001092B5
:1053C00060000FBE80E890E00FB6F8948093610013
:1053D000909361000FBE85B7806885BF85B78068F0
:1053E00085BF82EF96E090932303809322030E946F
:1053F0009E030E9469048091E20084608093E20031
:10540000789480916F048823A1F01091E9001F70B7
:105410009091EC00892F817090FD80E8182B1092FC
:10542000E9008091E80083FD0E94B31A1F70109379
:10543000E90082E084BD93E095BD9AEF97BD80932B
:105440006E0006E412E022E5E22E22E0F22ED80100
:105450008D918D010E94850EE016F106C1F787E956
:105460000E94850E87EF0E94850E86EF0E94850EB2
:1054700085EF0E94850E1092E2031092E1031092D4
:105480003F0410923E041092E4031092E303109242
:105490004104109240041092E6031092E50310922A
:1054A0004304109242041092E8031092E703109212
:1054B00045041092440490E080E00E94E3348A3E68
:1054C0009E4F11F00E94091682E090E00E94D534B0
:1054D00080932E040E94760F9093E0038093DF0365
:1054E0000E940429EFE3FCE93197F1F700C00000C6
:1054F0000E94042980913E0480FF17C06FEF83E271
:1055000090E00E94F9346FEF84E290E00E94F93459
:105510006FEF85E290E00E94F9346FEF7FEF90E04B
:1055200080E00E9417350E94CB1283E090E00E9439
:10553000D534682F70E090E080E00E94941A0E94B9
:105540008F17109241068FEF9FEF90935B06809329
:105550005A0690935D0680935C0690935F06809355
:105560005E06909361068093600690936306809335
:105570006206909365068093640690936706809315
:10558000660690936906809368061092F3039093E1
:105590000D0480930C0490930F0480930E04909359
:1055A0001104809310049093130480931204909339
:1055B0001504809314049093170480931604909319
:1055C00019048093180490931B0480931A0490E0AC
:1055D00080E00E94E3348A3E9E4F21F00E9409162B
:1055E0000E944D1846E050E06CE170E085E796E0DF
:1055F0000E94C534809175068C7F11F40E944D186D
:1056000083E290E00E94D534823211F00C94E932AA
:1056100084E290E00E94D534833011F00C94E9329A
:1056200085E290E00E94D534883011F00C94E93284
:105630008091E903811136C090E080E00E94E3345C
:105640008A3E9E4F21F00E9409160E947F1788E033
:1056500090E00E94DD346093390470933A048093A3
:105660003B0490933C046E7F71F40E947F1788E0A6
:1056700090E00E94DD346093390470933A04809383
:105680003B0490933C040E94E109109238048091FD
:10569000390480FF04C060E086950E94671981E0AC
:1056A0008093E90385E191E09093EB038093EA0313
:1056B00090E4392EDD24D39480916F0400E112E14F
:1056C000853009F4E1C00E940429882359F08FB77E
:1056D000F8944091460450914704609148047091B9
:1056E00049048FBFAEE3B4E0EFE2F4E010E000E085
:1056F000602FED90FD90219131912E153F0509F419
:105700008BC22E253F25C12CAA24A394B12CA9011C
:105710004A215B21452B09F479C2C9A26AA3EA2078
:10572000FB2081E0E114F10409F480E08BA30E94E6
:105730005B198160782F9DA38CA349A15AA16BA10D
:105740008DA10E947428F801EE0FFF1FE15DFB4F51
:1057500080819181A826B926B182A082EF2871F0BC
:105760008CE0809FF001819FF00D1124EB59FD4FDB
:10577000EC0DF11D80818F3F09F092C0C12CB090DB
:10578000F3030C2D10E0C8018B0D911D099764F1F6
:1057900088E090E07C01E01AF10AB8016C507C4F7F
:1057A000A70184EF93E00E94BC34B80164507C4FA1
:1057B000A7018CEF93E00E94BC34A701440F551F52
:1057C000B801660F771F645F7B4F8CE094E00E9406
:1057D000BC34B8016C5F7B4FA70184E094E00E9469
:1057E000BC34BA94B092F3038091F30390E0A22DFD
:1057F000B0E09D01220F331F2B563D4FAA0FBB1F58
:10580000BD016A567D4F64C080916F04843059F1A8
:1058100040E060E080E00E94A60831E03093200480
:105820001092EC0388E190E00FB6F894A89580936D
:1058300060000FBE3092600083B7817F846083BFB9
:1058400083B7816083BF7894889583B78E7F83BF49
:105850000FB6F894A89580916000886180936000ED
:10586000109260000FBE80916E04882369F00E9440
:105870000429EEE3F4E081919191892B09F093C61C
:1058800094E0E634F907B9F780916F04853009F4A4
:10589000BBCF0E949E1A0E944F081092200413CF83
:1058A000282ECC24C3946BCF90E0FC01ED50FC4F2C
:1058B000D9015C915183DB015C915187218A880F6A
:1058C000991FFC01ED50FC4F128E118E91E0842F38
:1058D00041E0480F9C1540F38093F3038091380416
:1058E0008823D1F180913704E0913904E695E81BD3
:1058F000E093EF03823009F0A6C1F0E0E65FF94FD4
:10590000E4910E2F10E026E3E22E25E1F22E8091A5
:10591000F003882361F01092F0030E945B199093CA
:10592000EE038093ED031092F2031092F1030E94B4
:105930005B19E091ED03F091EE038E1B9F0B8F3FFF
:105940009F4750F4E00FF11FF093EE03E093ED0357
:105950008DEE93E0F701099580911C0490911D0450
:10596000A0911E04B0911F042FB7F89480904604B4
:1059700090904704A0904804B09049042FBF85013F
:105980007401E81AF90A0A0B1B0B2FB7F894409020
:1059900046045090470460904804709049042FBF1B
:1059A00040921C0450921D0460921E0470921F04C9
:1059B0006091F303E3EFF3E0462F50E00197AF4F20
:1059C000BF4F88199909AA09BB096513A8C140935B
:1059D000F30380912004F12C811109C08091750698
:1059E000F82FF370FF2E19F0F82EF694F6948091AC
:1059F0001401813009F4BCC1882309F4A3C18230A9
:105A000009F4D4C3833009F4DBC386E0E7E2F4E0B1
:105A1000DE01119601900D928A95E1F7F09029042C
:105A2000E0902A0410912B0400912C041092290478
:105A300010922A0410922B0410922C048F2D8E2980
:105A400009F448C080912504909126040E94F7062D
:105A50009C0190912404992309F4E3C52333310573
:105A6000C8F19F3F19F09F5F90932404FF2059F0E5
:105A70000E940B0E9FEF1F140CF491E0899F802D64
:105A8000112480932904EE2059F00E940B0E9FEF01
:105A90001E140CF491E0899F802D112480932A0418
:105AA000309129043323B1F020912A04222391F06C
:105AB00045EB3403C0011124992309F4A0C390934A
:105AC000290445EB240390011124332309F49AC3DC
:105AD00030932A04812F802B09F448C0809122043E
