:100000000C943F030C9477030C9477030C947703C0
:100010000C9477030C9477030C9477030C94770378
:100020000C9477030C9477030C9424250C940826E5
:100030000C9477030C9477030C9477030C94770358
:100040000C9477030C94AA120C9477030C94770306
:100050000C9477030C9400250C9477030C9477038D
:100060000C9477030C9477030C9477030C94770328
:100070000C9477030C9477030C9477030C94770318
:100080000C9477030C9477030C9477030C94770308
:100090000C9477030C9477030C9477030C947703F8
:1000A0000C9477030C9477030C9477030501098073
:1000B000A101850319012AB700150126B700950192
:1000C00075108100C0050C0901A101850419012AE0
:1000D000A002150126A002950175108100C00660DE
:1000E000FF0961A1010962150026FF00952075082E
:1000F00081020963150026FF00952075089102C052
:1001000005010906A101050719E029E715002501E8
:10011000950875018102950175088101050719008F
:1001200029FF150026FF00950675088100050819AE
:1001300001290515002501950575019102950175A7
:10014000039101C009025B00030100A0FA09040049
:1001500000010301010009211101000122440007EF
:1001600005810308000109040100020300000009E1
:10017000211101000122220007058203200001074E
:100180000503032000010904020001030000000927
:100190002111010001223200070584032000011211
:1001A00001000200000008504B3034020001020040
:1001B00001220342004D0034003000200048006F4F
:1001C0000074007300770061007000200052004747
:1001D000004200000016034B005000520065007002
:1001E00000750062006C00690063000000040309F0
:1001F00004290014001A000800150017001C00183C
:10020000000C00120013002A002B00040016000747
:100210000009000A000B000D000E000F003300283B
:1002200000E1001D001B0006001900050011001070
:10023000003600370038004C00E000E300645263F1
:100240005228242C42000021525200510050004FED
:10025000003400260227022F0030000000000000BA
:100260000000000000000035000000000000000059
:10027000000000000000000000000000000000007E
:1002800000E100000000000000000000000000325B
:100290000264024A004D000000000000000000005F
:1002A000000000000000000000AB00AA00A900AEA2
:1002B0000000001E001F0020002100220023002457
:1002C000002500260027002A00437E3B003D003E1B
:1002D000000000000000002D002E00000000003192
:1002E00000E1003F00450000000000000000003277
:1002F0000064004B004E0000000000000000000001
:1003000000000000000000000000000000000000ED
:100310000000005F006000610000000000000000BD
:1003200000007C000000002A0000005C005D005E10
:1003300000000000000000000000000000000000BD
:1003400000000059005A005B00000000000000009F
:10035000000000000000004C00000000006200638C
:10036000520000000000000000000000000000003B
:1003700000440045000000000000000000000000F4
:100380000000000000000000003F0040004100426B
:10039000004300000000000000000000000000001A
:1003A000003A003B003C003D003E00000000000021
:1003B0000000000000000000000000000064520087
:1003C000000000000000000000000000000000002D
:1003D0000000000000000000000000000102040610
:1003E0000A0F17202C3A4A5D71879DB3C7DAE9F5E9
:1003F000FCFFFCF5E9DAC7B39D87715D4A3A2C2012
:10040000170F0A06040201000000000000000000AF
:10041000000010002000110121001202220013032D
:1004200023001404240015052500160626001707CE
:10043000270018082800190929001A0A2A001B0B8E
:100440002B004030500041315100423252004333C2
:10045000530044345400453555004636560047375E
:10046000570048385800493959004A3A5A004B3B1E
:100470005B00706080007161810072628200736352
:1004800083007464840075658500766686007767EE
:10049000870078688800796989007A6A8A007B6BAE
:1004A0008B00A090B000A191B100A292B200A393E2
:1004B000B300A494B400A595B500A797B700A89879
:1004C000B800A999B900AA9ABA00AB9BBB00010178
:1004D0000101010101010102020202020202020203
:1004E00003030303030303030404040404040405D3
:1004F0000505050506060606060707070707080897
:100500000808090909090A0A0A0B0B0B0C0C0C0D47
:100510000D0D0E0E0E0F0F0F1010111111121213E0
:10052000131414151516161717181819191A1A1B5B
:100530001B1C1D1D1E1E1F202021222223242425BA
:100540002626272829292A2B2C2D2D2E2F303132F3
:1005500032333435363738393A3B3C3D3E3F404103
:1005600042434445464748494A4C4D4E4F505153EB
:1005700054555658595A5B5D5E5F616264656668A2
:10058000696B6C6D6F7072737577787A7B7D7E8026
:1005900082838587888A8C8E8F91939596989A9C72
:1005A0009EA0A2A3A5A7A9ABADAFB1B3B5B7BABC86
:1005B000BEC0C2C4C6C9CBCDCFD1D4D6D8DBDDDF57
:1005C000E2E4E7E9EBEEF0F3F5F8FAFDFF000000F6
:1005D000000000000000000000000000000000001B
:1005E000000000000000000000000000000000000B
:1005F000007E0F00D4FFFFFFC7000000780000005E
:1006000000000000002A2B2800000000000000006D
:10061000000000000000000029000000002C1E3433
:1006200020212224342627252E362D3738271E1F39
:10063000202122232425263333362E37381F040564
:10064000060708090A0B0C0D0E0F101112131415D2
:10065000161718191A1B1C1D2F3130232D350405B0
:10066000060708090A0B0C0D0E0F101112131415B2
:10067000161718191A1B1C1D2F3130354C00112468
:100680001FBECFEFDAE0DEBFCDBF04B603FE18C059
:100690008091BF049091C004A091C104B091C204A4
:1006A0008730904BA740B04B59F41092BF04109282
:1006B000C0041092C1041092C204E0E0F8E309956E
:1006C00012E0A0E0B1E0EAECF0E502C005900D9286
:1006D000A033B107D9F724E0A0E3B2E001C01D9236
:1006E000AF3BB207E1F70E94CF1B0C94FF270C949D
:1006F0000000982F82958F70882311F0982F84E046
:10070000292F26952695222311F08E5F922F9695FC
:1007100091118F5F089580937804089580937904F0
:10072000089521E030E001C0220F8A95EAF7809118
:100730007904822B0E948E03089521E030E0A90104
:1007400002C0440F551F8A95E2F7CA018095909127
:10075000790489230E948E030895292F943098F5F7
:100760008C3088F590E03CE0239F800D911D112492
:10077000282F277041E001C0440F2A95EAF723E0B3
:10078000969587952A95E1F7FC01EE0FFF1FE80F7C
:10079000F91FE75AFB4F20E030E070E05191DF0194
:1007A0001197CB01022E02C0969587950A94E2F725
:1007B000817081958527842385278C932F5F3F4FF8
:1007C0002330310559F70895292F943078F58C306E
:1007D00068F590E03CE0239F800D911D1124682F67
:1007E000677023E0969587952A95E1F7FC01EE0F57
:1007F000FF1FE80FF91FE75AFB4F40E050E080E091
:10080000219130E0062E02C0369527950A94E2F732
:1008100021703327042E01C0220F0A94EAF7822B9D
:100820004F5F5F4F4330510559F7089580E00895B9
:100830009091790421E030E0F90101C0EE0F8A9532
:10084000EAF7D90102C0AA0FBB1F6A95E2F7EA2BAB
:1008500001C0220F4A95EAF7892F8E23E81305C0BD
:10086000892F822B0E948E0308952095822F892341
:10087000F9CF80917F0490917E04981301C0089570
:100880008F5F8770FACF90917A0480958923809347
:100890007A04282F277021110DC0891759F09091E3
:1008A0007C0492FF07C08695869586950E949D03DD
:1008B00010927A040895982F909580917504892359
:1008C000809375040895803E9105D1F1C8F4813379
:1008D000910509F47FC048F48932910509F46FC08D
:1008E0008A32910509F47DC0089589339105E1F0BC
:1008F00082389105C9F08533910509F45BC00895EC
:10090000843E9105D1F148F4823E910531F1833E58
:10091000910541F181EE90E00895863E9105C1F187
:10092000873E9105E1F1089520917B042370211108
:1009300065C020917C0423FF14C089E290E00895F3
:1009400020917B0420FD43C030917C0430FF09C01E
:1009500024FF4EC080E090E0089520917B0422FDAA
:10096000F7CF089520917B0422FD45C030917C048F
:1009700030FD44C024FFF5CFEDCF20917C0421FF52
:10098000F0CF80917B0484FDE5CF87EE90E0089561
:1009900020917B0423FFE5CF24FDDCCFF6CF20910F
:1009A0007B0423FD2EC030917C0431FFE3CF84EE25
:1009B00090E0089520917B0425FFD3CFBECF2091F6
:1009C0007B0425FD21C020917C0423FFCACF89E34D
:1009D00090E0089520917B0426FFC3CF8AE290E047
:1009E000089520917B0426FFBCCF81E390E0089519
:1009F00083EE90E0089582EE90E0089580EE90E01E
:100A0000089586EE90E0089585E390E0AACF909156
:100A10007B0492FF10C041E0282F2471243009F09C
:100A200040E031E0282F2871283009F030E04317EA
:100A300011F02CE0822793FF10C041E0282F247191
:100A4000243109F040E031E0282F2871283109F0E5
:100A500030E0431711F02CE0822730917C0430FF06
:100A600010C051E0282F2171213009F050E041E001
:100A7000282F2871283009F040E0541711F029E0A0
:100A8000822731FF10C041E0282F2171213109F068
:100A900040E031E0282F2871283109F030E0431779
:100AA00011F029E0822794FD877E08951F93CF934C
:100AB000DF930E946304EC01811522E5920708F0A0
:100AC00053C0811540E5940708F0DDC0803E9105D4
:100AD000F8F48D3C910508F0AEC0883A910580F499
:100AE000853A910508F099C08130910521F004976D
:100AF000813A910550F4CE01DF91CF911F91089575
:100B0000885A91094B9708F48BC0C0E0D0E0F3CF2E
:100B1000811550E49507F8F4C11580E2D80708F074
:100B2000CBC0C83ED10538F3CE019A9581159F41BF
:100B300060F78D2F0E940705182FCE0199270E947C
:100B40006304212F30E0322F2227E901CC27DF7107
:100B5000C82BD92BD0CF99270E946304CC27DF70F4
:100B6000C82BD92BD06AC7CF803842E59407C8F587
:100B7000803652E5950708F067C0C03482E5D80793
:100B8000B0F08C2F86958695877020E2829FC001F9
:100B90001124C37021E030E0A90102C0440F551FA9
:100BA000CA95E2F7EA01C82BD92BDC68A4CFC03282
:100BB00052E5D50708F041C08C2F8695869520E236
:100BC000829FC0011124C37021E030E0A90102C05E
:100BD000440F551FCA95E2F7EA01C82BD92BDD68EF
:100BE0008ACF803C52E5950760F48F71C03AD245B8
:100BF00008F03FC090E0982F8827EC01C46FD06ABE
:100C00007ACF805C9245809708F07FCFDC2FCC278D
:100C1000CC27DF71C06FD06A6ECFA497D0646BCF42
:100C2000C85AD0E0CC0FDD1FC650DE4F0990D881E6
:100C3000C02DD46460CFD0655ECFCF71D0E0DC2F03
:100C4000CC27C16FD06A57CF86958695877020E2F2
:100C5000829FC0011124C37021E030E0A90102C0CD
:100C6000440F551FCA95E2F7EA01C82BD92BDA6861
:100C700042CF0E940705C82FD0E0DC2FCC27CC271D
:100C8000DF71D06238CF8F710E94070565E0D6957D
:100C9000C7956A95E1F7CF70D0E0DC2FCC27282FDD
:100CA00030E084FF05C054E0220F331F5A95E1F76E
:100CB000C22BD32BD0691FCF8D2F8F710E940705B8
:100CC000182FCE0199270E946304212F30E0322F84
:100CD000222722273F71282B392BE901D2CF80E030
:100CE0000895F894E82FE295EF70F0E041A18F703D
:100CF00021E030E0B90102C0660F771F8A95E2F764
:100D0000CB01962F9095942391A392A1892B82A336
:100D100078940895E42FF0E0EE0FFF1FE359FE4FA3
:100D20009081921B97FD9195292F38E1239F212DCA
:100D30001124620F0895A0E0B0E0E1EAF6E00C941F
:100D40003927E82FF0E0E353FB4F711109C0E4911C
:100D50008E2F7E2F6E2FCDB7DEB7EAE00C9455278D
:100D6000262F30E0C72FD0E0F491EF2F86E0829F4E
:100D70008001839F100D1124EE24EA94F12CC80108
:100D8000B7010E941D27AB01220F331F65E5649F49
:100D9000C001659F900D1124281B390B822F880FED
:100DA000280FC7018C1B9D0BF89FD001F99FB00D38
:100DB00011248B2F2C9FB0012D9F700D1124672FB4
:100DC00077275701A61AB70AFA9D6001FB9DD00C40
:100DD00011247D2D5701A21AB10895012C9F5001B5
:100DE0002D9FB00C3C9FB00C1124AB2CBB24EA18F7
:100DF000FB08FE9DE001FF9DD00D112443305105FD
:100E0000C1F00C3F93E0190750F44130510509F44B
:100E1000A1CF4230510589F07E2FED2F9BCF44307A
:100E2000510571F046305105B9F3EB2F8D2D7F2F11
:100E300091CFED2D7B2F8F2F8DCF7B2F8D2F8ACFB5
:100E40007D2FEB2FF8CF9C0180E090E0269F812D35
:100E5000369F800D911D11240895409101015091FC
:100E6000020125E038E0429FC001439F900D529F50
:100E7000900D1124875E994C90930201809301019B
:100E8000890F0895982FE82F96FDE0958E2F8F708B
:100E900096FD8F5FE695E695E695E670F0E0EB5DF2
:100EA000FE4F2181289F202D812D112422952F7006
:100EB0008295807F282B8081820F97FD81958058B5
:100EC00008950F931F93CF93DF93D62F072F182FDB
:100ED000C42F822F0E944207982FEC2FF0E0EE0FD4
:100EE000FF1FE359FE4F80818058980F97FD919521
:100EF000990F292F3CE0239F212D1124622F6D0F84
:100F0000702F812FDF91CF911F910F910895A4E051
:100F1000B0E0EDE8F7E00C9441272091710430E156
:100F2000230F08F42FEF60E1822F90E00E94230747
:100F3000BC0188EB9BE00E941D27CB01A0E0B0E044
:100F4000BC01CD012496E2E00C945D279091390418
:100F5000982B9093390408950E943B1108950E94A4
:100F6000921108959AE0899F802D1124980F903353
:100F700008F09FE20895982F862F20916D0423702A
:100F8000222389F0992381F0993080F49F73990F7F
:100F9000990F20916D042370922B90936D04109201
:100FA00012010E94A607089591E0F1CF98E0EFCFDB
:100FB00080916D04869586958F5F893008F081E079
:100FC00061E00E94BB07089590916D0496959695F7
:100FD0008FEF890F913009F488E061E00E94BB0730
:100FE0000895982F822F20916D042370222359F0A9
:100FF00090936E0460936F04473908F046E940937C
:1010000070040E94A6070895EDE6F4E0818190E067
:1010100021E04381628108960E94F1070895EDE680
:10102000F4E0818121E0438162818850990B0E9424
:10103000F1070895EDE6F4E0628128E0620F08F41C
:101040006FEF818121E0438190E00E94F1070895D4
:10105000EDE6F4E0628128E0621B08F460E0818143
:1010600021E0438190E00E94F1070895EDE6F4E06D
:10107000438128E0420F08F44FEF818121E0628133
:1010800090E00E94F1070895EDE6F4E0438128E046
:10109000421B08F440E0818121E0628190E00E94DF
:1010A000F1070895EDE6F4E024813AE0230F08F417
:1010B0002FEF248381E00E94A6070895EDE6F4E077
:1010C00024813AE0231B08F420E0248381E00E947D
:1010D000A6070895FA01882311F009950895FB01E8
:1010E000FCCFE0914F04F0915004309729F001902B
:1010F000F081E02D0995089580E00895A3E0B0E027
:10110000E4E8F8E00C9441279C018091560290910C
:10111000570282179307A1F030935702209356028B
:10112000E0914F04F0915004309751F083E08983AF
:101130003B832A830084F185E02DCE010196099539
:101140002396E2E00C945D27A3E0B0E0EAEAF8E041
:101150000C9441279C018091540290915502821772
:101160009307A1F03093550220935402E0914F046D
:10117000F0915004309751F084E089833B832A83B7
:101180000084F185E02DCE01019609952396E2E0D9
:101190000C945D279C01FC0132968FEF90E0419109
:1011A000461751F08F3F19F4411101C0892F9F5FFD
:1011B0009630A9F78F3F09F40895280F311D87FD58
:1011C0003A95F901628308959C01FC013296285FEB
:1011D0003F4F8191861303C0DF0111971C92E217E4
:1011E000F307B9F70895A4E0B0E0E9EFF8E00C9454
:1011F00041278FB7F89420913A0430913B044091F5
:101200003C0450913D0429833A834B835C838FBF18
:1012100069817A818B819C812496E2E00C945D2720
:1012200080915302089508950895FC019B018091D7
:10123000490290914A028617970740F0672B29F4DC
:101240008091E8008E778093E800C90140E0009724
:1012500041F4411106C08091E80082FF2FC080E078
:10126000089520914C042223A9F12530A9F1209161
:10127000E80023FD2DC02091E80022FDECCF209155
:10128000E80020FFE4CF3091F3002091F2000097B6
:1012900019F02830310558F041E02830310509F0C7
:1012A00040E02091E8002E772093E800D0CF4191D4
:1012B0004093F10001972F5F3F4FE9CF80914C049D
:1012C000882341F0853041F08091E80083FFC3CF4F
:1012D00081E0089582E0089583E0089580914302BB
:1012E00087FF13C08091E80082FF06C08091E8006C
:1012F0008B778093E80004C080914C048111F2CF79
:10130000089580914C048823D9F38091E80080FFF0
:10131000F8CF8091E8008E77ECCF2091E4003091F7
:10132000E50095E6A9018091EC008170882331F0F9
:101330008091E80080FF06C080E008952091E800D9
:1013400022FD1BC080914C04882391F0853091F0E0
:101350008091EB0085FD10C02091E4003091E50004
:101360004217530701F391509111DCCF84E00895A7
:1013700082E0089583E0089581E00895E8EDF0E0CB
:1013800080818E7F80831092E2001092DA001092AA
:10139000E100A0EEB0E08C9181608C9380818F772A
:1013A000808319BCA7EDB0E08C918E7F8C938081F7
:1013B0008F7E8083109242020895EF92FF920F93E6
:1013C0001F93CF93DF937C0180910F010E94B2079E
:1013D000C82F192F609171046695669521E0620F00
:1013E00008F46FEF80913E0490913F040E94230720
:1013F000082FD0E0C11748F081E01F3208F080E0EC
:10140000CDB7DEB7E6E00C945927FE01E553FE4F59
:101410008081909110018923882391F060916E045E
:1014200070916F0480917004202F4C2FF701099563
:101430000E949B06462F672F282FCE010E94AC07E3
:101440002196D8CF982FE42FE2709093E90089136A
:1014500008C0762F242F50E0E11111C091E0980FC1
:10146000F4CF7091EC002091ED005091F00021FD3F
:1014700006C09F5F973049F78093E9000895309147
:10148000EB003E7F3093EB003091ED003D7F3093D9
:10149000ED003091EB0031603093EB007093EC0085
:1014A0002093ED005093F0002091EE0027FDE1CF56
:1014B0000895A0E0B0E0EFE5FAE00C943B27C8ED1A
:1014C000D0E088818F7E8883E7EDF0E080818160C5
:1014D000808384E082BF81E08093420288818E7F96
:1014E000888302EE10E0F80110821092DA0081EE9B
:1014F000C82ED12CF601108288818F77888388814D
:101500008068888388818F7D888319BC10924C0401
:1015100010924102109251031092400290EEE92E77
:10152000F12CF70180818B7F8083888181608883A3
:1015300042E060E080E00E94220AF60180818E7F16
:101540008083F801808181608083808188608083CE
:10155000F70180818E7F8083888180618883CDB709
:10156000DEB7E8E00C945727E0917F0490917E0469
:1015700027E0E91302C080E00895AE2FB0E02E9F6F
:10158000F0011124E058FB4F3181361306C0308141
:10159000381303C03581341304C0FD013196E77060
:1015A000E8CF81E0089581E08093E00080E28093BD
:1015B000D8001092C9008FE19EE40197F1F700C0B6
:1015C000000087E090EBDC018093BF049093C0049F
:1015D000A093C104B093C20488E19CE00FB6F894D4
:1015E000A895809360000FBE90936000FFCF0F938B
:1015F0001F93CF93DF93EB018A0190914C049430B9
:1016000079F58093E9008FEF9091E80095FD07C090
:1016100095ED9A95F1F7000081508111F5CF8091F9
:10162000E80085FF1DC00E948D09811114C08091C2
:10163000E80085FD06C08091E8008E778093E80081
:10164000F2CF88818093F100015011090115110535
:1016500011F02196ECCF8091E8008E778093E8001E
:10166000DF91CF911F910F910895CF93DF93D82FE2
:10167000C92F48E050E0682F792F81E00E94F70AD7
:1016800088E0ED2FFC2FABE4B2E001900D928A953B
:10169000E1F7DF91CF910895BC0143E050E084E091
:1016A0000E94F70A089590917C0492FB222720F96A
:1016B000281779F080FB92F990937C0460917B0469
:1016C00070917C0484E090E00E94F92782E00E94FF
:1016D000430408951F93CF93DF93962F122F632F08
:1016E0008530D8F49430C8F44C30B8F4C42FD0E02E
:1016F000CC0FDD1F28E1929FC00DD11D112490E673
:10170000899FC00DD11D1124CE0189960E94DB272F
:10171000612FCE018A960E94DB27DF91CF911F9126
:101720000895AF92BF92CF92DF92FF920F931F93D3
:10173000CF93DF93A12CB12C00E0650110E013C022
:10174000FE01259134914F2D612F802F0E946A0B4D
:101750002296F3948CE0F812F3CF8CE0C80ED11CE3
:101760001F5F143039F0E601CC0FDD1FCF50DE4F84
:10177000F12CE6CF0F5F80E3A80EB11C0530E9F62F
:10178000DF91CF911F910F91FF90DF90CF90BF908D
:10179000AF900895CF93DF93C9E0D2E060E0CE012F
:1017A0000E94DB272196C11584E0D807B9F7DF91A5
:1017B000CF910895882381F063E285E290E00E9452
:1017C000DB2762E186E290E00E94DB2764E287E2A9
:1017D00090E00E94DB2708956FEF85E290E00E9481
:1017E000DB276FEF86E290E00E94DB276FEFEFCF01
:1017F00080E00E94DA0B60E088E290E00E94DB2744
:101800000E94910B0E94CA0B81E00E94DA0B08959E
:101810000F931F93CF93DF93853030F5643020F51D
:101820004C3010F5C42FD0E0CC0FDD1F28E1629FB3
:10183000C00DD11D112430E6839FC00DD11D112490
:10184000CE0189960E94BD27082F10E0102F002797
:10185000CE018A960E94BD279801282BC901DF91ED
:10186000CF911F910F91089580E090E0F8CF462F1F
:10187000672F743038F44C3028F4853018F40E9407
:10188000080C089580E090E00895A0E0B0E0EBE45B
:10189000FCE00C943C277C01009179048091780451
:1018A000082BC4E0D0E010E0C8010C2E02C09595D2
:1018B00087950A94E2F780FD09C02197A8F7D12CFB
:1018C0008D2DCDB7DEB7E7E00C945827DC2EB7019D
:1018D0008C2F0E94370C0E945605019771F3F0CFB0
:1018E0000F931F93CF93FC01858100811181882381
:1018F00091F0662381F0C8010E94450CC82F682F23
:10190000C8010E94AD03B8018C2F0E94370CCF9103
:101910001F910F910895C8010E94E403C82FF3CFCF
:10192000CF93DF93D82FC92F0E94450C6D2F7C2FAA
:101930000E94370C0E945605DF91CF910895FC015B
:1019400084818823A1F0808191810E94900C282FAE
:1019500092959F70963091F060F4925F9F709230F4
:1019600030F481E0203F79F030F4283E30F080E020
:1019700004C09A5FF3CF243FD1F7089581E0283E59
:1019800018F0213FF9CF0895089585E290E00E9474
:10199000BD27833289F486E290E00E94BD27823120
:1019A00059F487E290E00E94BD2791E0843209F06B
:1019B00090E0892F8170089580E0FCCF80917504BC
:1019C00090917D04892B40917604442389F090E026
:1019D00024E332E0F90150812F5F3F4F51119F5FA7
:1019E00052E02A333507B1F7911110927604842B17
:1019F0008093320248E050E061E574E082E392E0D7
:101A00000E947E27892BA9F088E0E2E3F2E0A1E5BD
:101A1000B4E001900D928A95E1F7E0914F04F091C6
:101A20005004309731F00280F381E02D82E392E0A0
:101A30000995089510927504E4E3F2E086E0DF0171
:101A40001D928A95E9F780E090E00E947E0880E090
:101A500090E00E94A40810927D040E94DE0C08957C
:101A60000E941A0D2FEF84E39CE0215080409040AB
:101A7000E1F700C0000088E19CE00FB6F894A8955B
:101A8000809360000FBE90936000FFCFAAE2B0E0A9
:101A9000ECE4FDE00C94402783E492E0FC01019625
:101AA0002091F100208322E08B349207B9F78091D6
:101AB0004402893009F456C0C8F4823009F4B3C036
:101AC000833009F482C0813071F18091E80083FF96
:101AD000E7C080914302909144029A3008F0E0C040
:101AE000E92FF0E0EF5FF74D0C9468278A3009F496
:101AF00089C08B3051F780914302813231F7809158
:101B0000470290914802892B01F78091E800877F76
:101B10008093E8000E946E09809145028093000145
:101B20000E941A0DD2CF80914302813A71F68091C2
:101B3000E800877F8093E8008091470290914802F7
:101B4000892B61F060E080E090E070E00E94150970
:101B50008091E8008B778093E800B7CF68E08BE452
:101B600092E0F3CF80914302813209F0AECF8091B1
:101B70004702909148028D7F892B09F0A6CF809172
:101B8000E800877F8093E8008091E80082FF18C01A
:101B90009091F3008091F200029731F48091F1006E
:101BA000813011F0863021F48091F100809353024E
:101BB0008091E8008B778093E8000E946E0985CFC2
:101BC00080914C048111E0CF80CF80914302813A13
:101BD00009F07BCF8091470290914802892B09F050
:101BE00074CF8091E800877F8093E8008091E800BF
:101BF00080FFFCCF809100018093F1008091E8008C
:101C00008E77D9CF80914302813209F05ECF8091E7
:101C1000E800877F8093E8000E946E098091460269
:101C200080933F0252CF80914302813A09F04DCF19
:101C30008091E800877F8093E8008091E80080FF32
:101C4000FCCF80913F02D8CF803889F0823841F5AF
:101C5000809147028F70873018F58093E90080915A
:101C6000EB0085FB882780F91092E90006C080917F
:101C7000400290915103911182609091E800977F0A
:101C80009093E8008093F1001092F1008091E800B9
:101C90008E7723C0811116C080914502813011F1E9
:101CA0008091E80083FF0AC08091E800877F8093DD
:101CB000E8008091EB0080628093EB00AA96E3E05D
:101CC0000C945C27823061F780914502882389F06B
:101CD0001092E9008091E800877F8093E8000E94DD
:101CE0006E09DECF81E0933009F080E080935103EC
:101CF000EFCF809147028F702FEF280F263080F6AC
:101D00008093E9002091EB0020FFE2CF933031F483
:101D10008091EB0080628093EB00DACF9091EB0032
:101D200090619093EB0021E030E0A90102C0440FE4
:101D3000551F8A95E2F74093EA001092EA008091DD
:101D4000EB008860E8CF8111ABCF109145021F777F
:101D50008091E3008078812B8093E3008091E800FC
:101D6000877F8093E8000E946E098091E80080FFE1
:101D7000FCCF8091E30080688093E30083E0111141
:101D800001C082E080934C048BCF8058823008F0F1
:101D900087CF40914502509146024C3D83E0580761
:101DA00099F583E08A838AE289834FB7F894DE014C
:101DB000139620E03EE051E2E32FF0E0509357000D
:101DC000849120FF03C082958F703F5F8F708A30AF
:101DD000C8F0895C90E08D939D932F5F243161F76B
:101DE0004FBF8091E800877F8093E8006AE270E04F
:101DF000CE0101960E9415098091E8008B778093AF
:101E0000E8004ECF805DE6CF809147029091480276
:101E1000252F33272330310509F44AC078F52130C6
:101E2000310509F479C08BE590E0E4E4F1E022307B
:101E3000310509F035CF2091E800277F2093E80095
:101E40002091490230914A028217930708F49C01BD
:101E500040E02115310509F064C0411162C0809154
:101E6000E80082FDC9CF80914C04882329F2853097
:101E700019F28091E80083FFF2CFBECF2132310505
:101E800009F43BC02232310509F00ACF83309105B5
:101E900008F006CFFC01EE0FFF1FE75EFE4F01903A
:101EA000F081E02D8A5E9E4FDC018C9190E011C0A4
:101EB000CA019927413089F082309105B1F0892B10
:101EC00009F0EECEEDEEF1E0E4918E2F90E0EDEE34
:101ED000F1E0009709F4E4CEAECFE5EDF1E0E49156
:101EE0008E2F90E0E5EDF1E0F4CFE1EBF1E0E4914D
:101EF0008E2F90E0E1EBF1E0ECCF8330910508F01C
:101F0000CFCEFC01EE0FFF1FE15EFE4F0190F0818E
:101F1000E02D89E090E08FCF82E190E0EFE9F1E001
:101F20008ACF80914C04882309F466CF853009F468
:101F300063CF8091E80083FD5FCF8091E80082FD50
:101F40008ECF8091E80080FF84CF9091F300809144
:101F5000F2002115310519F08830910550F041E06B
:101F6000089709F040E08091E8008E778093E800C0
:101F700070CF44914093F100319621503109019680
:101F8000E8CF803809F08CCE8091E800877F80937D
:101F9000E800809141028093F10078CE811180CEDB
:101FA00010914502123008F07BCE8091E800877FC7
:101FB0008093E800109341020E946E091123D1F032
:101FC00084E080934C0442E061EC81E00E94220AAC
:101FD00042E261EC84E00E94220A42E261EC82E08B
:101FE0000E94220A42E260EC83E00E94220A809171
:101FF0004C0456CE8091E30087FDE2CF81E0E1CF33
:10200000CF93C82F8823A9F08CEF8C0F813A98F4D6
:10201000E4E3F2E08AE392E02191C217B1F18E1776
:102020009F07D1F76C2F82E392E00E94CA080E94BA
:10203000DE0CCF91089580E28C0F883068F4C77071
:1020400021E030E001C0220FCA95EAF780917504C3
:10205000822B80937504EBCF8BE58C0F833038F4A3
:102060002C2F2452330BC9010E947E08E2CFC85A9C
:10207000CB31F8F6EC2FF0E0EE0FFF1FE650FE4FED
:10208000808191810E94A408D4CF6C2F82E392E0DA
:102090000E94E4080E94DE0CC5CF682F882341F11E
:1020A0008CEF860F813A38F482E392E00E94E408D4
:1020B0000E94DE0C089580E2860F883048F4677035
:1020C00081E001C0880F6A95EAF70E945B04F0CFB7
:1020D0008BE5860F833028F480E090E00E947E0834
:1020E0000895685A6B3120F480E090E00E94A408C3
:1020F00008950F931F93CF93C82F00E010E089330A
:1021000011F400E510E08C2F0E940010011511055C
:1021100039F48C2F0E944D10CF911F910F9108958B
:102120008FE99FE00197F1F700C00000015011090D
:10213000EDCF882339F090917504892B8093750435
:102140000E94DE0C0895882321F00E945B040E9407
:10215000DE0C0895A8E0B0E0E0EBF0E10C9441273C
:1021600066EE7EEF80E090E00E94F92760E082E07A
:1021700090E00E94DB2781E08093780461E083E0B7
:1021800090E00E94DB2760E074E184E090E00E9430
:10219000F92760E086E090E00E94DB276FEF87E0A0
:1021A00090E00E94DB2740E050E0BA0188E090E038
:1021B0000E94ED2760E084E290E00E94DB2760E06F
:1021C00087E190E00E94DB2760E08CE090E00E94D5
:1021D000DB2760E08DE090E00E94DB2719821A8205
:1021E0001B821C821D821E821F82188648E050E0DE
:1021F00068E170E0CE0101960E94CB2740E050E0FC
:10220000BA0180E290E00E94ED2780E00E94DA0BA4
:102210000E94F80B40E050E0BA018FE090E00E948D
:10222000ED2740E050E0BA0183E190E00E94ED2705
:102230002896E2E00C945D2748E050E068E170E009
:102240008DE694E00E94CB27109239040895EDE6C4
:10225000F4E085E080838091130190911401A091B6
:10226000150181839283A3838FE784838FEF858316
:102270000E941C110895A4E0B0E0E1E4F1E10C94A7
:102280003E27F62E042F122F8F32910508F046C0FC
:10229000BC01660F771F660F771F6F5E7B4F44E0B0
:1022A00050E0CE0101960E94752789818370482FE6
:1022B00050E02A8130E060EC869FC00111248059F3
:1022C0009D4FFC01E20FF31FE0817B816C81EF11D8
:1022D0000CC0FC01E70FF11DE081E01306C0FC011A
:1022E000E60FF11D80818117C9F0E0ECE49FC00189
:1022F000E59F900D112480599D4F280F391FF9013A
:10230000F082FC01E70FF11D0083FC01E60FF11DD7
:10231000108341595D4F81E0FA0180832496E5E006
:102320000C945A27FF920F931F93CF93DF93182F8C
:10233000062FF42EC0E0D0E02F2D402F612FCE01CC
:102340000E943B112196CF32D105B1F7CDB7DEB750
:10235000E5E00C945A27EBE5F2E08083618324E604
:1023600030E042E050E0BF0180EA0E94F626089586
:10237000A4E0B0E0EEEBF1E10C9437270E94512687
:1023800065EC8EEF0E94AB1160E08DEF0E94AB1107
:1023900010E060E0812F0E94AB111F5F1831C9F778
:1023A00065EC8EEF0E94AB1161E08DEF0E94AB11E6
:1023B00010E060E0812F0E94AB111F5F103CC9F755
:1023C00065EC8EEF0E94AB1163E08DEF0E94AB11C4
:1023D00060E08FE00E94AB1160E080E10E94AB11F1
:1023E0006FEF81E00E94AB1161E080E00E94AB11D1
:1023F0008FE39CE90197F1F700C0000001E114E0D0
:102400009DECE92E94E0F92E28E1A22ECC24C39471
:10241000D12CBB24B39444E050E0B801CE01019626
:102420000E947527EA814B812C8189818370682FF6
:1024300070E0AE2FA695A695A695A89EC001112482
:10244000805D9C4FA80FB92FB11DE770460102C0F7
:10245000880C991CEA95E2F73C9138293C93E42FCB
:10246000E695E695E695E80FF92FF11D4770D60140
:1024700002C0AA0FBB1F4A95E2F730813A2B308386
:10248000E22FE695E695E695E80FF92FF11D277006
:10249000C60101C0880F2A95EAF79081892B8083B5
:1024A000685B7C4FFB01B0820C5F1F4FE016F106AA
:1024B00009F0B1CF65EC8EEF0E94AB1160E08DEFBB
:1024C0000E94AB1180E3E82E83E0F82E10E0D701E4
:1024D0006D917D01812F0E94AB111F5F1831B9F7FB
:1024E000109248032496ECE00C945327CF93DF938B
:1024F00080916F02882339F165EC8EEF0E94AB1159
:1025000061E08DEF0E94AB11C0E0D0E0C0935B02B0
:1025100080E1FE01E059FD4FACE5B2E001900D9283
:102520008A95E1F724E630E041E150E06BE572E0A6
:1025300080EA0E94F626892B49F46096C03CD105BA
:1025400029F710926F02DF91CF91089581E0809377
:102550004803F7CF1F921FB61F9211248F939F93AA
:10256000EF93FF938091590290915A0201969093B4
:102570005A0280935902811105C0909158029260CD
:1025800090935802E0915A02E695E695F0E0EF52FA
:10259000FC4FE491E81305C0809158028D7F809331
:1025A0005802FF91EF919F918F911F901FBE1F9036
:1025B00018952FB7F89480913A0490913B04A0911C
:1025C0003C04B0913D042FBF08959C014FB7F8948F
:1025D00080913A0490913B04A0913C04B0913D0459
:1025E0004FBF821B930B08950F931F93CF93DF93DD
:1025F000C62FD42F122F8823A9F060936B040E945A
:10260000D91290933E0280933D02C77081E001C0D1
:10261000880FCA95EAF70E949910DF91CF911F9118
:102620000F91089580916B04681332C080913D0230
:1026300090913E020E94E5128639910548F5CD132E
:102640000CC0812F0E947910D77081E001C0880FE3
:10265000DA95EAF70E94A310E0CFC77001E0802F5F
:1026600001C0880FCA95EAF70E94A31080E28D0F7F
:10267000883050F48D2F877001C0000F8A95EAF7DB
:10268000802F0E949910DDCF812F0E947910C5CF35
:10269000C77081E001C0880FCA95EAF7DBCFA8E0D8
:1026A000B0E0E5E5F3E10C9435276C01DC0114960C
:1026B0008C91882309F4C2C061E0C6010E94700CAD
:1026C0008C01F6018581882309F454C1980137579C
:1026D00020383105D0F00334FEE71F0709F0B7C1F9
:1026E00084E30E94001084E30E944D1086E00E9463
:1026F000001086E00E944D10D60115968C9188231B
:1027000009F43DC110926B043AC1003108F086C053
:102710008FEF93E00E94BD27811180C059E0E52E24
:1027200052E0F52E01114AC01A821982FE01339639
:1027300086E0DF011D928A95E9F74AE0642E570191
:10274000BFEFAB1ABB0AC7010E94BD2789831A825B
:10275000882309F463C0813009F074C087010E5FDB
:102760001F4FC5010E94BD278A83882309F456C0E4
:102770009FEF980F933080F5E3E0EE0EF11CC80157
:102780000E94BD278B83882309F448C01C828E01D8
:102790000F5F1F4FD8018C91882389F2813009F097
:1027A0008CC011969C91119712968C91913009F0E2
:1027B0004BC00E5F1F4F0E9479104CC0E11424E003
:1027C000F20661F1C7010E94BD27D70111967D0174
:1027D0008111F4CF0150A6CF8430B9F432E0E32E5A
:1027E000F12CC8010F5F1F4F0E94BD27E1E0F0E010
:1027F000EC0FFD1FEE0DFF1D8083882379F08C37D1
:1028000031F4FE01EE0DFF1D12827801C0CFFFEF03
:10281000EF1AFF0A27E0E216F10419F780917A0413
:102820008770882359F0F6018581882339F08091DB
:102830007C0482FF03C082E00E9443042896EEE0FD
:102840000C9451277501A3CF923039F40E5F1F4FBE
:102850000E9400100F5F1F4F9DCF933029F40E5F31
:102860001F4F0E944D10F6CF943019F00F5F1F4F8D
:10287000F1CF0E5F1F4F20E030E0A8014F5F5F4FA8
:102880008053990B8A30910560F02115310511F3C1
:102890008FE99FE00197F1F700C000002150310956
:1028A000F4CF629EB001639E700D11249C01260F2F
:1028B000371FF80181818A01E0CFE82FF0E0E35073
:1028C000FA4F7490282F26952695269530E0F90129
:1028D000E351FA4F94918770F901E352FA4FA490B3
:1028E000B12C082E02C0B594A7940A94E2F7A1E097
:1028F000AA22BB24F901E353FA4F8490912C082EAD
:1029000002C0959487940A94E2F7B1E08B2299244F
:10291000292F30E002C0359527958A95E2F720FDF2
:102920000BC0AB28E9F4872D0E9479108114910423
:1029300009F490CF8CE23FCF81EE0E940010AB28CB
:1029400029F4872D0E94791081EE11C086EE0E9435
:102950000010872D0E94791086EE0E944D10F4CF52
:1029600086EE0E940010872D0E94791086EE0E944C
:102970004D10DCCF0334EEE71E0709F068C0D60126
:1029800015968C911597ED90FC90882309F438C228
:10299000C7010E94450C182F682FC7010E94AD0384
:1029A000B701812F0E94370C0E9456058C01F60159
:1029B000B580A680A2942FE0A22280917A0487702D
:1029C000882301F1EB2CBB20F1F0812F807F803434
:1029D00061F080E2800F8830A8F0812F807E803205
:1029E00021F4023078F0AA2069F080917C0482FF03
:1029F00009C082E00E94430480917A048770EE242B
:102A0000E3948111E12C812F82958F70883009F435
:102A1000EBC208F01AC2843008F0F7C1F12FFF7042
:102A2000FF2E823008F422C2107F103219F0F29487
:102A300080EFF822002309F450C2013009F499C252
:102A4000BB2009F4A5C2AA2009F465C225C2F80179
:102A5000E851FC47E730F10508F5E55FF74D0C94C8
:102A6000682726E241EE61EE0E94F412D7CE27E2FB
:102A700045EE65EEF9CF26E241EE60EEF5CF27E2B6
:102A800045EE64EEF1CF26E241EE62EEEDCF27E2B5
:102A900045EE66EEE9CF28E241E0EBCFF601858115
:102AA00081110FC00631FCE71F0709F0F7C08091C4
:102AB0006C0469E2811165E382E392E00E94E4081C
:102AC0001BC010926B04C80190578397C0F0063169
:102AD0002CE7120709F035C1809175048A7A91E0DC
:102AE000811101C090E090936C0469E2811165E36B
:102AF00082E392E00E94CA080E94DE0C8FCE84E03E
:102B000090E00E94C52790937C0480937B04F80199
:102B1000E150F047E232F10520F4EE5EF74D0C94FF
:102B2000682780917B04816080937B0460917B04A3
:102B300070917C0484E090E00E94F9270E941A0DB5
:102B40006DCE80917C04886080937C04EFCF80916F
:102B50007B048260E9CF80917B048460E5CF809123
:102B60007B048860E1CF80917C048160EDCF80910F
:102B70007C048260E9CF80917B048061D5CF809115
:102B80007B048062D1CF80917B048064CDCF0E9492
:102B90001A0D80917B048068C7CF80917B048C6084
:102BA000C3CF80917C048360CFCF80917B048E7FE4
:102BB000BBCF80917C04877FC7CF80917B048D7FC2
:102BC000B3CF80917B048B7FAFCF80917B04877FD5
:102BD000ABCF80917C048E7FB7CF80917C048D7FBA
:102BE000B3CF80917B048F7E9FCF80917B048F7DBC
:102BF0009BCF80917B048F7B97CF0E941A0D809191
:102C00007B048F7791CF80917B04837F8DCF8091E0
:102C10007C048C7F99CF80917B0482FB992790F96B
:102C200021E0922790FB82F990FB83F97DCF809180
:102C30007C04982F909591708E7F892B90FB81F961
:102C400083CF90917B04892F8F7B96FF80646CCF1C
:102C50000E941A0D90917B04892F97FB87F9805869
:102C600063CF61E08EE090E00E94DB275FCF60E001
:102C7000F9CF90917B04892F8F7E94FF806154CF90
:102C800090917B04892F8E7F90FF81604DCF909132
:102C90007C04892F877F93FF886056CF80917504CD
:102CA0008272F801E052F847E531F10508F072C090
:102CB000EC5CF74D0C94682780916D0491E08927B6
:102CC00080936D041092120181E00E94A607A6CDA8
:102CD00044EE57E068ED77E00E946A089FCD48ED2A
:102CE00057E064EE77E0F8CF4FE058E064E078E03A
:102CF000F3CF44E058E06FE078E0EECF48E258E0F0
:102D00006AE178E0E9CF4AE158E068E278E0E4CFB0
:102D100044E458E066E378E0DFCF46E358E064E45B
:102D200078E0DACF4EE558E062E578E0D5CF42E5CD
:102D300058E06EE578E0D0CF61E081E00E94BB070B
:102D40006DCD07373CE7130791F182E008374CE778
:102D5000140771F10A35ACE71A0709F44DC090F574
:102D60000130ECE71E0709F445C00330FCE71F07FC
:102D7000D9F101151C4709F002CE0E941A0D8FEF00
:102D800094E3ACE081509040A040E1F700C0000027
:102D90000E94D30A07378CE7180791F082E00837C2
:102DA0009CE7190709F0EBCD0E949D0303C081E069
:102DB0000E94910343E062E081E00E9418042ECD5E
:102DC00081E0F2CF0B353CE71307C1F00C351C470F
:102DD00009F0D5CD80917C0482FB882780F991E0B1
:102DE00089270E94530BCBCD6FEF7FEF80E090E0FF
:102DF0000E94F9270E94300D81E0F3CF80E0F1CFEF
:102E0000C7010E94E403182FCBCD843009F4D1C050
:102E1000EE20B1F080917A0480FD12C0D6011596A3
:102E20001C928695869586950E949103C6010E9404
:102E30004F1380917A048695869586950E949D030E
:102E400060E0C6010E94700CF9CC893009F43BC1E6
:102E50008A5F8F708230E0F6023F09F045C1812F12
:102E60008F71B1103EC10E949103EBC0103118F078
:102E7000F29490EFF922BB20B9F0FF2069F080E2D4
:102E8000800F883010F0011109C0809175048F29DE
:102E9000809375040E94DE0C802F2FC080917D04EA
:102EA0008F2980937D04F6CF802F0E944D10FF2044
:102EB00009F4AECF80E2800F883010F0011104C019
:102EC0008F2D0E945B0406C0F09480917D048F21B9
:102ED00080937D040E94DE0C9BCF80917C0482FD58
:102EE00016C0BB2069F0FF2039F0809175048F294E
:102EF000809375040E94DE0C80E00E94001088CF51
:102F000080E00E944D10FF2009F482CFD9CFBB2072
:102F1000A1F0A11004C08F2D0E94991079CF21E05B
:102F2000A21276CF809176049F2D9823F91609F48A
:102F30006FCF8F29809376046BCFA11069CF8F2D2F
:102F40000E94A310909176048F2D8923882329F065
:102F50008F2D8095892380937604809177049F2D0F
:102F60009823992309F454CFF094F822F09277042F
:102F70004FCFBB2029F035E03A1508F449CFCBCF2D
:102F800044E04A1508F444CF8F2D0E94A31040CF8F
:102F9000AA20D1F3093349F48FEF97EEA3E08150D3
:102FA0009040A040E1F700C00000802F0E944D102B
:102FB0002FCF812F869586958370882361F081308D
:102FC00009F026CFC8019370B11002C080E090E0F4
:102FD0000E94A4081DCFC8019370B11002C080E008
:102FE00090E00E947E0814CF812F8370811134C03D
:102FF000B11027C0402F429546954770440F440FAB
:10300000802F8F70042E01C0880F0A94EAF7007198
:10301000002341F02FE030E001C0220F4A95EAF78B
:10302000022F0095169516951370123081F013300B
:1030300061F020917804113039F0802B82230E94B6
:103040008B030E947108E4CE822B802BF8CF802B5B
:10305000909178048927F3CFBB2051F110FFF1CF75
:10306000402F429546954770440F440F802F8F7034
:10307000042E01C0880F0A94EAF70071002341F082
:103080002FE030E001C0220F4A95EAF7022F0095A9
:10309000169516951370123089F0133069F020914F
:1030A0007904113041F0802B82230E948E03C9CF16
:1030B000823038F2D5CF822B802BF7CF802B9091A6
:1030C00079048927F2CF1F70BB2039F0812F0E942D
:1030D0009103802F0E949910B4CF802F0E94A310DB
:1030E000812F0E949D03ADCF033F70F4003FB9F0E4
:1030F000013FB9F1BB2009F45BC0AA2009F455C017
:10310000802F0E9400109DCF033FD9F0043F29F18A
:10311000B110F3CFA1105AC0812F8F71E2CFBB2025
:1031200069F0B4E0BA1508F48CCF1F7181E090E02B
:10313000012E01C0880F0A94EAF7C1CFE5E0AE1670
:10314000F2CF80E0BB2009F4B0CF1F7181E0012EE7
:1031500001C0880F0A94EAF7A8CF80917C0482FD11
:1031600006C0812F8F71BB2009F4BBCF7CCEBB2062
:1031700089F01F71812F0E94910380917C0482FF4E
:1031800007C0F8E01F9FC0011124836080937A0478
:10319000812F69CE81E00E94430421E02A1508F0C6
:1031A00050CF82E00E9443044CCF812F8F715BCEC1
:1031B000AA2009F4B1CF093349F43FEF47EE83E089
:1031C000315040408040E1F700C00000802F0E9455
:1031D0004D1037CF8091BE04803178F48091BD04CA
:1031E000882359F0E0917F0420917E043091B90446
:1031F0004091B80457E02E1301C008956E2F70E07F
:103200005E9FF0011124DF01A058BB4F14968C91F2
:103210001497882361F111968C911197831327C01D
:103220008C91841324C015968C91159781111FC021
:1032300012968D919C91A091BA04B091BB048A1B07
:103240009B0B8639910598F48091BE048F70806144
:103250008093BE04EA57FB4F80818F70806180832A
:1032600088EB94E00E944F130E9439040895FB01FB
:103270003196E770C0CFADE0B0E0E1E4F9E10C9445
:1032800035278C0186E0F801DE01189601900D9239
:103290008A95E1F7F8017080F580A280B38084817F
:1032A00098EB892E94E0992E6090BC04611018C0B0
:1032B000882399F0FF2009F413C1C8010E949F0CD4
:1032C000882309F40DC187E0F801A8EBB4E0019070
:1032D0000D928A95E1F70E94EA18FF24F39453C0F7
:1032E000D090BD042091BA043091BB04A501421BCB
:1032F000530BDD2009F4C4C04639510508F07AC0EB
:10330000882359F38091B904C180E090BE04FFE0A6
:10331000FE1508F459C0C81215C08091B804871171
:1033200011C0F1104BC08E2D8F7080618093BE0450
:1033300088EB94E00E944F138091BE04F8018683CD
:10334000F12C21C0F1103AC040E06C2D872D0E9475
:10335000B40A40E06C2D872D0E94B40AF82E81112A
:10336000EFCF888599850E94900C292F22952F7088
:10337000903470F49F702230A0F09923B1F0F801DE
:103380009681903190F48F2D2D96EEE00C9451277C
:103390002A5F2F70223068F0C8010E944F13FD2C65
:1033A000F2CF992311F0882371F3805E883058F3AF
:1033B000F3CF803F40F3815F8230F9CF8091BE042C
:1033C00081608093BE04BCCFC8123CC08091B80419
:1033D000871138C0F11036C0F801E682C8010E949A
:1033E0004F1387E0F801A8EBB4E001900D928A95A5
:1033F000E1F773CFE090BE04FFE0FE1550F088EBDC
:1034000094E00E944F1387E0F40111928A95E9F746
:1034100097CF882309F461CF9091B904F801818195
:10342000981310C08091B80487110CC0F1100AC025
:10343000E682C8010E944F1387E0F40111928A9539
:10344000E9F74BCFC8010E949F0C882309F448C0BC
:10345000FF2009F445C08091BE04803208F433CFC8
:103460008091B8049091B9049A838983BC82AB821D
:103470006D821E82EF82CE0101960E944F1323CFF0
:103480004639510508F0BFCF882309F426CFFF2025
:1034900039F19091B9048181981318C08091B804D2
:1034A000871114C08091BE0480FD9BCF803108F449
:1034B00098CF8683807F803F09F490CF8681982FB4
:1034C000907F905F8F70892B868388CFC8010E9480
:1034D0009F0C8111F8CE8091BE0481608093BE0460
:1034E000C8010E944F13F9CEABE1B0E0EAE7FAE180
:1034F0000C9440274E8B5F8B688F798F8A8F9B8FC0
:10350000911110927D041D8A86E0FE017696DE01FF
:103510001F9601900D928A95E1F78B89882329F0F7
:1035200061E0CE010F960E94700C87E0FE013F968D
:10353000DE01189601900D928A95E1F7CE0108966A
:103540000E943B1981112BC087E0FE013896DE01F5
:10355000119601900D928A95E1F720917E04409199
:103560007F048C858823D9F030E0C90101968770EB
:10357000992750E084179507E9F097E0929FD001D2
:10358000939FB00D1124A058BB4FFE0131960190BE
:103590000D929A95E1F780937E040E94390417E01A
:1035A00080917F0490917E04891312C06B96E3E0B2
:1035B0000C945C270E941A0D10927E0410927F04D6
:1035C00087E0E8EBF4E0DF011D928A95E9F7E7CFA9
:1035D000189FC001112480589B4F0E943B198823DB
:1035E00029F380917F0490E001968770992780935A
:1035F0007F04D6CFA6E0B0E0E0E0FBE10C943F27EB
:103600000E94D9128C0180914D0490914E04801734
:10361000910779F019821A820E94D912BC0149815E
:103620005A8180E090E00E94741A10934E04009337
:103630004D042696E4E00C945B27A8E0B0E0E3E2BA
:10364000FBE10C943727FE01319688E0DF011D92E3
:103650008A95E9F70DE211E0EE24E394F12C5F0185
:10366000CC24C394D12CF80181918F018F3F09F4B0
:103670004CC0F894E82FE295EF70F0E021A18F7034
:10368000A60102C0440F551F8A95E2F7CA01922F86
:10369000982B91A392A18095892382A3789400C04E
:1036A000A9E3B1E04501A701409550956D91F40162
:1036B000819191914F016F3F09F44CC0262F2295C3
:1036C0002F70205E30E0F901208130E06F7002C081
:1036D000359527956A95E2F7217021113BC08E2917
:1036E0009F29940122503109F90191838083F1E0EF
:1036F000AD33BF07D9F6F801319780818F3F11F0C4
:103700000E94710640EA4A95F1F7EE0CFF1C51E069
:103710000933150709F0A7CF48E050E0B50189E467
:1037200093E00E947E27892BC1F088E0F501A9E48F
:10373000B3E001900D928A95E1F781E080933C021D
:103740000E94D91290933B0280933A022896ECE0B3
:103750000C94532784239523C4CF80913C02882363
:10376000A9F380913A0290913B020E94E5120597DD
:1037700068F348E050E069E473E084E494E00E9478
:103780007E27892B49F088E0E9E4F3E0A4E4B4E083
:1037900001900D928A95E1F710923C02D7CFCDB7F8
:1037A000DEB7A9970FB6F894DEBF0FBECDBF85B7C1
:1037B000806885BF85B7806885BF84B7877F84BFF1
:1037C0000FB6F894A895809160008861809360009E
:1037D000109260000FBE80E890E00FB6F8948093DE
:1037E0006100909361000FBE8FE696E090933102E6
:1037F000809330020E94BE090E94590A8091E20023
:1038000084608093E200789480914C04882399F03E
:103810008091E9001091EC001795112717958F7092
:10382000182B1092E9008091E80083FD0E94460D5C
:103830001F701093E90082E084BD93E095BD9AEF7C
:1038400097BD80936E000E94C50C811102C00E943A
:10385000F80B0DE211E0D8018D918D018F3F11F031
:103860000E947106B1E009331B07A9F787E90E949E
:10387000710687EF0E94710686EF0E94710685EF40
:103880000E94710688E0E4E4F4E0DF01282F1D9235
:103890002A95E9F7E9E4F3E0DF011D928A95E9F75B
:1038A00080E090E00E94C527863E9E4F21F40E9452
:1038B000C50C811102C00E94AA1082E090E00E9413
:1038C000BD278093520384E090E00E94C527909327
:1038D0007C0480937B040E941D1BEFEFF6E721E040
:1038E000E150F0402040E1F700C000000E941D1BA5
:1038F0008091440480FF08C06FEF7FEF80E090E08C
:103900000E94F9270E94D30A83E090E00E94BD271D
:103910000E948B030E94B81110925B0340E150E0BB
:103920006FEF70E084E793E00E94A62780E090E0CC
:103930000E94C527863E9E4F21F40E94C50C81112E
:1039400004C00E94AA100E94271181E080933904CC
:1039500048E050E068E170E08DE694E00E94AD2719
:103960001092390480916D04843010F40E94271164
:1039700080918100886080938100809181008160C6
:10398000809381008FB7F89420ED33E03093890065
:10399000209388008FBF83E091E090935004809340
:1039A0004F0480914C04853069F4909151038091CB
:1039B0004C04853009F47DC00E941A0D0E947108E4
:1039C000109242040E941D1B83E593E09AA389A3F1
:1039D000A4E4B4E0BEA3ADA34BE553E0FC01219108
:1039E00031918D919D914E175F0709F48CC0281776
:1039F0003907A9F31DE3A12E11E0B12E712CEDA121
:103A0000FEA1E190F190FEA3EDA3A9A1BAA18D9131
:103A10009D91BAA3A9A38E159F0509F440C0FC018E
:103A2000EE25FF25F9A7E8A71501612CCC24C39446
:103A3000D12C88A599A58C219D21892B11F1870175
:103A40000C211D2169827A820E94D9129C838B836A
:103A5000F1E0FD8391E00115110509F490E09E83EA
:103A600049815A816B817C818D810E94741A809179
:103A70005B03012B09F0A8C05FA0893008F0D4C017
:103A80005FA26394CC0CDD1CEFEF2E1A3E0AFCE023
:103A90006F12CFCFE9A1FAA13297F182E08273943D
:103AA0002CE0A20EB11C34E07312A9CF0E94F308DF
:103AB00030C080914C04992309F479CF0E941D1BDA
:103AC000E4E4F4E081919191892B29F444E0EC3411
:103AD000F407C1F76ACF80E189BD82E189BD09B4ED
:103AE00000FEFDCF8091D8008F7D8093D80080911B
:103AF000E00082608093E0008091E00081FDFCCFD7
:103B00000E941A0D52CF2817390709F073CF0E946F
:103B1000FA1AC0908403D0908503E0908603F09059
:103B200087038FB7F89440903A0450903B0460901C
:103B30003C0470903D048FBF530142018C189D08D6
:103B4000AE08BF080E94F308609384037093850356
:103B50008093860390938703A0915B03EBE5F3E0EA
:103B60004A2F50E0BFEFCB0EDB1EE11CF11CC41846
:103B7000D508E608F708A5138AC040935B03209197
:103B8000420410E0211109C020916D04122F13701E
:103B9000112319F0122F169516952091120122303B
:103BA00009F4D9C408F086C02111A7C010920F01F2
:103BB00060933E0470933F048093400490934104CB
:103BC000E1E0E093120179C0D1015C90BFEF5B1698
:103BD00009F452CF01E010E044244394883038F5D2
:103BE00040915B03852D90E0242F30E0F901E55AE8
:103BF000FC4FDC01AA0FBB1FA359BE4F5C91518340
:103C0000880F991FDC01A35CBE4FD1968C918187F0
:103C1000518AF901EE0FFF1FE55AFC4F128E118EEB
:103C20004F5F40935B032CCF00E010E0412CE8E0B5
:103C30008E2E912C801A910AB801645A7C4FA401EF
:103C40008CE593E00E948B27B8016C597C4FA4014E
:103C500084E693E00E948B27A401440F551FB8010E
:103C6000660F771F6C587C4F84E793E00E948B2788
:103C7000B80164597C4FA4018CE693E00E948B2725
:103C800088E0841980935B034110AACFF9CE218D7F
:103C9000328D2901612C712CC414D504E604F7047B
:103CA00020F441505F5F329666CF280D391D328F68
:103CB000218FF8CF233009F458C40E9471089091E5
:103CC0004304891721F0809343040E94F3088091F4
:103CD0004C04843009F065CE83E08093E900809144
:103CE000E80082FF5ECE8091E80085FD62C480918D
:103CF000E8008B778093E80054CE80910E01181372
:103D000025C020916D04237030E040910D0150E0FA
:103D100081E02417350709F480E081708093110158
:103D20008091720490911001981739F080931001DE
:103D300040E060E080E00E94AF07193008F0B9C1B0
:103D4000E12FF0E0E75BF74D0C94682781E0E5CFC9
:103D500080911101811109C080910F018F5F8093C3
:103D60000F0183E080931201A8CF40E060E080E083
:103D70000E94AF0780910F018F5F80930F0182E057
:103D80008093120180911101811197CFEACF809128
:103D90000F010E94B207082FF92E60916E047091F6
:103DA0006F04809170040E949B06E62ED72EC82EC9
:103DB00010E00F1550F080910F018F5F80930F017D
:103DC000FEE2FF1508F099C1ABC0F801E553FE4FC4
:103DD0008081909110018923882331F02C2D4E2D64
:103DE0006D2DC8010E94AC070F5F1F4FE2CF80917D
:103DF0000F010E94B207D92EC0906F04B0907004DA
:103E00003091710420E4239F212D1124082F10E00C
:103E1000E22EF12C0D1540F080910F018F5F809301
:103E20000F012EE2D216CECFF801E553FE4F80816E
:103E30009091100189238823E9F0F801EE0FFF1F0C
:103E4000E35CFE4F20A92E9DC0012F9D900D1124F3
:103E500025E0959587952A95E1F760916E04680FA6
:103E60007C2D8B2D0E949B06462F672F282FC80183
:103E70000E94AC070F5F1F4FCDCF80910F010E94B2
:103E8000B207082FF92ED0906F04E09070041091C3
:103E90006E046091710466956695669580913E0406
:103EA00090913F040E9423070E94420720E8280FB8
:103EB00027FD2195220F3CE0239F212D1124612F06
:103EC000620F7D2D8E2D0E949B06E62ED72EC82ECA
:103ED00010E00F1540F080910F018F5F80930F016C
:103EE0003EE2F3166FCFF801E553FE4F80819091CB
:103EF00010018923882331F02C2D4E2D6D2DC80102
:103F00000E94AC070F5F1F4FE4CF81E697E00E944D
:103F1000DD0990910F019F5F90930F018111EDC01A
:103F200082E080931201809179040E9479038230AB
:103F300009F468C208F0FEC400E010E0882309F428
:103F400047C220E040E060E0C8010E94AC070F5F7C
:103F50001F4F0F321105A9F720E041E26FEF81E01A
:103F600090E00E94AC0720E041E26FEF82E090E039
:103F70000E94AC0720E041E26FEF83E090E00E94F6
:103F8000AC0720E041E26FEF84E090E038C28AE8BD
:103F900096E0BDCF80910F010E94B207E92E4091BB
:103FA0003E0450913F04609140047091410480911F
:103FB000880390918903A0918A03B0918B038417A1
:103FC0009507A607B70708F051C00E942D074FE2DA
:103FD000849F80011124012F110F110BF801E5536B
:103FE000FE4F8081909110018923882309F43EC0FF
:103FF0000E942D0781FD42C00E942D07F82E0E94CD
:104000002D0750E8859FC00111247FE7790F80912B
:1040100070046F2D0E949B06462F672F282FC80122
:104020000E94AC072091710430E1230F08F42FEFB8
:1040300060E1822F90E00E942307BC0184EF91E0B1
:104040000E941D2780913E0490913F04A09140045E
:10405000B0914104860F971FA11DB11D8093880365
:1040600090938903A0938A03B0938B0380910F01EF
:104070008F5F80930F018EE2E816A4CE80E070E09F
:10408000F12CC7CF809111010091190410911A04ED
:1040900020911B0430911C0440913E0450913F0438
:1040A0006091400470914104401751076207730703
:1040B00030F480910F018F5F80930F0131CF811118
:1040C00022C080910F010E94B207D92E082F10E064
:1040D0007801EE0CFF1CE00EF11ED701A457BC4F77
:1040E0007D010D1508F449C02EE22D1508F45BC0C2
:1040F00080910F018F5F80930F01809112018230B8
:1041000009F0DBCD10CF40E060E080E00E94AF0717
:10411000FCE8EF2EF3E0FF2E00E010E00E942D07F8
:1041200081FF0DC0F7011082118212820F5F1F4FB5
:10413000B3E0EB0EF11C0F32110581F7C2CF0E94E4
:104140002D07B82E0E942D07F0E88F9FC001112483
:104150007FE7790F6801CC0CDD1CC00ED11E9601E3
:1041600024573C4F69016B2D809170040E949B067F
:10417000D6016D937D938C93D9CFF801E553FE4F13
:104180008081909110018923882339F0F7012281E1
:1041900040816181C8010E94AC07F3E0EF0EF11C81
:1041A0000F5F1F4F9ECF8D2D90E0AC01440F551F28
:1041B000480F591F435051096FE873E08CE893E0B2
:1041C0000E9494270E942D0781FF25C0109216049B
:1041D00010921704109218040E94870769A37AA30B
:1041E0008BA39CA380913E0490913F04A091400436
:1041F000B091410429A13AA14BA15CA1820F931F68
:10420000A41FB51F8093190490931A04A0931B0454
:10421000B0931C044ECF0E942D07182F0E942D072B
:1042200030E8839FC00111247FE7790F612F8091CF
:1042300070040E949B066093160470931704809389
:104240001804CACF80911101882329F040E060E072
:1042500080E00E94AF0780910F010E94B207492EB3
:1042600040913E0450913F0460914004709141049C
:104270008091350490913604A0913704B0913804B0
:1042800084179507A607B70708F084C060916E04ED
:1042900070916F04809170040E949B0669A37DA3B6
:1042A000582E4DE1E42E44E0F42E0DE311E05DE6DE
:1042B000852E51E0952E580138016701312CD60129
:1042C0002D916D01F30181913F0190E0222309F4CA
:1042D00069C0252D49A16DA10E94AC07D5011B968F
:1042E0008C91252D49A16DA190E00E94AC07D601CB
:1042F0008C91F601319780833394B1E0AB1AB10809
:10430000E5E03E12DCCFD80115968C9190E0F701E4
:104310002581222309F451C0252D49A16DA10E94B8
:10432000AC07D80116968C91252D49A16DA190E07E
:104330000E94AC070E942D07837091E0811190E0EC
:10434000D70115969C93B6E0EB0EF11C045F1F4F4E
:104350008016910609F0AFCF0E94870769A37AA360
:104360008BA39CA380913E0490913F04A0914004B4
:10437000B091410429A13AA14BA15CA1820F931FE6
:10438000A41FB51F8093350490933604A09337047F
:10439000B093380480910F018F5F80930F013EE24C
:1043A000431610CD20E040E060E00E94AC07F5012C
:1043B000838520E040E060E097CF20E040E060E0CF
:1043C0000E94AC07F801868120E040E060E0AFCFBA
:1043D00024E144E164E1C8010E94AC070F5F1F4F74
:1043E0000F321105A9F720E04FEF60E08BE290E07B
:1043F0000E94AC0720E040E06FEF8CE290E00E946A
:10440000AC075BCC20E040E060E080E090E00E9400
:10441000AC0701E010E01CC020E040E060E0C80113
:104420000E94AC07C8010F5F1F4F0F32110509F43E
:1044300044CC0C97829780F320E040E060E080E07D
:1044400090E00E94AC0702E010E00D30110524F767
:104450002FEF4FEF6FEFC8010E94AC070F5F1F4FA8
:104460000C30110591F720E041E26FEF8CE090E015
:104470000E94AC070DE010E0E8CF00E010E020E083
:1044800040E060E0C8010E94AC070F5F1F4F0F3291
:104490001105A9F720E040E06FEF88E090E00E946E
:1044A000AC0720E04FEF6FEF8BE090E00E94AC078D
:1044B00020E04FEF6FEF83E290E00E94AC0720E036
:1044C00040E06FEF87E290E00E94AC072FEF4FEFE4
:1044D0006FEF81E090E00E94AC072FEF4FEF6FEF9E
:1044E00082E090E00E94AC072FEF4FEF6FEF83E088
:1044F00090E00E94AC072FEF4FEF6FEF8DE090E060
:104500000E94AC072FEF4FEF6FEF8EE090E00E941C
:10451000AC072FEF4FEF6FEF8FE090E00E94AC07FA
:104520002FEF4FEF6FEF89E190E00E94AC072FEF84
:104530004FEF6FEF8AE190E00E94AC072FEF4FEF53
:104540006FEF8BE190E00E94AC072FEF4FEF6FEF22
:1045500086E290E054CF10930E0180916D04837039
:1045600080930D010E947612FCCB80913904811159
:104570000E941C1140913E0450913F046091400400
:10458000709141042FB7F89480913A0490913B04C4
:10459000A0913C04B0913D042FBF841B950BA60B4A
:1045A000B70B4097A105B10508F487CB1092120113
:1045B00084CB0E948D0930E2E32EF12C8E010F5F37
:1045C0001F4F8823D9F08091E8008B778093E80013
:1045D0008981EFEFE80FE33158F5F0E0EE5AF74D3F
:1045E0000C9468278091F100D8018C93B1E0EB1A0C
:1045F000F108E114F10439F30F5F1F4F8091E800D7
:1046000085FDF0CF8091E8008B778093E8000E94D1
:104610008D09882399F3D7CF1A828CE08B831AC037
:104620008A81833049F138F4813061F08230D9F0E9
:104630008FEF89830FC08430D9F71B821C821D82C3
:104640001E8208C00E94F3080E946E276B837C8341
:104650008D839E8340E250E0BE016F5F7F4F82E01A
:104660000E94F70A9EC988E290E00E94BD271B8243
:104670001C821D828E83EECF8B8190E0DE0111962D
:1046800012968430910534F7FC01FF27EE0FFF1FCF
:10469000EC5BFB4F2081318111963C931197129670
:1046A0002C9312970196ECCF8A81823079F0853075
:1046B00009F0BECF80916D0491E0892780936D044D
:1046C0001092120180E00E94A607C4CF2B813C818A
:1046D0004D815E8129A33AA34BA35CA3CA01B90112
:1046E0000E946E2788E290E00E94DB27B3CF4C81C6
:1046F0006B818A810E94080C9827892798279E83BE
:104700008D83A8CF2D813E813227232732274C81EC
:104710006B818A810E946A0B9DCF0E94910B9ACF78
:104720009A81933009F084CF883009F441C08930F0
:1047300009F46BC08B818330B9F198F48130D1F0EA
:10474000823009F087CF8C8190916D04292F2370DE
:1047500081111EC02111109212019C7F90936D0453
:1047600079CF843009F076CF8C8120E040917004BD
:104770006D810AC04C8126E9429F412D1124809110
:104780006E0420E060916F0490E00E94F10762CF18
:10479000211102C0109212019C7F916090936D04D0
:1047A00060E00E94BB0756CF8C81809371048ACF52
:1047B0008B81833039F180F48130C1F0823009F08F
:1047C00049CF80916D04982F9370869586959111AD
:1047D00001C080E08C833ECF843009F03BCF8091D4
:1047E0006E048C8380916F048D8334CF809170042C
:1047F0003FEF839FC001112466E970E00E941D27EE
:104800006C8328CF80917104E5CF0E941C1122CFC8
:1048100080E18A831FCF81E08A8387EFFFCECA8041
:10482000DB80DC24CD24DC248C817601E80EF11CB5
:104830008E010B5F1F4FEC14FD0409F40BCF80E0D9
:1048400047EFC41641E0D40628F4C601875F9D4FA8
:104850000E94BD27D8018D938D01BFEFCB1ADB0AD3
:10486000EACF0A811B81102701271027FE0131960C
:104870006F01EC80EE0EFF2EF11CEC14FD0409F428
:10488000E9CE073FF1E01F0740F4D60114966C9182
:10489000C801875F9D4F0E94DB270F5F1F4FBFEF4F
:1048A000CB1ADB0AEACF0E94CA0BD4CE85E0B1CF87
:1048B000CA80DB80DC24CD24DC248C817601E80EE8
:1048C000F11C8E010B5F1F4FEC14FD0409F4C2CEE6
:1048D00080E0E0EECE16E1E0DE0620F4C601899627
:1048E0000E94BD27D8018D938D01BFEFCB1ADB0A43
:1048F000EBCF0A811B81102701271027FE0131967B
:104900006F01EC80EE0EFF2EF11CCE14DF0409F4D3
:10491000A1CE003EF1E01F0738F4D60114966C9149
:10492000C80189960E94DB270F5F1F4FBFEFCB1A8C
:10493000DB0AEBCF833009F4A0CD00E010E0843037
:1049400009F0BBC920E040E060E0C8010E94AC076C
:104950000F5F1F4F0F321105A9F720E040E06FEF06
:1049600086E290E00E94AC072FEF4FEF6FEF80E000
:1049700090E00E94AC072FEF4FEF6FEF81E090E0E7
:104980000E94AC072FEF4FEF6FEF8CE090E00E949A
:10499000AC072FEF4FEF6FEF8EE090E00E94AC0777
:1049A0002FEF4FEF6FEF8FE090E00E94AC072FEFFB
:1049B0004FEF6FEF80E190E00E94AC072FEF4FEFD9
:1049C0006FEF81E190E00E94AC072FEF4FEF6FEFA8
:1049D00088E190E00E94AC072FEF4FEF6FEF89E185
:1049E00090E00E94AC072FEF4FEF6FEF8AE190E06D
:1049F0000E94AC072FEF4FEF6FEF8BE190E0FFCC01
:104A000078941F921FB61F9211248F939F93AF9398
:104A1000BF9380913A0490913B04A0913C04B091E3
:104A20003D040196A11DB11D80933A0490933B046F
:104A3000A0933C04B0933D04BF91AF919F918F919F
:104A40001F901FBE1F9018951F920F920FB60F92C6
:104A500011242F933F934F935F936F937F938F9383
:104A60009F93AF93BF93EF93FF938091E10082FFF9
:104A700009C08091E20082FF05C08091E1008B7F38
:104A80008093E1008091DA0080FF24C08091D800FB
:104A900080FF20C08091DA008E7F8093DA008091C1
:104AA000D90080FFA7C080E189BD82E189BD09B43A
:104AB00000FEFDCF81E080934C0480914202811181
:104AC00009C00E94BE090E94590A8091E2008460D8
:104AD0008093E2008091E10080FF1CC08091E200A1
:104AE00080FF18C08091E2008E7F8093E200809169
:104AF000E20080618093E2008091D8008062809320
:104B0000D80019BC85E080934C0480916F008260CE
:104B100080936F008091E10084FF30C08091E200BB
:104B200084FF2CC080E189BD82E189BD09B400FE0B
:104B3000FDCF8091D8008F7D8093D8008091E100D7
:104B40008F7E8093E1008091E2008F7E8093E2006F
:104B50008091E20081608093E2008091410288238D
:104B600009F44EC084E080934C0480914C04809101
:104B70006F008D7F80936F000E9471088091E1002B
:104B800083FF27C08091E20083FF23C08091E10072
:104B9000877F8093E10082E080934C041092410271
:104BA0008091E1008E7F8093E1008091E2008E7F12
:104BB0008093E2008091E20080618093E20042E015
:104BC00060E080E00E94220A8091F000886080937B
:104BD000F000FF91EF91BF91AF919F918F917F91E5
:104BE0006F915F914F913F912F910F900FBE0F905A
:104BF0001F90189519BC10924C04109242026ACF73
:104C00008091E30087FF02C083E0ADCF81E0ABCFAE
:104C10001F920F920FB60F921124FF920F931F93C2
:104C20002F933F934F935F936F937F938F939F93B4
:104C3000AF93BF93CF93DF93EF93FF9309EE10E011
:104C4000F8018081C091EC00C795CC27C7958F7083
:104C5000FC2EF82A1082C0EFD0E08881877F8883FD
:104C600078940E94460DF8011082888188608883BC
:104C7000CF2DCF70C083FF91EF91DF91CF91BF9186
:104C8000AF919F918F917F916F915F914F913F91E4
:104C90002F911F910F91FF900F900FBE0F901F90BB
:104CA00018951092B9008CE08093B8000895A0E0A8
:104CB000B0E0EDE5F6E20C943827B82EEB010E9447
:104CC000D9126C01EE24E394F12CC431D10560F0CB
:104CD00025E0E22EF12CCF3FDC0731F0CE0164E17C
:104CE00070E00E941D277B0184EAA82E94E8992E8B
:104CF0001092BC00A092BC000E94D912182F092F5C
:104D00008091BC0087FF0CC08091B900887F8830FB
:104D1000F9F08091B900887F8031D1F00FEF08C0A1
:104D2000812F902F0E94E512E816F90648F70EEF42
:104D30001FEFCF3FDC07E1F2C6010E94E512C81762
:104D4000D907B0F6C801CDB7DEB7EBE00C94542715
:104D5000B092BB009092BC000E94D912182F092F6C
:104D60008091BC0087FF0AC02091B900287F2831BC
:104D700011F0203499F600E010E0E4CF812F902F5D
:104D80000E94E512E816F90658F7D1CF0F931F934A
:104D9000CF93DF93EB018093BB0084E88093BC004A
:104DA0000E94D912182F092F8091BC0087FF11C0D3
:104DB0002091B900287F81E090E0283211F480E052
:104DC00090E0919581959109DF91CF911F910F917D
:104DD0000895CF3FDC0741F3812F902F0E94E51209
:104DE000C817D90708F78EEF9FEFEECFA0E0B0E02D
:104DF000ECEFF6E20C943B276B018A01F22EE32ED6
:104E0000622F732F0E945726AC01E6010C0D1D1D69
:104E1000C017D10711F057FF09C084E98093BC0087
:104E2000CA01CDB7DEB7E8E00C9457276F2D7E2D71
:104E300089910E94C626AC01EBCFAA1BBB1B51E196
:104E400007C0AA1FBB1FA617B70710F0A61BB70BFA
:104E5000881F991F5A95A9F780959095BC01CD019F
:104E600008952F923F924F925F926F927F928F920E
:104E70009F92AF92BF92CF92DF92EF92FF920F93E9
:104E80001F93CF93DF93CDB7DEB7CA1BDB0B0FB6F3
:104E9000F894DEBF0FBECDBF09942A8839884888B0
:104EA0005F846E847D848C849B84AA84B984C88446
:104EB000DF80EE80FD800C811B81AA81B981CE0F3D
:104EC000D11D0FB6F894DEBF0FBECDBFED01089522
:104ED000EE0FFF1F0590F491E02D099469279627A6
:104EE00069277827872778270895FB01DC0102C00E
:104EF00005900D9241505040D8F70895FB01DC0118
:104F000004C08D910190801921F441505040C8F7A0
:104F1000881B990B0895FB01DC0102C001900D92E2
:104F200041505040D8F708956817790768F4FB019D
:104F3000DC01E40FF51FA40FB51F02C002900E9212
:104F400041505040D8F708950C948B27DC0101C0E4
:104F50006D9341505040E0F70895DC01CB01FC0116
:104F6000F999FECF06C0F2BDE1BDF89A319600B4C2
:104F70000D9241505040B8F70895F999FECF92BD77
:104F800081BDF89A992780B50895A8E1B0E042E084
:104F900050E00C94AF27DC01A40FB51F41505040E6
:104FA00048F0CB01840F951F2E910E94DC274150C1
:104FB0005040D0F70895262FF999FECF92BD81BDBC
:104FC000F89A019700B4021639F01FBA20BD0FB647
:104FD000F894FA9AF99A0FBE08950396272F0E9423
:104FE000DC270E94DB27252F0E94DC27242F0C942E
:104FF000DC270196272F0E94DC270C94DB27F894EE
:10500000FFCF240E4A0E500E4A0E500EA30EC50EB0
:10501000500EC10FCE0F3B153F15311537154315F7
:1050200047154B15D5154016DD15A715AB15E11520
:10503000AF15E515F115BB153916BF15F515C315D7
:10504000F9152116C715FD152816CD1503160B16D3
:10505000B315E915B715ED15D11507161716311645
:105060003716A115D91547165C1668166F167416F3
:1050700079167E16831688168D16921697169C162C
:105080000E140E140E140E140E140E140E140E1410
:105090000E14A81EC71EF71E3D1F851FC71FCA1F5F
:1050A000422022210C2310235423772382238D2393
:1050B0009023902390231823182308240B240F24D3
:0A50C0003124532456245824792487
:1050CA000139051009350B130914094C0BFFFF00B0
:1050DA00FF000300FF964422320001DE00AC0056B6
:1050EA00016F018F01003131295A1B750A3233953C
:1050FA00939237F0343536666797F7F6F500010272
:10510A00030405060708090A0B0C0D0E0F101112ED
:10511A00131415161718191A1B1C1D1E1F202122DD
:10512A0023242526272829FF2A2B2C2D2E0000147C
:10513A000028003D00510065007A008E00A200B7E9
:10514A0000CB00E0000015141528153D1551156512
:10515A00157A158E15A215B715CB15E015002A1468
:10516A002A282A3D2A512A652A7A2A8E2AA22AB769
:10517A002ACB2AE02A0040144028403D4051406F83
:10518A00408E40A240B740CB40E0400104040404F2
:10519A0004040404040401010404040404040404CB
:1051AA0004040101040404040404040404040101C1
:1051BA0001010101010101010101E200E900EA0026
:1051CA00B500B600B700CD008301CC008A01920178
:1051DA0094012102230224022502260227022A021E
:1051EA00B300B4006F0070009F01CB019F02A002C0
:00000001FF
