:100000000C941F030C9457030C9457030C94570340
:100010000C9457030C9457030C9457030C945703F8
:100020000C9457030C9457030C9432250C940A2615
:100030000C94C6170C9457030C9457030C94570355
:100040000C9457030C9457030C9457030C945703C8
:100050000C9457030C940E250C9457030C945703DF
:100060000C9457030C9457030C9457030C945703A8
:100070000C9457030C9457030C9457030C94570398
:100080000C9457030C9457030C9457030C94570388
:100090000C9457030C9457030C9457030C94570378
:1000A0000C9457030C9457030C94570305010980D3
:1000B000A101850319012AB700150126B700950192
:1000C00075108100C0050C0901A101850419012AE0
:1000D000A002150126A002950175108100C00660DE
:1000E000FF0961A1010962150026FF00952075082E
:1000F00081020963150026FF00952075089102C052
:1001000005010906A101050719E029E715002501E8
:10011000950875018102950175088101050719008F
:1001200029FF150026FF00950675088100050819AE
:1001300001290515002501950575019102950175A7
:10014000039101C009025B00030100A0FA09040049
:1001500000010301010009211101000122440007EF
:1001600005810308000109040100020300000009E1
:10017000211101000122220007058203200001074E
:100180000503032000010904020001030000000927
:100190002111010001223200070584032000011211
:1001A00001000200000008504B3034020001020040
:1001B00001220342004D0034003000200048006F4F
:1001C0000074007300770061007000200052004747
:1001D000004200000016034B005000520065007002
:1001E00000750062006C00690063000000040309F0
:1001F00004290014001A000800150017001C00183C
:10020000000C00120013002A002B00040016000747
:100210000009000A000B000D000E000F003300283B
:1002200000E1001D001B0006001900050011001070
:10023000003600370038004C00E000E300645263F1
:100240005228242C4200002A415200510050004FF5
:10025000003400260227022F0030000000000000BA
:100260000000000000000035000000000000000059
:10027000000000000000000000000000000000007E
:1002800000E100000000000000000000000000008D
:10029000000000000000000000000000000000005E
:1002A000000000000000000000AB00AA00A900AEA2
:1002B0000000001E001F0020002100220023002457
:1002C000002500260027002A00437E3B003D003E1B
:1002D000000000000000002D002E00000000003192
:1002E00000E1003F004500000000000000000000A9
:1002F0000000004B004E0000000000000000000065
:1003000000000000000000000000000000000000ED
:100310000000004A0052004D0000000000000000F4
:1003200000007C000000002A000000500051004F37
:1003300000000000000000000000000000000000BD
:1003400000000000000000000000000000000000AD
:10035000000000000000004C0000000000000063EE
:10036000520000000000000000000000000000003B
:1003700000440045000000000000000000000000F4
:100380000000000000000000003F0040004100426B
:10039000004300000000000000000000000000001A
:1003A000003A003B003C003D003E00000000000021
:1003B0000000000000000000000000000064520087
:1003C000000000000000000000000000000000002D
:1003D000000010002000110121001202220013036E
:1003E000230014042400150525001606260017070F
:1003F000270018082800190929001A0A2A001B0BCF
:100400002B00403050004131510042325200433302
:10041000530044345400453555004636560047379E
:10042000570048385800493959004A3A5A004B3B5E
:100430005B00706080007161810072628200736392
:10044000830074648400756585007666860077672E
:10045000870078688800796989007A6A8A007B6BEE
:100460008B00A090B000A191B100A292B200A39322
:10047000B300A494B400A595B500A797B700A898B9
:10048000B800A999B900AA9ABA00AB9BBB000101B8
:100490000101010101010102020202020202020243
:1004A0000303030303030303040404040404040513
:1004B00005050505060606060607070707070808D7
:1004C0000808090909090A0A0A0B0B0B0C0C0C0D88
:1004D0000D0D0E0E0E0F0F0F101011111112121321
:1004E000131414151516161717181819191A1A1B9C
:1004F0001B1C1D1D1E1E1F202021222223242425FB
:100500002626272829292A2B2C2D2D2E2F30313233
:1005100032333435363738393A3B3C3D3E3F404143
:1005200042434445464748494A4C4D4E4F5051532B
:1005300054555658595A5B5D5E5F616264656668E2
:10054000696B6C6D6F7072737577787A7B7D7E8066
:1005500082838587888A8C8E8F91939596989A9CB2
:100560009EA0A2A3A5A7A9ABADAFB1B3B5B7BABCC6
:10057000BEC0C2C4C6C9CBCDCFD1D4D6D8DBDDDF97
:10058000E2E4E7E9EBEEF0F3F5F8FAFDFF00000036
:10059000000000000000000000000000000000005B
:1005A000000000000000000000000000000000004B
:1005B000007E0F00D4FFFFFFC7000000780000009E
:1005C00000000000002A2B280000000000000000AE
:1005D000000000000000000029000000002C1E3474
:1005E00020212224342627252E362D3738271E1F7A
:1005F000202122232425263333362E37381F0405A5
:10060000060708090A0B0C0D0E0F10111213141512
:10061000161718191A1B1C1D2F3130232D350405F0
:10062000060708090A0B0C0D0E0F101112131415F2
:10063000161718191A1B1C1D2F3130354C001124A8
:100640001FBECFEFDAE0DEBFCDBF04B603FE18C099
:100650008091BD049091BE04A091BF04B091C004EC
:100660008730904BA740B04B59F41092BD041092C4
:10067000BE041092BF041092C004E0E0F8E30995B4
:1006800012E0A0E0B1E0EEECF0E502C005900D92C2
:10069000A033B107D9F724E0A0E3B2E001C01D9276
:1006A000AD3BB207E1F70E94E3200C9401280C94C3
:1006B0000000982F82958F70882311F0982F84E086
:1006C000292F26952695222311F08E5F922F96953D
:1006D00091118F5F08958093760408958093770435
:1006E000089521E030E001C0220F8A95EAF7809159
:1006F0007704822B0E946E03089521E030E0A90167
:1007000002C0440F551F8A95E2F7CA018095909167
:10071000770489230E946E030895292F943098F559
:100720008C3088F590E03CE0239F800D911D1124D2
:10073000282F277041E001C0440F2A95EAF723E0F3
:10074000969587952A95E1F7FC01EE0FFF1FE80FBC
:10075000F91FE95AFB4F20E030E070E05191DF01D2
:100760001197CB01022E02C0969587950A94E2F765
:10077000817081958527842385278C932F5F3F4F38
:100780002330310559F70895292F943078F58C30AE
:1007900068F590E03CE0239F800D911D1124682FA7
:1007A000677023E0969587952A95E1F7FC01EE0F97
:1007B000FF1FE80FF91FE95AFB4F40E050E080E0CF
:1007C000219130E0062E02C0369527950A94E2F773
:1007D00021703327042E01C0220F0A94EAF7822BDE
:1007E0004F5F5F4F4330510559F7089580E00895FA
:1007F0009091770421E030E0F90101C0EE0F8A9575
:10080000EAF7D90102C0AA0FBB1F6A95E2F7EA2BEB
:1008100001C0220F4A95EAF7892F8E23E81305C0FD
:10082000892F822B0E946E0308952095822F8923A1
:10083000F9CF80917D0490917C04981301C00895B4
:100840008F5F8770FACF9091780480958923809389
:100850007804282F277021110DC0891759F0909125
:100860007A0492FF07C08695869586950E947D033F
:10087000109278040895982F90958091730489239D
:10088000809373040895803E9105D1F1C8F48133BB
:10089000910509F47FC048F48932910509F46FC0CD
:1008A0008A32910509F47DC0089589339105E1F0FC
:1008B00082389105C9F08533910509F45BC008952C
:1008C000843E9105D1F148F4823E910531F1833E99
:1008D000910541F181EE90E00895863E9105C1F1C8
:1008E000873E9105E1F1089520917904237021114B
:1008F00065C020917A0423FF14C089E290E0089536
:100900002091790420FD43C030917A0430FF09C062
:1009100024FF4EC080E090E008952091790422FDEC
:10092000F7CF08952091790422FD45C030917A04D3
:1009300030FD44C024FFF5CFEDCF20917A0421FF94
:10094000F0CF8091790484FDE5CF87EE90E00895A3
:100950002091790423FFE5CF24FDDCCFF6CF209151
:10096000790423FD2EC030917A0431FFE3CF84EE69
:1009700090E008952091790425FFD3CFBECF209138
:10098000790425FD21C020917A0423FFCACF89E391
:1009900090E008952091790426FFC3CF8AE290E089
:1009A00008952091790426FFBCCF81E390E008955B
:1009B00083EE90E0089582EE90E0089580EE90E05E
:1009C000089586EE90E0089585E390E0AACF909197
:1009D000790492FF10C041E0282F2471243009F0DF
:1009E00040E031E0282F2871283009F030E043172B
:1009F00011F02CE0822793FF10C041E0282F2471D2
:100A0000243109F040E031E0282F2871283109F025
:100A100030E0431711F02CE0822730917A0430FF48
:100A200010C051E0282F2171213009F050E041E041
:100A3000282F2871283009F040E0541711F029E0E0
:100A4000822731FF10C041E0282F2171213109F0A8
:100A500040E031E0282F2871283109F030E04317B9
:100A600011F029E0822794FD877E08951F93CF938C
:100A7000DF930E944304EC01811522E5920708F000
:100A800053C0811540E5940708F0DDC0803E910514
:100A9000F8F48D3C910508F0AEC0883A910580F4D9
:100AA000853A910508F099C08130910521F00497AD
:100AB000813A910550F4CE01DF91CF911F910895B5
:100AC000885A91094B9708F48BC0C0E0D0E0F3CF6F
:100AD000811550E49507F8F4C11580E2D80708F0B5
:100AE000CBC0C83ED10538F3CE019A9581159F4100
:100AF00060F78D2F0E94E704182FCE0199270E94DE
:100B00004304212F30E0322F2227E901CC27DF7167
:100B1000C82BD92BD0CF99270E944304CC27DF7054
:100B2000C82BD92BD06AC7CF803842E59407C8F5C7
:100B3000803652E5950708F067C0C03482E5D807D3
:100B4000B0F08C2F86958695877020E2829FC00139
:100B50001124C37021E030E0A90102C0440F551FE9
:100B6000CA95E2F7EA01C82BD92BDC68A4CFC032C2
:100B700052E5D50708F041C08C2F8695869520E276
:100B8000829FC0011124C37021E030E0A90102C09E
:100B9000440F551FCA95E2F7EA01C82BD92BDD682F
:100BA0008ACF803C52E5950760F48F71C03AD245F8
:100BB00008F03FC090E0982F8827EC01C46FD06AFE
:100BC0007ACF805C9245809708F07FCFDC2FCC27CE
:100BD000CC27DF71C06FD06A6ECFA497D0646BCF83
:100BE000C85AD0E0CC0FDD1FC650DE4F0990D88127
:100BF000C02DD46460CFD0655ECFCF71D0E0DC2F44
:100C0000CC27C16FD06A57CF86958695877020E232
:100C1000829FC0011124C37021E030E0A90102C00D
:100C2000440F551FCA95E2F7EA01C82BD92BDA68A1
:100C300042CF0E94E704C82FD0E0DC2FCC27CC277E
:100C4000DF71D06238CF8F710E94E70465E0D695DE
:100C5000C7956A95E1F7CF70D0E0DC2FCC27282F1D
:100C600030E084FF05C054E0220F331F5A95E1F7AE
:100C7000C22BD32BD0691FCF8D2F8F710E94E70419
:100C8000182FCE0199270E944304212F30E0322FE4
:100C9000222722273F71282B392BE901D2CF80E070
:100CA0000895F894E82FE295EF70F0E041A18F707D
:100CB00021E030E0B90102C0660F771F8A95E2F7A4
:100CC000CB01962F9095942391A392A1892B82A377
:100CD00078940895A0E0B0E0E0E7F6E00C943B27BC
:100CE000E82FF0E0E357FB4F711109C0E4918E2F1C
:100CF0007E2F6E2FCDB7DEB7EAE00C945727262F54
:100D000030E0C72FD0E0F491EF2F86E0829F800182
:100D1000839F100D1124EE24EA94F12CC801B70131
:100D20000E941F27AB01220F331F65E5649FC0019E
:100D3000659F900D1124281B390B822F880F280FD7
:100D4000C7018C1B9D0BF89FD001F99FB00D11249A
:100D50008B2F2C9FB0012D9F700D1124672F7727AB
:100D60005701A61AB70AFA9D6001FB9DD00C112409
:100D70007D2D5701A21AB10895012C9F50012D9F7E
:100D8000B00C3C9FB00C1124AB2CBB24EA18FB0820
:100D9000FE9DE001FF9DD00D112443305105C1F0AF
:100DA0000C3F93E0190750F44130510509F4A1CFED
:100DB0004230510589F07E2FED2F9BCF44305105F5
:100DC00071F046305105B9F3EB2F8D2D7F2F91CF68
:100DD000ED2D7B2F8F2F8DCF7B2F8D2F8ACF7D2FCA
:100DE000EB2FF8CF9C0180E090E0269F812D369F6D
:100DF000800D911D11240895409104015091050129
:100E000025E038E0429FC001439F900D529F900D16
:100E10001124875E994C9093050180930401890FFA
:100E20000895982FE82F96FDE0958E2F8F7096FDF0
:100E30008F5FE695E695E695E670F0E0EB5DFE4F98
:100E40002181289F202D812D112422952F7082959C
:100E5000807F282B8081820F97FD8195805808958F
:100E60000F931F93CF93DF93D62F072F182FC42FE5
:100E7000822F0E941107982FEC2FF0E0EE0FFF1F3A
:100E8000E359FE4F80818058980F97FD9195990FF7
:100E9000292F3CE0239F212D1124622F6D0F702FED
:100EA000812FDF91CF911F910F910895E42FF0E0F2
:100EB000EE0FFF1FE359FE4F9081921B97FD919516
:100EC000292F38E1239F212D1124620F0895A4E0DA
:100ED000B0E0EDE6F7E00C94432720916F0430E199
:100EE000230F08F42FEF60E1822F90E00E94F206BA
:100EF000BC0188EB9BE00E941F27CB01A0E0B0E083
:100F0000BC01CD012496E2E00C945F2790910B0484
:100F1000982B90930B0408950E94571608950E94F1
:100F2000AE1608959AE0899F802D1124980F903372
:100F300008F09FE20895982F862F20916B0423706C
:100F4000222389F0992381F0993080F49F73990FBF
:100F5000990F20916B042370922B90936B04109245
:100F600012010E948607089591E0F1CF98E0EFCF3B
:100F700080916B04869586958F5F893008F081E0BB
:100F800061E00E949B07089590916B049695969559
:100F90008FEF890F913009F488E061E00E949B0790
:100FA0000895982F822F20916B042370222359F0EB
:100FB00090936C0460936D04473908F046E94093C0
:100FC0006E040E9486070895EBE6F4E0818190E0CC
:100FD00021E04381628108960E94D1070895EBE6E3
:100FE000F4E0818121E0438162818850990B0E9465
:100FF000D1070895EBE6F4E0628128E0620F08F47F
:101000006FEF818121E0438190E00E94D107089534
:10101000EBE6F4E0628128E0621B08F460E0818185
:1010200021E0438190E00E94D1070895EBE6F4E0CF
:10103000438128E0420F08F44FEF818121E0628173
:1010400090E00E94D1070895EBE6F4E0438128E0A8
:10105000421B08F440E0818121E0628190E00E941F
:10106000D1070895EBE6F4E024813AE0230F08F479
:101070002FEF248381E00E9486070895EBE6F4E0D9
:1010800024813AE0231B08F420E0248381E00E94BD
:1010900086070895FA01882311F009950895FB0148
:1010A000FCCFE0914D04F0914E04309729F001906F
:1010B000F081E02D0995089580E00895A3E0B0E067
:1010C000E4E6F8E00C9443279C018091560290914D
:1010D000570282179307A1F03093570220935602CC
:1010E000E0914D04F0914E04309751F083E08983F4
:1010F0003B832A830084F185E02DCE01019609957A
:101100002396E2E00C945F27A3E0B0E0EAE8F8E081
:101110000C9443279C0180915402909155028217B0
:101120009307A1F03093550220935402E0914D04AF
:10113000F0914E04309751F084E089833B832A83F9
:101140000084F185E02DCE01019609952396E2E019
:101150000C945F279C01FC0132968FEF90E0419147
:10116000461751F08F3F19F4411101C0892F9F5F3D
:101170009630A9F78F3F09F40895280F311D87FD98
:101180003A95F901628308959C01FC013296285F2B
:101190003F4F8191861303C0DF0111971C92E21724
:1011A000F307B9F70895A4E0B0E0E9EDF8E00C9496
:1011B00043278FB7F89420914A0330914B03409115
:1011C0004C0350914D0329833A834B835C838FBF3B
:1011D00069817A818B819C812496E2E00C945F275F
:1011E00080915302089508950895FC019B01809118
:1011F000490290914A028617970740F0672B29F41D
:101200008091E8008E778093E800C90140E0009764
:1012100041F4411106C08091E80082FF2FC080E0B8
:10122000089520914A042223A9F12530A9F12091A3
:10123000E80023FD2DC02091E80022FDECCF209195
:10124000E80020FFE4CF3091F3002091F2000097F6
:1012500019F02830310558F041E02830310509F007
:1012600040E02091E8002E772093E800D0CF419114
:101270004093F10001972F5F3F4FE9CF80914A04DF
:10128000882341F0853041F08091E80083FFC3CF8F
:1012900081E0089582E0089583E0089580914302FB
:1012A00087FF13C08091E80082FF06C08091E800AC
:1012B0008B778093E80004C080914A048111F2CFBB
:1012C000089580914A048823D9F38091E80080FF33
:1012D000F8CF8091E8008E77ECCF2091E400309138
:1012E000E50095E6A9018091EC008170882331F03A
:1012F0008091E80080FF06C080E008952091E8001A
:1013000022FD1BC080914A04882391F0853091F022
:101310008091EB0085FD10C02091E4003091E50044
:101320004217530701F391509111DCCF84E00895E7
:1013300082E0089583E0089581E00895E8EDF0E00B
:1013400080818E7F80831092E2001092DA001092EA
:10135000E100A0EEB0E08C9181608C9380818F776A
:10136000808319BCA7EDB0E08C918E7F8C93808137
:101370008F7E8083109242020895EF92FF920F9326
:101380001F93CF93DF937C01809101010E9492070C
:10139000C82F192F60916F046695669521E0620F42
:1013A00008F46FEF8091FF03909100040E94F20611
:1013B000082FD0E0C11748F081E01F3208F080E02C
:1013C000CDB7DEB7E6E00C945B27FE01E553FE4F98
:1013D0008081909102018923882391F060916C04AF
:1013E00070916D0480916E04202F4C2FF7010995A8
:1013F0000E946A06462F672F282FCE010E948C0775
:101400002196D8CF982FE42FE2709093E9008913AA
:1014100008C0762F242F50E0E11111C091E0980F01
:10142000F4CF7091EC002091ED005091F00021FD7F
:1014300006C09F5F973049F78093E9000895309187
:10144000EB003E7F3093EB003091ED003D7F309319
:10145000ED003091EB0031603093EB007093EC00C5
:101460002093ED005093F0002091EE0027FDE1CF96
:101470000895A0E0B0E0EFE3FAE00C943D27C8ED5A
:10148000D0E088818F7E8883E7EDF0E08081816005
:10149000808384E082BF81E08093420288818E7FD6
:1014A000888302EE10E0F80110821092DA0081EEDB
:1014B000C82ED12CF601108288818F77888388818D
:1014C0008068888388818F7D888319BC10924A0444
:1014D0001092410210920E041092400290EEE92EFA
:1014E000F12CF70180818B7F8083888181608883E4
:1014F00042E060E080E00E94020AF60180818E7F77
:101500008083F8018081816080838081886080830E
:10151000F70180818E7F8083888180618883CDB749
:10152000DEB7E8E00C945927E0917D0490917C04AB
:1015300027E0E91302C080E00895AE2FB0E02E9FAF
:10154000F0011124E258FB4F3181361306C030817F
:10155000381303C03581341304C0FD013196E770A0
:10156000E8CF81E0089581E08093E00080E28093FD
:10157000D8001092C9008FE19EE40197F1F700C0F6
:10158000000087E090EBDC018093BD049093BE04E3
:10159000A093BF04B093C00488E19CE00FB6F89418
:1015A000A895809360000FBE90936000FFCF0F93CB
:1015B0001F93CF93DF93EB018A0190914A049430FB
:1015C00079F58093E9008FEF9091E80095FD07C0D1
:1015D00095ED9A95F1F7000081508111F5CF80913A
:1015E000E80085FF1DC00E946D09811114C0809123
:1015F000E80085FD06C08091E8008E778093E800C2
:10160000F2CF88818093F100015011090115110575
:1016100011F02196ECCF8091E8008E778093E8005E
:10162000DF91CF911F910F910895CF93DF93D82F22
:10163000C92F48E050E0682F792F81E00E94D70A37
:1016400088E0ED2FFC2FABE4B2E001900D928A957B
:10165000E1F7DF91CF910895BC0143E050E084E0D1
:101660000E94D70A089590917A0492FB222720F9CC
:10167000281779F080FB92F990937A0460917904AD
:1016800070917A0484E090E00E94FB2782E00E943F
:10169000230408951F93CF93DF93962F122F632F68
:1016A0008530D8F49430C8F44C30B8F4C42FD0E06E
:1016B000CC0FDD1F28E1929FC00DD11D112490E6B3
:1016C000899FC00DD11D1124CE0189960E94DD276E
:1016D000612FCE018A960E94DD27DF91CF911F9165
:1016E0000895AF92BF92CF92DF92FF920F931F9314
:1016F000CF93DF93A12CB12C00E0650110E013C063
:10170000FE01259134914F2D612F802F0E944A0BAD
:101710002296F3948CE0F812F3CF8CE0C80ED11C23
:101720001F5F143039F0E601CC0FDD1FCF50DE4FC4
:10173000F12CE6CF0F5F80E3A80EB11C0530E9F66F
:10174000DF91CF911F910F91FF90DF90CF90BF90CD
:10175000AF900895CF93DF93C9E0D2E060E0CE016F
:101760000E94DD272196C11584E0D807B9F7DF91E3
:10177000CF910895882381F063E285E290E00E9492
:10178000DD2762E186E290E00E94DD2765E287E2E4
:1017900090E00E94DD2708956FEF85E290E00E94BF
:1017A000DD276FEF86E290E00E94DD276FEFEFCF3D
:1017B00080E00E94BA0B60E088E290E00E94DD27A2
:1017C0000E94710B0E94AA0B81E00E94BA0B08953F
:1017D0000F931F93CF93DF93853030F5643020F55E
:1017E0004C3010F5C42FD0E0CC0FDD1F28E1629FF4
:1017F000C00DD11D112430E6839FC00DD11D1124D1
:10180000CE0189960E94BF27082F10E0102F0027D5
:10181000CE018A960E94BF279801282BC901DF912B
:10182000CF911F910F91089580E090E0F8CF462F5F
:10183000672F743038F44C3028F4853018F40E9447
:10184000E80B089580E090E00895A0E0B0E0EBE2BE
:10185000FCE00C943E277C01009177048091760493
:10186000082BC4E0D0E010E0C8010C2E02C0959512
:1018700087950A94E2F780FD09C02197A8F7D12C3B
:101880008D2DCDB7DEB7E7E00C945A27DC2EB701DB
:101890008C2F0E94170C0E943605019771F3F0CF30
:1018A0000F931F93CF93FC018581008111818823C1
:1018B00091F0662381F0C8010E94250CC82F682F83
:1018C000C8010E948D03B8018C2F0E94170CCF9184
:1018D0001F910F910895C8010E94C403C82FF3CF30
:1018E000CF93DF93D82FC92F0E94250C6D2F7C2F0B
:1018F0000E94170C0E943605DF91CF910895FC01DC
:1019000084818823A1F0808191810E94700C282F0E
:1019100092959F70963091F060F4925F9F70923034
:1019200030F481E0203F79F030F4283E30F080E060
:1019300004C09A5FF3CF243FD1F7089581E0283E99
:1019400018F0213FF9CF0895089585E290E00E94B4
:10195000BF27833289F486E290E00E94BF2782315C
:1019600059F487E290E00E94BF2791E0853209F0A8
:1019700090E0892F8170089580E0FCCF80917304FE
:1019800090917B04892B40917404442389F090E06A
:1019900024E332E0F90150812F5F3F4F51119F5FE7
:1019A00052E02A333507B1F7911110927404842B59
:1019B0008093320248E050E06FE474E082E392E00A
:1019C0000E948027892BA9F088E0E2E3F2E0AFE4EF
:1019D000B4E001900D928A95E1F7E0914D04F09109
:1019E0004E04309731F00280F381E02D82E392E0E3
:1019F0000995089510927304E4E3F2E086E0DF01B4
:101A00001D928A95E9F780E090E00E945E0880E0F0
:101A100090E00E94840810927B040E94BE0C0895FE
:101A20000E94FA0C2FEF84E39CE02150804090400C
:101A3000E1F700C0000088E19CE00FB6F894A8959B
:101A4000809360000FBE90936000FFCFAAE2B0E0E9
:101A5000ECE2FDE00C94422783E492E0FC01019665
:101A60002091F100208322E08B349207B9F7809116
:101A70004402893009F456C0C8F4823009F4B3C076
:101A8000833009F482C0813071F18091E80083FFD6
:101A9000E7C080914302909144029A3008F0E0C080
:101AA000E92FF0E0ED5FF74D0C946A278A3009F4D6
:101AB00089C08B3051F780914302813231F7809198
:101AC000470290914802892B01F78091E800877FB7
:101AD0008093E8000E944E098091450280930001A6
:101AE0000E94FA0CD2CF80914302813A71F6809124
:101AF000E800877F8093E800809147029091480238
:101B0000892B61F060E080E090E070E00E94F508D1
:101B10008091E8008B778093E800B7CF68E08BE492
:101B200092E0F3CF80914302813209F0AECF8091F1
:101B30004702909148028D7F892B09F0A6CF8091B2
:101B4000E800877F8093E8008091E80082FF18C05A
:101B50009091F3008091F200029731F48091F100AE
:101B6000813011F0863021F48091F100809353028E
:101B70008091E8008B778093E8000E944E0985CF22
:101B800080914A048111E0CF80CF80914302813A55
:101B900009F07BCF8091470290914802892B09F090
:101BA00074CF8091E800877F8093E8008091E800FF
:101BB00080FFFCCF809100018093F1008091E800CC
:101BC0008E77D9CF80914302813209F05ECF809128
:101BD000E800877F8093E8000E944E0980914602CA
:101BE00080933F0252CF80914302813A09F04DCF5A
:101BF0008091E800877F8093E8008091E80080FF73
:101C0000FCCF80913F02D8CF803889F0823841F5EF
:101C1000809147028F70873018F58093E90080919A
:101C2000EB0085FB882780F91092E90006C08091BF
:101C3000400290910E04911182609091E800977F8C
:101C40009093E8008093F1001092F1008091E800F9
:101C50008E7723C0811116C080914502813011F129
:101C60008091E80083FF0AC08091E800877F80931D
:101C7000E8008091EB0080628093EB00AA96E3E09D
:101C80000C945E27823061F780914502882389F0A9
:101C90001092E9008091E800877F8093E8000E941D
:101CA0004E09DECF81E0933009F080E080930E048E
:101CB000EFCF809147028F702FEF280F263080F6EC
:101CC0008093E9002091EB0020FFE2CF933031F4C4
:101CD0008091EB0080628093EB00DACF9091EB0073
:101CE00090619093EB0021E030E0A90102C0440F25
:101CF000551F8A95E2F74093EA001092EA0080911E
:101D0000EB008860E8CF8111ABCF109145021F77BF
:101D10008091E3008078812B8093E3008091E8003C
:101D2000877F8093E8000E944E098091E80080FF41
:101D3000FCCF8091E30080688093E30083E0111181
:101D400001C082E080934A048BCF8058823008F033
:101D500087CF40914502509146024C3D83E05807A1
:101D600099F583E08A838AE289834FB7F894DE018C
:101D7000139620E03EE051E2E32FF0E0509357004D
:101D8000849120FF03C082958F703F5F8F708A30EF
:101D9000C8F0895C90E08D939D932F5F243161F7AB
:101DA0004FBF8091E800877F8093E8006AE270E08F
:101DB000CE0101960E94F5088091E8008B77809310
:101DC000E8004ECF805DE6CF8091470290914802B7
:101DD000252F33272330310509F44AC078F5213007
:101DE000310509F479C08BE590E0E4E4F1E02230BC
:101DF000310509F035CF2091E800277F2093E800D6
:101E00002091490230914A028217930708F49C01FD
:101E100040E02115310509F064C0411162C0809194
:101E2000E80082FDC9CF80914A04882329F28530D9
:101E300019F28091E80083FFF2CFBECF2132310545
:101E400009F43BC02232310509F00ACF83309105F5
:101E500008F006CFFC01EE0FFF1FE75EFE4F01907A
:101E6000F081E02D8A5E9E4FDC018C9190E011C0E4
:101E7000CA019927413089F082309105B1F0892B50
:101E800009F0EECEEDEEF1E0E4918E2F90E0EDEE74
:101E9000F1E0009709F4E4CEAECFE5EDF1E0E49196
:101EA0008E2F90E0E5EDF1E0F4CFE1EBF1E0E4918D
:101EB0008E2F90E0E1EBF1E0ECCF8330910508F05C
:101EC000CFCEFC01EE0FFF1FE15EFE4F0190F081CF
:101ED000E02D89E090E08FCF82E190E0EFE9F1E042
:101EE0008ACF80914A04882309F466CF853009F4AB
:101EF00063CF8091E80083FD5FCF8091E80082FD91
:101F00008ECF8091E80080FF84CF9091F300809184
:101F1000F2002115310519F08830910550F041E0AB
:101F2000089709F040E08091E8008E778093E80000
:101F300070CF44914093F1003196215031090196C0
:101F4000E8CF803809F08CCE8091E800877F8093BD
:101F5000E800809141028093F10078CE811180CE1B
:101F600010914502123008F07BCE8091E800877F07
:101F70008093E800109341020E944E091123D1F092
:101F800084E080934A0442E061EC81E00E94020A0E
:101F900042E261EC84E00E94020A42E261EC82E0EB
:101FA0000E94020A42E260EC83E00E94020A8091F1
:101FB0004A0456CE8091E30087FDE2CF81E0E1CF75
:101FC000CF93C82F8823A9F08CEF8C0F813A98F417
:101FD000E4E3F2E08AE392E02191C217B1F18E17B7
:101FE0009F07D1F76C2F82E392E00E94AA080E941B
:101FF000BE0CCF91089580E28C0F883068F4C770D2
:1020000021E030E001C0220FCA95EAF78091730405
:10201000822B80937304EBCF8BE58C0F833038F4E5
:102020002C2F2452330BC9010E945E08E2CFC85AFC
:10203000CB31F8F6EC2FF0E0EE0FFF1FE650FE4F2D
:10204000808191810E948408D4CF6C2F82E392E03A
:102050000E94C4080E94BE0CC5CF682F882341F19E
:102060008CEF860F813A38F482E392E00E94C40834
:102070000E94BE0C089580E2860F883048F4677095
:1020800081E001C0880F6A95EAF70E943B04F0CF17
:102090008BE5860F833028F480E090E00E945E0894
:1020A0000895685A6B3120F480E090E00E94840823
:1020B00008950F931F93CF93C82F00E010E089334A
:1020C00011F400E510E08C2F0E94E00F01151105BE
:1020D00039F48C2F0E942D10CF911F910F910895EC
:1020E0008FE99FE00197F1F700C00000015011094E
:1020F000EDCF882339F090917304892B809373047A
:102100000E94BE0C0895882321F00E943B040E9487
:10211000BE0C0895A8E0B0E0E0E9F0E10C9443279C
:1021200066EE7EEF80E090E00E94FB2760E082E0B8
:1021300090E00E94DD2781E08093760461E083E0F7
:1021400090E00E94DD2760E074E184E090E00E946E
:10215000FB2760E086E090E00E94DD276FEF87E0DC
:1021600090E00E94DD2740E050E0BA0188E090E076
:102170000E94EF2760E084E290E00E94DD2760E0AB
:1021800087E190E00E94DD2760E08CE090E00E9413
:10219000DD2760E08DE090E00E94DD2719821A8241
:1021A0001B821C821D821E821F82188648E050E01E
:1021B00068E170E0CE0101960E94CD2740E050E03A
:1021C000BA0180E290E00E94EF2780E00E94BA0B03
:1021D0000E94D80B40E050E0BA018FE090E00E94EE
:1021E000EF2740E050E0BA0183E190E00E94EF2742
:1021F0002896E2E00C945F2748E050E068E170E048
:102200008BE694E00E94CD2710920B040895EBE634
:10221000F4E085E080838091130190911401A091F6
:10222000150181839283A3838FE784838FEF858356
:102230000E94FC100895A5E0B0E0E1E2F1E10C9409
:102240003527182F8091110191E081130CC0209146
:102250006B04237030E04091100150E091E02417AE
:10226000350709F490E09170909303018091700418
:1022700090910201981739F08093020140E060E0EC
:1022800080E00E948F07193008F0E1C1E12FF0E0F3
:10229000E35FF74D0C946A2780910301882309F4CA
:1022A0001BC340E060E080E00E948F078091010145
:1022B0008F5F8093010182E080931201809103017E
:1022C000882309F40EC341C2809101010E94920744
:1022D0008983092F60916C0470916D0480916E0464
:1022E0000E946A06F62EE72ED82E3981232F30E081
:1022F0003A8329835981501730F081E00F3208F476
:10230000B2C080E0B0C0E981FA81E553FE4F808120
:10231000909102018923882339F02D2D4F2D6E2DA8
:1023200089819A810E948C0749815A814F5F5F4F52
:102330005A834983DFCF809101010E949207092FC0
:10234000D0906D04C0906E0430916F0420E4239F00
:10235000212D1124E82FF0E0FA83E983E22EF12CFD
:102360003981301750F6E981FA81E553FE4F8081BB
:102370009091020189238823F9F0E981FA81EE0F17
:10238000FF1FE35CFE4F20A92E9DC0012F9D900DE5
:10239000112475E0959587957A95E1F760916C0425
:1023A000680F7D2D8C2D0E946A06462F672F282FDF
:1023B00089819A810E948C0729813A812F5F3F4F42
:1023C0003A832983CDCF809101010E9492078983AE
:1023D000092FE0906D04F0906E0440916C044D83E1
:1023E00060916F046695669566958091FF03909164
:1023F00000040E94F2060E94110720E8280F27FD22
:102400002195220F3CE0239F212D11246D81620F25
:102410007E2D8F2D0E946A06F62EE72ED82E9981EA
:10242000892F90E09A838983F981F01708F065CFAE
:10243000E981FA81E553FE4F808190910201892361
:10244000882339F02D2D4F2D6E2D89819A810E9480
:102450008C07E981FA813196FA83E983E5CF80E33D
:1024600097E00E94BD09909101019F5F9093010147
:1024700081116BC182E0809312018091030181116F
:1024800064C111231ECF86E597E0EBCF8091010157
:102490000E949207F92E4091FF0350910004609131
:1024A00001047091020480914E0390914F03A0911A
:1024B0005003B091510384179507A607B70708F09A
:1024C00055C00E94FC064FE2849F90011124832F87
:1024D000992787FD9A959A838983FC01E553FE4FDE
:1024E0008081909102018923882309F43FC00E94D2
:1024F000FC0681FD3FC00E94FC06082F0E94FC06DE
:10250000E0E88E9FC00111247FE7790F80916E046F
:10251000602F0E946A06462F672F282F89819A8193
:102520000E948C0720916F0430E1230F08F42FEFF5
:1025300060E1822F90E00E94F206BC0184EF91E0FE
:102540000E941F278091FF0390910004A091010435
:10255000B0910204860F971FA11DB11D80934E03F9
:1025600090934F03A0935003B093510381E0FEE298
:10257000FF16C5CE80E070E000E0CACF8091030175
:102580000091DF031091E0032091E1033091E20319
:102590004091FF0350910004609101047091020486
:1025A000401751076207730708F451C0811158C0E2
:1025B000809101010E949207F92E282F30E03A8382
:1025C00029838901000F111F020F131F0E5A1C4F80
:1025D00039813F1508F482C04EE24F1508F0B0C0B3
:1025E0008F2D90E0AC01440F551F480F591F4350E9
:1025F000510965E573E082E593E00E9496270E9409
:10260000FC0681FF86C01092DC031092DD0310925D
:10261000DE030E94670769837A838B839C838091A2
:10262000FF0390910004A0910104B091020429815C
:102630003A814B815C81820F931FA41FB51F809349
:10264000DF039093E003A093E103B093E203809152
:1026500001018F5F8093010182E08093120175C0B8
:1026600040E060E080E00E948F0702E513E01A82FC
:1026700019820E94FC0681FF10C0F80110821182AD
:10268000128229813A812F5F3F4F3A8329830D5F60
:102690001F4F2F32310569F78BCF0E94FC06F82EB1
:1026A0000E94FC06F0E88F9FC00111247FE7790F9C
:1026B00089819A81880F991F29813A81820F931FFE
:1026C000AC014E5A5C4F6A016F2D80916E040E94DE
:1026D0006A06F601608371838283D3CFE981FA8130
:1026E000E553FE4F8081909102018923882341F0B8
:1026F000F80122814081618189819A810E948C0741
:102700000D5F1F4F29813A812F5F3F4F3A83298305
:102710005FCF0E94FC0689830E94FC0650E8859FDB
:10272000C00111247FE7790F698180916E040E94B6
:102730006A066093DC037093DD038093DE0369CF48
:10274000809101018F5F809301012596E0E10C9457
:10275000512780910301882329F040E060E080E068
:102760000E948F07809101010E949207592E40918B
:10277000FF03509100046091010470910204809164
:10278000FB039091FC03A091FD03B091FE0384171D
:102790009507A607B70708F084C060916C04709194
:1027A0006D0480916E040E946A06062F772E682EB3
:1027B00083EEE82E83E0F82E4DE351E05A834983FF
:1027C000A980BA8045016701412CF60121916F0172
:1027D000F40181914F0190E0222309F466C0262D77
:1027E000402F672D0E948C07F5018385262D402FF1
:1027F000672D90E00E948C07F601808131978083DD
:102800004394F1E0AF1AB10825E04212DECFE9812E
:10281000FA81858190E0F7012581222309F450C0D7
:10282000262D402F672D0E948C07E981FA81868131
:10283000262D402F672D90E00E948C070E94FC06F9
:10284000837091E0811190E0F7019583F6E0EF0E3F
:10285000F11C29813A81245F3F4F3A8329832D5609
:10286000314009F0ADCF0E94670769837A838B837B
:102870009C838091FF0390910004A0910104B0918A
:10288000020429813A814B815C81820F931FA41F2E
:10289000B51F8093FB039093FC03A093FD03B093BB
:1028A000FE0381E03EE253162ACD20E040E060E0E6
:1028B0000E948C07F501838520E040E060E099CF1D
:1028C00020E040E060E00E948C07E981FA81868187
:1028D00020E040E060E0AFCF809101018F5F809306
:1028E000010183E0BACE4F925F926F927F928F92F6
:1028F0009F92AF92BF92CF92DF92EF92FF92CF93CF
:10290000DF93C0904603D0904703E0904803F090D7
:1029100049038FB7F89440904A0350904B0360905E
:102920004C0370904D038FBF530142018C189D08DA
:10293000AE08BF080E94D308609346037093470314
:102940008093480390934903A0910F04EFE0F4E0D3
:102950004A2F50E02FEFC20ED21EE11CF11CC4180A
:10296000D508E608F708A51326C040930F04209168
:102970000D04C0E0211109C020916B04C22FC37067
:10298000CC2319F0C22FC695C69520911201223092
:1029900009F45EC118F5211133C010920101609352
:1029A000FF0370930004809301049093020481E07C
:1029B0008093120116C0218D328D2901612C712C5A
:1029C000C414D504E604F70420F441505F5F329646
:1029D000CACF280D391D328F218FF8CF233009F44B
:1029E00042C1DF91CF91FF90EF90DF90CF90BF90E9
:1029F000AF909F908F907F906F905F904F900895D1
:102A00008C2F0E941B11CC2361F380911201823024
:102A100041F7809177040E945903823009F4C0C0C5
:102A200050F5C0E0D0E0882309F48AC020E040E0FF
:102A300060E0CE010E948C072196CF32D105B1F71C
:102A400020E041E26FEF81E090E00E948C0720E0FF
:102A500041E26FEF82E090E00E948C0720E041E2CB
:102A60006FEF83E090E00E948C0720E041E26FEF7F
:102A700084E090E07BC0833009F4A7C0C0E0D0E0E0
:102A8000843009F0AECF20E040E060E0CE010E944B
:102A90008C072196CF32D105B1F720E040E06FEFEF
:102AA00086E290E00E948C072FEF4FEF6FEF80E0FF
:102AB00090E00E948C072FEF4FEF6FEF81E090E0E6
:102AC0000E948C072FEF4FEF6FEF8CE090E00E9499
:102AD0008C072FEF4FEF6FEF8EE090E00E948C0796
:102AE0002FEF4FEF6FEF8FE090E00E948C072FEFFA
:102AF0004FEF6FEF80E190E00E948C072FEF4FEFD8
:102B00006FEF81E190E00E948C072FEF4FEF6FEFA6
:102B100088E190E00E948C072FEF4FEF6FEF89E183
:102B200090E00E948C072FEF4FEF6FEF8AE190E06B
:102B30000E948C072FEF4FEF6FEF8BE190E016C0F4
:102B400024E144E164E1CE010E948C072196CF325A
:102B5000D105B1F720E04FEF60E08BE290E00E94FA
:102B60008C0720E040E06FEF8CE290E00E948C0741
:102B700038CFCD30D105F4F42FEF4FEF6FEFCE010A
:102B80000E948C072196CC30D10599F720E041E2D4
:102B90006FEF8CE090E00E948C07CDE0D0E0E9CFB1
:102BA00020E040E060E080E090E00E948C07C1E01F
:102BB000D0E0E2CF20E040E060E0CE010E948C0750
:102BC0002196CF32D105B1F70CCFC0E0D0E020E0A4
:102BD00040E060E0CE010E948C072196CF32D10503
:102BE000B1F720E040E06FEF88E090E00E948C07B2
:102BF00020E04FEF6FEF8BE090E00E948C0720E029
:102C00004FEF6FEF83E290E00E948C0720E040E0FE
:102C10006FEF87E290E00E948C072FEF4FEF6FEF8E
:102C200082E090E00E948C072FEF4FEF6FEF8DE076
:102C300090E00E948C072FEF4FEF6FEF8EE090E057
:102C40000E948C072FEF4FEF6FEF8FE090E08ECF59
:102C5000C093110180916B048370809310010E94D6
:102C6000921783E0A5CE80910B0481110E94FC1085
:102C70004091FF035091000460910104709102049F
:102C80002FB7F89480914A0390914B03A0914C0385
:102C9000B0914D032FBF841B950BA60BB70B40972C
:102CA000A105B10508F49DCE109212019ACEA4E0C0
:102CB000B0E0EDE5F6E10C944027F62E042F122F3C
:102CC0008F32910508F046C0BC01660F771F660F72
:102CD000771F6F527C4F44E050E0CE0101960E9476
:102CE000772789818370482F50E02A8130E060EC9B
:102CF000869FC001112483599D4FFC01E20FF31FF1
:102D0000E0817B816C81EF110CC0FC01E70FF11DAC
:102D1000E081E01306C0FC01E60FF11D8081811700
:102D2000C9F0E0ECE49FC001E59F900D11248359A8
:102D30009D4F280F391FF901F082FC01E70FF11DAB
:102D40000083FC01E60FF11D108344595D4F81E0C3
:102D5000FA0180832496E5E00C945C27FF920F93A0
:102D60001F93CF93DF93182F062FF42EC0E0D0E0EF
:102D70002F2D402F612FCE010E9457162196CF3262
:102D8000D105B1F7CDB7DEB7E5E00C945C27E8E5F7
:102D9000F2E08083618324E630E042E050E0BF014E
:102DA00080EA0E94F8260895A4E0B0E0EAEDF6E19A
:102DB0000C9439270E94532665EC8EEF0E94C716AB
:102DC00060E08DEF0E94C71610E060E0812F0E9446
:102DD000C7161F5F1831C9F765EC8EEF0E94C71642
:102DE00061E08DEF0E94C71610E060E0812F0E9425
:102DF000C7161F5F103CC9F765EC8EEF0E94C7161F
:102E000063E08DEF0E94C71660E08FE00E94C71656
:102E100060E080E10E94C7166FEF81E00E94C71654
:102E200061E080E00E94C7168FE39CE90197F1F70B
:102E300000C0000001ED13E09DE8E92E94E0F92EBA
:102E400028E1A22ECC24C394D12CBB24B39444E01B
:102E500050E0B801CE0101960E947727EA814B81AC
:102E60002C8189818370682F70E0AE2FA695A6957E
:102E7000A695A89EC0011124835D9C4FA80FB92F71
:102E8000B11DE770460102C0880C991CEA95E2F773
:102E90003C9138293C93E42FE695E695E695E80FBA
:102EA000F92FF11D4770D60102C0AA0FBB1F4A952A
:102EB000E2F730813A2B3083E22FE695E695E695EE
:102EC000E80FF92FF11D2770C60101C0880F2A9560
:102ED000EAF79081892B80836B5B7C4FFB01B0828A
:102EE0000C5F1F4FE016F10609F0B1CF65EC8EEFD5
:102EF0000E94C71660E08DEF0E94C7168DE2E82E93
:102F000083E0F82E10E0D7016D917D01812F0E94A2
:102F1000C7161F5F1831B9F7109245032496ECE0ED
:102F20000C945527CF93DF9380916C02882339F15D
:102F300065EC8EEF0E94C71661E08DEF0E94C71608
:102F4000C0E0D0E0C093580280E1FE01E359FD4F9C
:102F5000A9E5B2E001900D928A95E1F724E630E010
:102F600041E150E068E572E080EA0E94F826892B92
:102F700049F46096C03CD10529F710926C02DF91AC
:102F8000CF91089581E080934503F7CF1F921FB63C
:102F90001F9211248F939F93AF93BF9380910C0442
:102FA000811113C080914A0390914B03A0914C036F
:102FB000B0914D034196A11DB11D80934A0390939A
:102FC0004B03A0934C03B0934D03BF91AF919F91DE
:102FD0008F911F901FBE1F9018952FB7F894809166
:102FE0004A0390914B03A0914C03B0914D032FBF26
:102FF00008959C014FB7F89480914A0390914B0338
:10300000A0914C03B0914D034FBF821B930B0895C9
:103010000F931F93CF93DF93C62FD42F122F8823A4
:10302000A9F0609369040E94ED1790933E0280938B
:103030003D02C77081E001C0880FCA95EAF70E947F
:103040007910DF91CF911F910F91089580916904BC
:10305000681332C080913D0290913E020E94F917A0
:103060008639910548F5CD130CC0812F0E94591067
:10307000D77081E001C0880FDA95EAF70E948310CB
:10308000E0CFC77001E0802F01C0880FCA95EAF732
:103090000E94831080E28D0F883050F48D2F87704E
:1030A00001C0000F8A95EAF7802F0E947910DDCFCA
:1030B000812F0E945910C5CFC77081E001C0880FD1
:1030C000CA95EAF7DBCFA8E0B0E0E9E6F8E10C94B6
:1030D00037276C01DC0114968C91882309F4C2C057
:1030E00061E0C6010E94500C8C01F60185818823A5
:1030F00009F454C19801375720383105D0F0033412
:10310000FEE71F0709F0B7C184E30E94E00F84E3E4
:103110000E942D1086E00E94E00F86E00E942D1094
:10312000D60115968C91882309F43DC1109269044B
:103130003AC1003108F086C08FEF93E00E94BF27AC
:10314000811180C059E0E52E52E0F52E01114AC0F0
:103150001A821982FE01339686E0DF011D928A955C
:10316000E9F74AE0642E5701BFEFAB1ABB0AC7016B
:103170000E94BF2789831A82882309F463C08130A3
:1031800009F074C087010E5F1F4FC5010E94BF2761
:103190008A83882309F456C09FEF980F933080F5F7
:1031A000E3E0EE0EF11CC8010E94BF278B83882349
:1031B00009F448C01C828E010F5F1F4FD8018C910B
:1031C000882389F2813009F08CC011969C91119767
:1031D00012968C91913009F04BC00E5F1F4F0E94E8
:1031E00059104CC0E11424E0F20661F1C7010E94BD
:1031F000BF27D70111967D018111F4CF0150A6CFD1
:103200008430B9F432E0E32EF12CC8010F5F1F4F78
:103210000E94BF27E1E0F0E0EC0FFD1FEE0DFF1D67
:103220008083882379F08C3731F4FE01EE0DFF1D89
:1032300012827801C0CFFFEFEF1AFF0A27E0E216F3
:10324000F10419F7809178048770882359F0F6010A
:103250008581882339F080917A0482FF03C082E05F
:103260000E9423042896EEE00C9453277501A3CF07
:10327000923039F40E5F1F4F0E94E00F0F5F1F4F17
:103280009DCF933029F40E5F1F4F0E942D10F6CF73
:10329000943019F00F5F1F4FF1CF0E5F1F4F20E0EA
:1032A00030E0A8014F5F5F4F8053990B8A30910542
:1032B00060F02115310511F38FE99FE00197F1F7D7
:1032C00000C0000021503109F4CF629EB001639E1E
:1032D000700D11249C01260F371FF80181818A018E
:1032E000E0CFE82FF0E0E354FA4F7490282F2695B2
:1032F0002695269530E0F901E355FA4F94918770B1
:10330000F901E356FA4FA490B12C082E02C0B594EF
:10331000A7940A94E2F7A1E0AA22BB24F901E3579B
:10332000FA4F8490912C082E02C0959487940A94A9
:10333000E2F7B1E08B229924292F30E002C03595C5
:1033400027958A95E2F720FD0BC0AB28E9F4872D7D
:103350000E9459108114910409F490CF8CE23FCF60
:1033600081EE0E94E00FAB2829F4872D0E945910AE
:1033700081EE11C086EE0E94E00F872D0E94591049
:1033800086EE0E942D10F4CF86EE0E94E00F872D6E
:103390000E94591086EE0E942D10DCCF0334EEE718
:1033A0001E0709F068C0D60115968C911597ED900F
:1033B000FC90882309F438C2C7010E94250C182FFD
:1033C000682FC7010E948D03B701812F0E94170C3F
:1033D0000E9436058C01F601B580A680A2942FE0EC
:1033E000A222809178048770882301F1EB2CBB2006
:1033F000F1F0812F807F803461F080E2800F88308F
:10340000A8F0812F807E803221F4023078F0AA204B
:1034100069F080917A0482FF09C082E00E9423044F
:10342000809178048770EE24E3948111E12C812F40
:1034300082958F70883009F4EBC208F01AC284308C
:1034400008F0F7C1F12FFF70FF2E823008F422C27E
:10345000107F103219F0F29480EFF822002309F463
:1034600050C2013009F499C2BB2009F4A5C2AA20B8
:1034700009F465C225C2F801E851FC47E730F105BF
:1034800008F5EA5EF74D0C946A2726E241EE61EEFC
:103490000E940818D7CE27E245EE65EEF9CF26E266
:1034A00041EE60EEF5CF27E245EE64EEF1CF26E285
:1034B00041EE62EEEDCF27E245EE66EEE9CF28E27F
:1034C00041E0EBCFF601858181110FC00631FCE7A9
:1034D0001F0709F0F7C080916A0469E2811165E372
:1034E00082E392E00E94C4081BC010926904C801E4
:1034F00090578397C0F006312CE7120709F035C1C9
:10350000809173048A7A91E0811101C090E09093D8
:103510006A0469E2811165E382E392E00E94AA08ED
:103520000E94BE0C8FCE84E090E00E94C72790934B
:103530007A0480937904F801E150F047E232F10512
:1035400020F4E35EF74D0C946A2780917904816042
:10355000809379046091790470917A0484E090E01A
:103560000E94FB270E94FA0C6DCE80917A0488603D
:1035700080937A04EFCF809179048260E9CF8091C3
:1035800079048460E5CF809179048860E1CF8091EF
:103590007A048160EDCF80917A048260E9CF8091D6
:1035A00079048061D5CF809179048062D1CF8091F8
:1035B00079048064CDCF0E94FA0C809179048068F0
:1035C000C7CF809179048C60C3CF80917A048360E7
:1035D000CFCF809179048E7FBBCF80917A04877F93
:1035E000C7CF809179048D7FB3CF809179048B7F91
:1035F000AFCF80917904877FABCF80917A048E7FA3
:10360000B7CF80917A048D7FB3CF809179048F7E7C
:103610009FCF809179048F7D9BCF809179048F7BA0
:1036200097CF0E94FA0C809179048F7791CF809187
:103630007904837F8DCF80917A048C7F99CF80919C
:10364000790482FB992790F921E0922790FB82F977
:1036500090FB83F97DCF80917A04982F909591709B
:103660008E7F892B90FB81F983CF90917904892FEC
:103670008F7B96FF80646CCF0E94FA0C9091790446
:10368000892F97FB87F9805863CF61E08EE090E047
:103690000E94DD275FCF60E0F9CF90917904892FF8
:1036A0008F7E94FF806154CF90917904892F8E7F13
:1036B00090FF81604DCF90917A04892F877F93FF8F
:1036C000886056CF809173048272F801E052F84707
:1036D000E531F10508F072C0E15CF74D0C946A2702
:1036E00080916B0491E0892780936B041092120102
:1036F00081E00E948607A6CD44EC57E068EB77E0B6
:103700000E944A089FCD48EB57E064EC77E0F8CF81
:103710004FEE57E064EE77E0F3CF44EE57E06FEE04
:1037200077E0EECF48E058E06AEF77E0E9CF4AEF84
:1037300057E068E078E0E4CF44E258E066E178E002
:10374000DFCF46E158E064E278E0DACF4EE358E0BC
:1037500062E378E0D5CF42E358E06EE378E0D0CF83
:1037600061E081E00E949B076DCD07373CE71307BE
:1037700091F182E008374CE7140771F10A35ACE7A4
:103780001A0709F44DC090F50130ECE71E0709F463
:1037900045C00330FCE71F07D9F101151C4709F0AC
:1037A00002CE0E94FA0C8FEF94E3ACE0815090407F
:1037B000A040E1F700C000000E94B30A07378CE781
:1037C000180791F082E008379CE7190709F0EBCD64
:1037D0000E947D0303C081E00E94710343E062E028
:1037E00081E00E94F8032ECD81E0F2CF0B353CE75B
:1037F0001307C1F00C351C4709F0D5CD80917A0430
:1038000082FB882780F991E089270E94330BCBCD7A
:103810006FEF7FEF80E090E00E94FB270E94100D89
:1038200081E0F3CF80E0F1CFC7010E94C403182FDD
:10383000CBCD843009F4D1C0EE20B1F08091780472
:1038400080FD12C0D60115961C92869586958695A8
:103850000E947103C6010E946318809178048695C6
:10386000869586950E947D0360E0C6010E94500CFB
:10387000F9CC893009F43BC18A5F8F708230E0F661
:10388000023F09F045C1812F8F71B1103EC10E94E6
:103890007103EBC0103118F0F29490EFF922BB20C5
:1038A000B9F0FF2069F080E2800F883010F001113C
:1038B00009C0809173048F29809373040E94BE0C09
:1038C000802F2FC080917B048F2980937B04F6CFBB
:1038D000802F0E942D10FF2009F4AECF80E2800FD0
:1038E000883010F0011104C08F2D0E943B0406C0E7
:1038F000F09480917B048F2180937B040E94BE0C06
:103900009BCF80917A0482FD16C0BB2069F0FF2016
:1039100039F0809173048F29809373040E94BE0C48
:1039200080E00E94E00F88CF80E00E942D10FF20F1
:1039300009F482CFD9CFBB20A1F0A11004C08F2DF4
:103940000E94791079CF21E0A21276CF8091740481
:103950009F2D9823F91609F46FCF8F298093740453
:103960006BCFA11069CF8F2D0E94831090917404AA
:103970008F2D8923882329F08F2D8095892380938B
:103980007404809175049F2D9823992309F454CFD2
:10399000F094F822F09275044FCFBB2029F035E067
:1039A0003A1508F449CFCBCF44E04A1508F444CF88
:1039B0008F2D0E94831040CFAA20D1F3093349F400
:1039C0008FEF97EEA3E081509040A040E1F700C058
:1039D0000000802F0E942D102FCF812F8695869575
:1039E0008370882361F0813009F026CFC80193707D
:1039F000B11002C080E090E00E9484081DCFC80191
:103A00009370B11002C080E090E00E945E0814CF75
:103A1000812F8370811134C0B11027C0402F42958F
:103A200046954770440F440F802F8F70042E01C0BD
:103A3000880F0A94EAF70071002341F02FE030E08C
:103A400001C0220F4A95EAF7022F009516951695A8
:103A50001370123081F0133061F020917604113030
:103A600039F0802B82230E946B030E945108E4CE20
:103A7000822B802BF8CF802B909176048927F3CF6F
:103A8000BB2051F110FFF1CF402F42954695477072
:103A9000440F440F802F8F70042E01C0880F0A94AA
:103AA000EAF70071002341F02FE030E001C0220F5F
:103AB0004A95EAF7022F0095169516951370123065
:103AC00089F0133069F020917704113041F0802B98
:103AD00082230E946E03C9CF823038F2D5CF822B69
:103AE000802BF7CF802B909177048927F2CF1F701E
:103AF000BB2039F0812F0E947103802F0E94791022
:103B0000B4CF802F0E948310812F0E947D03ADCF00
:103B1000033F70F4003FB9F0013FB9F1BB2009F455
:103B20005BC0AA2009F455C0802F0E94E00F9DCFF2
:103B3000033FD9F0043F29F1B110F3CFA1105AC0CF
:103B4000812F8F71E2CFBB2069F0B4E0BA1508F481
:103B50008CCF1F7181E090E0012E01C0880F0A9484
:103B6000EAF7C1CFE5E0AE16F2CF80E0BB2009F462
:103B7000B0CF1F7181E0012E01C0880F0A94EAF7CF
:103B8000A8CF80917A0482FD06C0812F8F71BB205F
:103B900009F4BBCF7CCEBB2089F01F71812F0E941E
:103BA000710380917A0482FF07C0F8E01F9FC00173
:103BB0001124836080937804812F69CE81E00E9474
:103BC000230421E02A1508F050CF82E00E9423044C
:103BD0004CCF812F8F715BCEAA2009F4B1CF09336E
:103BE00049F43FEF47EE83E0315040408040E1F739
:103BF00000C00000802F0E942D1037CF8091BC04A0
:103C0000803178F48091BB04882359F0E0917D04E1
:103C100020917C043091B7044091B60457E02E13F4
:103C200001C008956E2F70E05E9FF0011124DF0146
:103C3000A258BB4F14968C911497882361F111966A
:103C40008C911197831327C08C91841324C01596EF
:103C50008C91159781111FC012968D919C91A09106
:103C6000B804B091B9048A1B9B0B8639910598F46E
:103C70008091BC048F7080618093BC04EC57FB4F33
:103C800080818F708061808386EB94E00E9463184E
:103C90000E9419040895FB013196E770C0CFADE092
:103CA000B0E0E5E5FEE10C9437278C0186E0F801F1
:103CB000DE01189601900D928A95E1F7F801708067
:103CC000F580A280B380848196EB892E94E0992EB2
:103CD0006090BA04611018C0882399F0FF2009F49D
:103CE00013C1C8010E947F0C882309F40DC187E02D
:103CF000F801A6EBB4E001900D928A95E1F70E94DD
:103D0000FE1DFF24F39453C0D090BB042091B8044F
:103D10003091B904A501421B530BDD2009F4C4C046
:103D20004639510508F07AC0882359F38091B704C9
:103D3000C180E090BC04FFE0FE1508F459C0C81231
:103D400015C08091B604871111C0F1104BC08E2DA3
:103D50008F7080618093BC0486EB94E00E946318AE
:103D60008091BC04F8018683F12C21C0F1103AC087
:103D700040E06C2D872D0E94940A40E06C2D872D29
:103D80000E94940AF82E8111EFCF888599850E94B0
:103D9000700C292F22952F70903470F49F70223070
:103DA000A0F09923B1F0F8019681903190F48F2D15
:103DB0002D96EEE00C9453272A5F2F70223068F086
:103DC000C8010E946318FD2CF2CF992311F08823BB
:103DD00071F3805E883058F3F3CF803F40F3815F0A
:103DE0008230F9CF8091BC0481608093BC04BCCF49
:103DF000C8123CC08091B604871138C0F11036C09B
:103E0000F801E682C8010E94631887E0F801A6EB7A
:103E1000B4E001900D928A95E1F773CFE090BC0475
:103E2000FFE0FE1550F086EB94E00E94631887E0F7
:103E3000F40111928A95E9F797CF882309F461CFAD
:103E40009091B704F8018181981310C08091B60455
:103E500087110CC0F1100AC0E682C8010E946318E5
:103E600087E0F40111928A95E9F74BCFC8010E94CF
:103E70007F0C882309F448C0FF2009F445C08091D5
:103E8000BC04803208F433CF8091B6049091B7041B
:103E90009A838983BC82AB826D821E82EF82CE01BF
:103EA00001960E94631823CF4639510508F0BFCF11
:103EB000882309F426CFFF2039F19091B70481813E
:103EC000981318C08091B604871114C08091BC0467
:103ED00080FD9BCF803108F498CF8683807F803F20
:103EE00009F490CF8681982F907F905F8F70892BF7
:103EF000868388CFC8010E947F0C8111F8CE809103
:103F0000BC0481608093BC04C8010E946318F9CE90
:103F1000ABE1B0E0EEE8FFE10C9442274E8B5F8B03
:103F2000688F798F8A8F9B8F911110927B041D8AE5
:103F300086E0FE017696DE011F9601900D928A952D
:103F4000E1F78B89882329F061E0CE010F960E946A
:103F5000500C87E0FE013F96DE01189601900D920D
:103F60008A95E1F7CE0108960E944F1E81112BC061
:103F700087E0FE013896DE01119601900D928A9538
:103F8000E1F720917C0440917D048C858823D9F051
:103F900030E0C90101968770992750E08417950792
:103FA000E9F097E0929FD001939FB00D1124A258A1
:103FB000BB4FFE01319601900D929A95E1F78093E7
:103FC0007C040E94190417E080917D0490917C0488
:103FD000891312C06B96E3E00C945E270E94FA0CE2
:103FE00010927C0410927D0487E0E6EBF4E0DF01A0
:103FF0001D928A95E9F7E7CF189FC00111248258D6
:104000009B4F0E944F1E882329F380917D0490E0EE
:1040100001968770992780937D04D6CFA6E0B0E003
:10402000E4E1F0E20C9441270E94ED178C018091AD
:104030004B0490914C048017910779F019821A82F1
:104040000E94ED17BC0149815A8180E090E00E94F6
:10405000881F10934C0400934B042696E4E00C94C4
:104060005D27A8E0B0E0E7E3F0E20C943927FE0119
:10407000319688E0DF011D928A95E9F70DE211E0A3
:10408000EE24E394F12C5F01CC24C394D12CF801ED
:1040900081918F018F3F09F44CC0F894E82FE2958D
:1040A000EF70F0E021A18F70A60102C0440F551FF0
:1040B0008A95E2F7CA01922F982B91A392A180953D
:1040C000892382A3789400C0A9E3B1E04501A70148
:1040D000409550956D91F401819191914F016F3F01
:1040E00009F44CC0262F22952F70205E30E0F90194
:1040F000208130E06F7002C0359527956A95E2F710
:10410000217021113BC08E299F2994012250310931
:10411000F90191838083F1E0AD33BF07D9F6F8014F
:10412000319780818F3F11F00E94510640EA4A95F5
:10413000F1F7EE0CFF1C51E00933150709F0A7CF8A
:1041400048E050E0B50183E094E00E948027892B8D
:10415000C1F088E0F501A3E0B4E001900D928A95EA
:10416000E1F781E080933C020E94ED1790933B02BF
:1041700080933A022896ECE00C94552784239523EB
:10418000C4CF80913C028823A9F380913A02909198
:104190003B020E94F917059768F348E050E063E09E
:1041A00074E082E494E00E948027892B49F088E043
:1041B000E3E0F4E0A2E4B4E001900D928A95E1F727
:1041C00010923C02D7CFCDB7DEB7A8970FB6F894C0
:1041D000DEBF0FBECDBF85B7806885BF85B780685D
:1041E00085BF84B7877F84BF0FB6F894A895809168
:1041F0006000886180936000109260000FBE80E8CC
:1042000090E00FB6F89480936100909361000FBE28
:104210008FE496E090933102809330020E949E09D1
:104220000E94390A8091E20084608093E2007894D1
:1042300080914A04882399F08091E9001091EC0064
:104240001795112717958F70182B1092E900809100
:10425000E80083FD0E94260D1F701093E90082E0A4
:1042600084BD93E095BD9AEF97BD80936E000E9448
:10427000A50C811102C00E94D80B0DE211E0D801FB
:104280008D918D018F3F11F00E945106B1E00933ED
:104290001B07A9F787E90E94510687EF0E94510684
:1042A00086EF0E94510685EF0E94510688E0E2E405
:1042B000F4E0DF01282F1D922A95E9F7E3E0F4E00E
:1042C000DF011D928A95E9F780E090E00E94C72700
:1042D000863E9E4F21F40E94A50C811102C00E94CF
:1042E0008A1082E090E00E94BF278093380484E027
:1042F00090E00E94C72790937A04809379040E94EB
:104300003120EFEFF6E721E0E150F0402040E1F707
:1043100000C000000E9431208091420480FF08C04C
:104320006FEF7FEF80E090E00E94FB270E94B30ACE
:1043300083E090E00E94BF270E946B030E94D41686
:1043400010920F0440E150E06FEF70E088E294E0DB
:104350000E94A82780E090E00E94C727863E9E4FDB
:1043600021F40E94A50C811104C00E948A100E94B1
:10437000071181E080930B0448E050E068E170E0B1
:104380008BE694E00E94AF2710920B0480916B049F
:10439000843010F40E94071186E091E090934E045F
:1043A00080934D0480914A0410E403E0853009F4C1
:1043B000C7C00E943120A9E3B4E0BAA3A9A3E2E4F4
:1043C000F4E0FEA3EDA3DF01E9E3F4E021913191F4
:1043D0008D919D9144E0E134F40709F4D5C028178C
:1043E0003907A1F31DE3812E11E0912E712CADA1AF
:1043F000BEA1ED90FD90BEA3ADA3E9A1FAA181916C
:104400009191FAA3E9A38E159F0509F440C09C0180
:104410002E253F2538A72FA32401612CCC24C3943B
:10442000D12C8FA198A58C219D21892B11F186017A
:104430000E211F2169827A820E94ED179C838B8353
:1044400031E03D8391E00115110509F490E09E8370
:1044500049815A816B817C818D810E94881F809166
:104460000F04012B09F0B8C03B2C893008F0E4C0E0
:10447000B32C6394CC0CDD1CEFEF4E1A5E0AFCE00B
:104480006F12CFCFE9A1FAA13297F182E082739443
:104490002CE0820E911C34E07312A9CF0E94D30845
:1044A00079C080914A04843009F439C00E947314A1
:1044B00080910D0481110DC00E941B1110921101F9
:1044C00080916B048370809310010E949217009377
:1044D000120141E040930D0410920C0488E190E039
:1044E0000FB6F894A895809360000FBE10936000FB
:1044F00083B7817F846083BF83B7816083BF7894F3
:10450000889583B78E7F83BF0FB6F894A895809166
:104510006000886180936000109260000FBE8091FF
:104520000E04882369F00E943120E2E4F4E08AE47A
:1045300094E021913191232B79F48E179F07C9F7CD
:1045400080914A04853009F4ACCF0E94FA0C0E9495
:10455000510810920D042DCF80E189BD82E189BD03
:1045600009B400FEFDCF8091D8008F7D8093D800E4
:104570008091E00082608093E0008091E00081FD06
:10458000FCCF0E94FA0CDCCF2817390709F02ACF9C
:104590000E940E200E9473140E94510890914104C1
:1045A000891721F0809341040E94D30880914A0426
:1045B000843009F0F7CE83E08093E9008091E80031
:1045C00082FFF0CE8091E80085FD69C08091E8000F
:1045D0008B778093E800E6CED2013C90BFEF3B168C
:1045E00009F442CF01E010E022242394883038F50A
:1045F00040910F04832D90E0242F30E0F901E15F1A
:10460000FB4FDC01AA0FBB1FA359BE4F5C91518326
:10461000880F991FDC01A35CBE4FD1968C918187D6
:10462000318AF901EE0FFF1FE15FFB4F128E118EF1
:104630004F5F40930F041CCF00E010E0212CE8E016
:10464000AE2EB12CA01AB10AB801605F7B4FA50154
:1046500080E194E00E948D27B801685E7B4FA50140
:1046600088E194E00E948D27A501440F551FB801F1
:10467000660F771F685D7B4F88E294E00E948D276C
:10468000B801605E7B4FA50180E294E00E948D2717
:1046900088E0821980930F042110AACFE9CE0E94EE
:1046A0006D0930E2E32EF12C8E010F5F1F4F88233E
:1046B000D9F08091E8008B778093E8008981EFEF53
:1046C000E80FE33158F5F0E0EC5AF74D0C946A2707
:1046D0008091F100D8018C93B1E0EB1AF108E1145C
:1046E000F10439F30F5F1F4F8091E80085FDF0CF93
:1046F0008091E8008B778093E8000E946D09882301
:1047000099F3D7CF1A828CE08B831AC08A818330C9
:1047100049F138F4813061F08230D9F08FEF89832C
:104720000FC08430D9F71B821C821D821E8208C0F4
:104730000E94D3080E9470276B837C838D839E83A5
:1047400040E250E0BE016F5F7F4F82E00E94D70AD7
:1047500029CE88E290E00E94BF271B821C821D8226
:104760008E83EECF8B8190E0DE011196129684301D
:10477000910534F7FC01FF27EE0FFF1FEE5BFB4FA7
:104780002081318111963C93119712962C931297A8
:104790000196ECCF8A81823079F0853009F0BECF66
:1047A00080916B0491E0892780936B041092120131
:1047B00080E00E948607C4CF8B819C81AD81BE8141
:1047C00089A39AA3ABA3BCA3BC01CD010E9470270F
:1047D00088E290E00E94DD27B3CF4C816B818A8113
:1047E0000E94E80B9827892798279E838D83A8CF5E
:1047F0002D813E813227232732274C816B818A818C
:104800000E944A0B9DCF0E94710B9ACF9A819330E0
:1048100009F084CF883009F441C0893009F46BC0B5
:104820008B818330B9F198F48130D1F0823009F076
:1048300087CF8C8190916B04292F237081111EC02A
:104840002111109212019C7F90936B0479CF8430D8
:1048500009F076CF8C8120E040916E046D810AC012
:104860004C8126E9429F412D112480916C0420E067
:1048700060916D0490E00E94D10762CF211102C0C7
:10488000109212019C7F916090936B0460E00E94F3
:104890009B0756CF8C8180936F048ACF8B818330A6
:1048A00039F180F48130C1F0823009F049CF809134
:1048B0006B04982F937086958695911101C080E0C6
:1048C0008C833ECF843009F03BCF80916C048C8385
:1048D00080916D048D8334CF80916E04AFEF8A9FF9
:1048E000C001112466E970E00E941F276C8328CF65
:1048F00080916F04E5CF0E94FC1022CF80E18A8373
:104900001FCF81E08A8387EFFFCE0A811B811027AA
:10491000012710278C816801C80ED11C7E01B5E0EB
:10492000EB0EF11C0C151D0509F40ACF80E0073FC2
:10493000E1E01E0728F4C801875F9D4F0E94BF2752
:10494000D7018D937D010F5F1F4FECCF0A811B8133
:10495000102701271027FE0131967F01CC80CE0E53
:10496000DF2ED11CCE14DF0409F4EACE073FF1E0BC
:104970001F0740F4D70114966C91C801875F9D4FC3
:104980000E94DD270F5F1F4FBFEFEB1AFB0AEACF34
:104990000E94AA0BD5CE85E0B2CF0A811B811027D9
:1049A000012710278C816801C80ED11C7E01E5E02B
:1049B000EE0EF11C0C151D0509F4C2CE80E0003E80
:1049C000F1E01F0720F4C80189960E94BF27D70194
:1049D0008D937D010F5F1F4FEDCF0A811B81102743
:1049E00001271027FE0131967F01CC80CE0EDF2EED
:1049F000D11CCE14DF0409F4A3CE003EF1E01F0762
:104A000038F4D70114966C91C80189960E94DD276D
:104A10000F5F1F4FBFEFEB1AFB0AEBCF78941F928B
:104A20001FB61F9211248F939F93AF93BF938091D2
:104A30004A0390914B03A0914C03B0914D03019612
:104A4000A11DB11D80934A0390934B03A0934C0387
:104A5000B0934D03BF91AF919F918F911F901FBE57
:104A60001F9018951F920F920FB60F9211242F933B
:104A70003F934F935F936F937F938F939F93AF93E6
:104A8000BF93EF93FF938091E10082FF09C0809173
:104A9000E20082FF05C08091E1008B7F8093E100FE
:104AA0008091DA0080FF24C08091D80080FF20C070
:104AB0008091DA008E7F8093DA008091D90080FFA8
:104AC0009BC080E189BD82E189BD09B400FEFDCFB4
:104AD00081E080934A0480914202811109C00E94C2
:104AE0009E090E94390A8091E20084608093E2006E
:104AF0008091E10080FF17C08091E20080FF13C029
:104B00008091E2008E7F8093E2008091E2008061DC
:104B10008093E2008091D80080628093D80019BC15
:104B200085E080934A048091E10084FF29C0809150
:104B3000E20084FF25C080E189BD82E189BD09B41E
:104B400000FEFDCF8091D8008F7D8093D8008091AA
:104B5000E1008F7E8093E1008091E2008F7E809360
:104B6000E2008091E20081608093E2008091410246
:104B7000882309F447C084E080934A0480914A0462
:104B80008091E10083FF27C08091E20083FF23C072
:104B90008091E100877F8093E10082E080934A0466
:104BA000109241028091E1008E7F8093E10080911C
:104BB000E2008E7F8093E2008091E200806180932A
:104BC000E20042E060E080E00E94020A8091F00092
:104BD00088608093F000FF91EF91BF91AF919F911A
:104BE0008F917F916F915F914F913F912F910F9096
:104BF0000FBE0F901F90189519BC10924A04109286
:104C0000420276CF8091E30087FF02C083E0B4CFF9
:104C100081E0B2CF1F920F920FB60F921124FF9234
:104C20000F931F932F933F934F935F936F937F93B4
:104C30008F939F93AF93BF93CF93DF93EF93FF93A4
:104C400009EE10E0F8018081C091EC00C795CC27F7
:104C5000C7958F70FC2EF82A1082C0EFD0E08881B3
:104C6000877F888378940E94260DF80110828881BE
:104C700088608883CF2DCF70C083FF91EF91DF9143
:104C8000CF91BF91AF919F918F917F916F915F91E4
:104C90004F913F912F911F910F91FF900F900FBE59
:104CA0000F901F9018951092B9008CE08093B80077
:104CB0000895A0E0B0E0EFE5F6E20C943A27B82EB4
:104CC000EB010E94ED176C01EE24E394F12CC4314A
:104CD000D10560F025E0E22EF12CCF3FDC0731F06A
:104CE000CE0164E170E00E941F277B0184EAA82EB8
:104CF00094E8992E1092BC00A092BC000E94ED177F
:104D0000182F092F8091BC0087FF0CC08091B9003B
:104D1000887F8830F9F08091B900887F8031D1F0A8
:104D20000FEF08C0812F902F0E94F917E816F9069F
:104D300048F70EEF1FEFCF3FDC07E1F2C6010E94FC
:104D4000F917C817D907B0F6C801CDB7DEB7EBE041
:104D50000C945627B092BB009092BC000E94ED17B5
:104D6000182F092F8091BC0087FF0AC02091B9003D
:104D7000287F283111F0203499F600E010E0E4CFCC
:104D8000812F902F0E94F917E816F90658F7D1CF16
:104D90000F931F93CF93DF93EB018093BB0084E8C5
:104DA0008093BC000E94ED17182F092F8091BC0042
:104DB00087FF11C02091B900287F81E090E0283260
:104DC00011F480E090E0919581959109DF91CF9168
:104DD0001F910F910895CF3FDC0741F3812F902F52
:104DE0000E94F917C817D90708F78EEF9FEFEECF8B
:104DF000A0E0B0E0EEEFF6E20C943D276B018A01F3
:104E0000F22EE32E622F732F0E945926AC01E60189
:104E10000C0D1D1DC017D10711F057FF09C084E903
:104E20008093BC00CA01CDB7DEB7E8E00C945927E7
:104E30006F2D7E2D89910E94C826AC01EBCFAA1B55
:104E4000BB1B51E107C0AA1FBB1FA617B70710F075
:104E5000A61BB70B881F991F5A95A9F780959095A7
:104E6000BC01CD0108952F923F924F925F926F92B5
:104E70007F928F929F92AF92BF92CF92DF92EF92EA
:104E8000FF920F931F93CF93DF93CDB7DEB7CA1B6B
:104E9000DB0B0FB6F894DEBF0FBECDBF09942A8896
:104EA000398848885F846E847D848C849B84AA843E
:104EB000B984C884DF80EE80FD800C811B81AA81CB
:104EC000B981CE0FD11D0FB6F894DEBF0FBECDBF96
:104ED000ED010895EE0FFF1F0590F491E02D099468
:104EE0006927962769277827872778270895FB0160
:104EF000DC0102C005900D9241505040D8F7089552
:104F0000FB01DC0104C08D910190801921F4415016
:104F10005040C8F7881B990B0895FB01DC0102C0C3
:104F200001900D9241505040D8F7089568177907C5
:104F300068F4FB01DC01E40FF51FA40FB51F02C0EC
:104F400002900E9241505040D8F708950C948D274E
:104F5000DC0101C06D9341505040E0F70895DC0141
:104F6000CB01FC01F999FECF06C0F2BDE1BDF89A74
:104F7000319600B40D9241505040B8F70895F99918
:104F8000FECF92BD81BDF89A992780B50895A8E11A
:104F9000B0E042E050E00C94B127DC01A40FB51F53
:104FA0004150504048F0CB01840F951F2E910E9434
:104FB000DE2741505040D0F70895262FF999FECFB3
:104FC00092BD81BDF89A019700B4021639F01FBA5C
:104FD00020BD0FB6F894FA9AF99A0FBE0895039679
:104FE000272F0E94DE270E94DD27252F0E94DE2723
:104FF000242F0C94DE270196272F0E94DE270C9485
:10500000DD27F894FFCF040E2A0E300E2A0E300E44
:10501000830EA50E300EA10FAE0F4C1164119B1123
:10502000E3112F1243124612BE12A9134F1A531A3C
:10503000451A4B1A571A5B1A5F1AE91A541BF11AD0
:10504000BB1ABF1AF51AC31AF91A051BCF1A4D1B42
:10505000D31A091BD71A0D1B351BDB1A111B3C1B5E
:10506000E11A171B1F1BC71AFD1ACB1A011BE51AE1
:105070001B1B2B1B451B4B1BB51AED1A5B1B701B17
:105080007C1B831B881B8D1B921B971B9C1BA11BCE
:10509000A61BAB1BB01B2219221922192219221997
:1050A000221922192219221982238623CA23ED23C9
:1050B000F82303240624062406248E238E237E242C
:0E50C00081248524A624C824CB24CD24ED24ED
:1050CE000100FF003905F008150BF308F4082C0B4E
:1050DE00FFFF0300FF964422320001DE00AC0056B3
:1050EE00016F018F01003131295A1B750A32339538
:1050FE00939237F0343536666797F7F6F50001026E
:10510E00030405060708090A0B0C0D0E0F101112E9
:10511E00131415161718191A1B1C1D1E1F202122D9
:10512E0023242526272829FF2A2B2C2D2E00001478
:10513E000028003D00510065007A008E00A200B7E5
:10514E0000CB00E0000015141528153D155115650E
:10515E00157A158E15A215B715CB15E015002A1464
:10516E002A282A3D2A512A652A7A2A8E2AA22AB765
:10517E002ACB2AE02A0040144028403D4051406F7F
:10518E00408E40A240B740CB40E0400104040404EE
:10519E0004040404040401010404040404040404C7
:1051AE0004040101040404040404040404040101BD
:1051BE0001010101010101010101E200E900EA0022
:1051CE00B500B600B700CD008301CC008A01920174
:1051DE0094012102230224022502260227022A021A
:1051EE00B300B4006F0070009F01CB019F02A002BC
:00000001FF
