:100000000C942B030C9463030C9463030C94630310
:100010000C9463030C9463030C9463030C946303C8
:100020000C9463030C9463030C9411150C94CD147D
:100030000C9463030C9463030C9463030C946303A8
:100040000C9463030C9449200C9463030C94630395
:100050000C9463030C94F6150C9463030C946303E3
:100060000C9463030C9463030C9463030C94630378
:100070000C9463030C9463030C9463030C94630368
:100080000C9463030C9463030C9463030C94630358
:100090000C9463030C9463030C9463030C94630348
:1000A0000C9463030C9463030C94630305010980AF
:1000B000A101850319012AB700150126B700950192
:1000C00075108100C0050C0901A101850419012AE0
:1000D000A002150126A002950175108100C00660DE
:1000E000FF0961A1010962150026FF00952075082E
:1000F00081020963150026FF00952075089102C052
:1001000005010906A101050719E029E715002501E8
:10011000950875018102950175088101050719008F
:1001200029FF150026FF00950675088100050819AE
:10013000012905950575019102950175039101C08D
:1001400000100020001101210012022200130323DD
:10015000001404240015052500160626001707279D
:100160000018082800190929001A0A2A001B0B2B5D
:10017000004030500041315100423252004333536D
:10018000004434540045355500463656004737572D
:100190000048385800493959004A3A5A004B3B5BED
:1001A00000706080007161810072628200736383FD
:1001B00000746484007565850076668600776787BD
:1001C0000078688800796989007A6A8A007B6B8B7D
:1001D00000A090B000A191B100A292B200A393B38D
:1001E00000A494B400A595B500A797B700A898B847
:1001F00000A999B900AA9ABA00AB9BBB0000000005
:1002000000000000000000000000000000000000EE
:1002100000000000000000000000000000000000DE
:1002200000000000000000000000000000000000CE
:1002300000000000000000007E0F00D4FFFFFFC799
:100240000000007800000000000000002A2B2800B9
:100250000000000000000000000000000000002975
:10026000000000002C1E3420212224342627252EB5
:10027000362D3738271E1F202122232425263333ED
:10028000362E37381F0405060708090A0B0C0D0E19
:100290000F101112131415161718191A1B1C1D2FE5
:1002A0003130232D350405060708090A0B0C0D0E05
:1002B0000F101112131415161718191A1B1C1D2FC5
:1002C0003130354C00DA0281FFD9F1DB20A4A62EB3
:1002D000AF00A0C000A1C800AED580A81FD30040C9
:1002E0008D14200000AE0001010101010101010196
:1002F00002020202020202020203030303030303D7
:1003000003040404040404040505050505060606A3
:100310000606070707070708080808090909090A60
:100320000A0A0B0B0B0C0C0C0D0D0D0E0E0E0F0F05
:100330000F10101111111212131314141515161693
:100340001717181819191A1A1B1B1C1D1D1E1E1F02
:100350002020212222232424252626272829292A51
:100360002B2C2D2D2E2F3031323233343536373879
:10037000393A3B3C3D3E3F40414243444546474875
:10038000494A4C4D4E4F50515354555658595A5B4B
:100390005D5E5F616264656668696B6C6D6F7072EB
:1003A000737577787A7B7D7E8082838587888A8C57
:1003B0008E8F91939596989A9C9EA0A2A3A5A7A98B
:1003C000ABADAFB1B3B5B7BABCBEC0C2C4C6C9CB82
:1003D000CDCFD1D4D6D8DBDDDFE2E4E7E9EBEEF038
:1003E000F3F5F8FAFDFF0000000000000000000037
:1003F00000010204060A0F17202C3A4A5D71879DFE
:10040000B3C7DAE9F5FCFFFCF5E9DAC7B39D8771FC
:100410005D4A3A2C20170F0A060402010000000072
:1004200000000000000000AF290014001A000800BE
:10043000150017001C0018000C00120013002A0001
:100440002B0004001600070009000A000B000D0035
:100450000E000F0033002800E1001D001B00060005
:1004600019000500110010003600370038004C005C
:10047000E000E3000351E20002512C0000000151B2
:100480005200500051004F0034001E021F02200293
:10049000210222022302240225022602270235001D
:1004A00000003A003B003C003D003E003F002D02B2
:1004B0002E022F0230023102E100400041004200D2
:1004C000430044004500320264024A004D0000002F
:1004D000000000000000000000000000000000001C
:1004E00000000000B45DB55D00001E001F0020008C
:1004F00021002200230024002500260027002A00D6
:100500004C003A003B003C003D003E003F002D0007
:100510002E002F0030003100E10040004100420079
:10052000430044004500320064004B004E000000D0
:1005300000000000000000000000000000000000BB
:10054000AB00AA00A900AE000000005C00000000A3
:10055000000000000000000000000000000000009B
:10056000000000000000000000000000000000008B
:10057000000000000000000000000000000000007B
:10058000000000000000000000000000000000006B
:10059000000000000000000000000000000000005B
:1005A000000000000000000009025B00030100A041
:1005B000FA090400000103010100092111010001F1
:1005C000224000070581030800010904010002031D
:1005D0000000000921110100012222000705820309
:1005E00020000107050303200001090402000103A4
:1005F00000000009211101000122320007058403D7
:100600002000011201000200000008504B303402AB
:100610000001020001220342004D0034003000209E
:100620000048006F007400730077006100700020C4
:1006300000520047004200000016034B00500052D9
:100640000065007000750062006C006900630000C6
:1006500000040309040011241FBECFEFDAE0DEBF5F
:10066000CDBF04B603FE18C08091C8079091C9079A
:10067000A091CA07B091CB078730904BA740B04BF1
:1006800059F41092C8071092C9071092CA07109225
:10069000CB07E0E0F8E3099527E0A8E5B2E001C068
:1006A0001D92A83CB207E1F712E0A0E0B1E0E6ED50
:1006B000F1E602C005900D92A835B107D9F70E9466
:1006C00067200C94AC300C940000E8EDF0E08081E1
:1006D0008E7F80831092E2001092DA001092E10087
:1006E000A0EEB0E08C9181608C9380818F778083C5
:1006F00019BCA7EDB0E08C918E7F8C9380818F7EAA
:1007000080831092660708952091E4003091E500FF
:1007100095E6A9012091EC00822F817020FF06C090
:100720008091E80080FF06C080E008952091E800F5
:1007300022FD1AC080917307882389F0853089F0E3
:100740008091EB0085FD0FC02091E4003091E50021
:1007500042175307F9F29150E1F684E0089582E0E0
:10076000089583E0089581E00895EF92FF920F933A
:100770001F93CF937C018B010E948403C82F8111AA
:1007800017C08091E80085FD0BC08091E8008E774E
:100790008093E8000E948403882399F3C82F08C03F
:1007A000F70181917F018093F1000150110949F710
:1007B0008C2FCF911F910F91FF90EF900895809112
:1007C000750787FF13C08091E80082FF06C0809103
:1007D000E8008B778093E80004C080917307811153
:1007E000F2CF0895809173078823D9F38091E800B0
:1007F00080FFF8CF8091E8008E77ECCF982F909310
:10080000E900242F762F50E0891731F07091EC0029
:100810002091ED005091F00021FD07C09F5F9730BF
:1008200071F78093E90081E008953091EB003E7FFD
:100830003093EB003091ED003D7F3093ED0030912F
:10084000EB0031603093EB007093EC002093ED00EF
:100850005093F0002091EE0027FDE0CF80E0089556
:10086000B0E0A0E0E6E3F4E00C94222FC8EDD0E085
:1008700088818F7E8883E7EDF0E0808181608083CE
:1008800084E082BF81E08093660788818E7F8883C1
:1008900002EE10E0F80110821092DA0081EEC82E0C
:1008A000D12CF601108288818F77888388818068B7
:1008B000888388818F7D888319BC1092730710927A
:1008C0007407109272071092710790EEE92EF12CC6
:1008D000F70180818B7F808388818160888342E0FB
:1008E00060E080E00E94FE03F60180818E7F8083BD
:1008F000F801808181608083808188608083F70136
:1009000080818E7F8083888180618883CDB7DEB7C8
:10091000E8E00C943E2FFC0180917B0790917C07CE
:1009200086179707A0F06115710529F49091E800EA
:100930009E779093E80090E06115710551F4911154
:1009400008C08091E80082FF34C080E00895BC01B7
:10095000F2CF809173078823C1F18530C1F1809176
:10096000E80083FD30C08091E80082FDEACF8091ED
:10097000E80080FFE1CF8091F3002091F200382F52
:100980006115710519F02830310558F091E02830D3
:10099000310509F090E02091E8002E772093E800DF
:1009A000CBCF81918093F100615071092F5F3F4F50
:1009B000E7CF80917307882341F0853041F0809123
:1009C000E80083FFBECF81E0089582E0089583E0D0
:1009D0000895089508958091680708952FB7F894B1
:1009E00060915F0770916007809161079091620745
:1009F0002FBF089520915D0730915E0728173907B2
:100A000071F090935E0780935D07E0915B07F09132
:100A10005C07309721F00084F185E02D0995089559
:100A20002091590730915A072817390771F0909390
:100A30005A0780935907E0915B07F0915C07309764
:100A400021F00680F781E02D09950895E0915B077C
:100A5000F0915C07309729F00190F081E02D099525
:100A6000089580E00895FA01811101C0FB01099504
:100A70000895E1E8F7E024813AE0231B08F420E040
:100A80002483809150078160809350070895E1E8A6
:100A9000F7E024813AE0230F08F42FEF24838091BC
:100AA000500781608093500708959091810793705B
:100AB00071F08093820760938307453B08F044EB15
:100AC0004093840780915007822B809350070895AC
:100AD000E1E8F7E0438128E0421B08F440E081812F
:100AE00021E0628190E00E9455050895E1E8F7E079
:100AF000438128E0420F08F44FEF818121E06281B9
:100B000090E00E9455050895E1E8F7E0628128E051
:100B1000621B08F460E0818121E0438190E00E9443
:100B200055050895E1E8F7E0628128E0620F08F4D6
:100B30006FEF818121E0438190E00E945505089587
:100B4000E1E8F7E0818121E0438162818850990BDF
:100B50000E9455050895E1E8F7E0818190E021E0E9
:100B60004381628108960E945505089590918107FE
:100B7000937061F081110BC0946090938107109283
:100B80001C0180915007862B809350070895843173
:100B900010F09C64F2CF880F880F982BEECF8091D5
:100BA000810786958695815009F483E161E00E9472
:100BB000B605089580918107869586958F5F84316B
:100BC00008F081E061E00E94B60508950E94981443
:100BD00008950E94BB140895EF92FF920F9397011E
:100BE000201B31092F3F310519F010F02FEF30E0B5
:100BF0002095382F320F08F43FEF832F0F91FF908D
:100C0000EF900895EF92FF920F93972F093438F4E5
:100C1000B701601B71096F3F710519F010F06FEF9C
:100C200070E0485F5F4F4131510540F0A901485FD6
:100C30005F4F4131510510F06FEF70E06095482F24
:100C4000460F08F44FEF842F37FF02C02D5F3F4F50
:100C5000359527953595279560918207620F792FF5
:100C60000F91FF90EF900895EF92FF920F939701ED
:100C700095E0099F200D311D11242F3F310519F0FA
:100C800010F02FEF30E02095382F320F08F43FEFAF
:100C9000832F0F91FF90EF900895E42FF0E0EE0F77
:100CA000FF1FE854FE4F9081921B97FD9195292FCD
:100CB00038E1239F212D1124620F0895E42FF0E0E5
:100CC000EE0FFF1FE854FE4F408134EE439F412D4D
:100CD0001124E82FF0E050E0445E5F4FDA01A21BE0
:100CE000B1099D01B7FF03C031952195310993E00A
:100CF000220F331F9A95E1F7AF01421B530B9A0164
:100D000057FD20E0582F259F212D1124822F089573
:100D1000E42FF0E0EE0FFF1FE854FE4F408134EE69
:100D2000439F412D1124E72FF0E050E0445E5F4FD8
:100D3000DA01A21BB1099D01B7FF03C031952195CE
:100D4000310993E0220F331F9A95E1F7AF01421B5F
:100D5000530B9A0157FD20E0279F212D1124722F5C
:100D60000895E82F86FDE0952E2F2F7086FD2F5FCA
:100D7000E695E695E695E670F0E0EF58FE4F918136
:100D8000929F902D212D112492959F702295207F66
:100D9000922B2081920F87FD919580E8890F08950D
:100DA0000F931F93CF93DF938B01D82FC42F822FE4
:100DB0000E94B106EC2FF0E0EE0FFF1FE854FE4F4B
:100DC00090819058890F87FD8195880F682F2CE0BE
:100DD000629F612D1124600F712F8D2FDF91CF91B4
:100DE0001F910F91089540911A0150911B0125E028
:100DF00038E0429FC001439F900D529F900D1124F7
:100E0000875E994C90931B0180931A01890F089576
:100E1000AC018230910508F408959FEF413E8EE1C8
:100E2000580740F49A0195E0369527959A95E1F791
:100E300098E0920F61E0E62FE90FFF27FF1F9F0167
:100E400035952795822F229FF001239FF00DF00DFD
:100E500011244E175F0738F49FEF920F961758F73B
:100E60008FEF860F08952F3FE9F361E0620FF6CF11
:100E700030E020E0869F212D969F200D311D11240A
:100E8000C90108952091850730E1230F08F42FEF61
:100E900060E1822F90E00E943807BC0188EB9BE064
:100EA0000E94042F90E080E00895AF92BF92CF920D
:100EB000DF92FF920F931F93CF93DF93362F472F2D
:100EC000E82FF0E0EA51FD4F71110FC0E4918E2F31
:100ED0002E2F6E2F722FDF91CF911F910F91FF90C8
:100EE000DF90CF90BF90AF900895C72FD0E02491AE
:100EF000F22E022F10E056E0659FC0011124EFEFA3
:100F0000F0E0BF010E94042F832F90E0880F991F0B
:100F100035E5369FD001379FB00D11248A1B9B0BFE
:100F2000982F990F980F6F01CC1ADD0AC09ED0013F
:100F3000C19EB00DD09EB00D11248B2F499FA001F2
:100F40001124452F55276F01C41AD50AC09EA00150
:100F5000C19E500DD09E500D11245F01A91AB108F9
:100F6000AC9E6001AD9ED00CBC9ED00C1124CD2C4B
:100F7000DD24EC19FD09E09FE001E19FD00DF09F19
:100F8000D00D1124ED2F62307105A1F050F46115E0
:100F9000710509F49ECF6130710581F0EB2F852F2B
:100FA00098CF6430710569F080F06630710509F4FE
:100FB00090CFF4CFE22F2B2F8D2F8BCFE22F252F29
:100FC00088CFEB2F822F2D2F84CF2B2F8F2DE52F26
:100FD00080CFB0E0A0E0EFEEF7E00C94232F8C017F
:100FE000FC01EE5DFD4F8081682349F1D0908307BD
:100FF000D0918407C0918207EC2EF12C0E94F30659
:10100000282FC7018C549F4F68E671E00E945B2F28
:101010008E199F0997FD03969595879595958795C8
:1010200023706C2F289F600D11247D2D8D2F0E9421
:101030005507462F282F672FC8010E94E905CDB715
:10104000DEB7E7E00C943F2FA8E0B0E0EAE2F8E07A
:101050000C94182F9D838C8320911E018BE0289F78
:10106000802D11248E83855F89838A83863310F0D7
:1010700035E33A83809187078B83FE81EF2FF0E081
:10108000F887EF83CF01880F991F9C0128573E4FA7
:101090006901EA81FF81FE1748F081E0298125334B
:1010A00008F080E02896E2E10C94342FEF81F88577
:1010B000EE5DFD4F808190911F01892321F12090E9
:1010C00082073090830780EA482E87E0582E97E801
:1010D000A92E97E0B92E10E08A2D27E837E0821B71
:1010E0003B818317C8F020918407129F112D112492
:1010F000B101812F0E945507462F282F672F8F811E
:1011000098850E94E9058F819885019698878F833D
:1011100092E0C90ED11CBDCFF60180A8F5018181F6
:10112000881A9908F60161A8F5018185681A77087F
:10113000889C9001899C300D300D1124669CC00163
:10114000679C900D900D1124820F931F0E94080739
:10115000082F6091850721E0620F08F46FEFF2011C
:10116000819191912F010E9438077C019301A40184
:10117000B101812FEC81FD8109951B01FFEFAF1AB1
:10118000BF0A182FA9CFB0E0A0E0E9ECF8E00C947A
:10119000232F7C01C0911E018BE0C89FC02D11241C
:1011A0001BE01C0F012F163308F005E36091850743
:1011B0006695669521E0620F08F46FEF80917D07D8
:1011C00090917E070E943807D82ED0E0C01748F0D3
:1011D00081E0153308F080E0CDB7DEB7E7E00C948E
:1011E0003F2FFE01EE5DFD4F808190911F0189230D
:1011F00091F06091820770918307809184072D2D73
:101200004C2FF70109950E945507462F282F672F6D
:10121000CE010E94E9052196D9CF80E00895F89487
:10122000E82FE295EF70F0E031A1282F2F7081E0D8
:1012300090E001C0880F2A95EAF7982F90959323A4
:1012400091A392A1892B82A3789408959091B103E0
:1012500092FF06C0282F28712830F9F4877F846018
:1012600093FF06C0282F28712831F1F4877E84610E
:101270002091B20320FF06C0382F38713830D9F4DE
:10128000877F816021FF06C0282F28712831D1F483
:10129000877E816194FD877E0895282F24712430F4
:1012A000F9F68B7F8860DCCF282F2471243101F779
:1012B0008B7E8861DDCF382F3171313019F78E7F09
:1012C0008860E0CF282F2171213121F78E7E88613F
:1012D000E1CFCF93DF93EC0182389105B1F108F0B3
:1012E00040C08133910509F49DC048F589329105CC
:1012F00009F48DC08A9709F49CC0C11522E5D20774
:1013000008F0BDC0C11531E5D30708F024C1C83EBF
:10131000D10508F0A3C0C13ED10588F5C83AD10572
:1013200008F08EC0C53AD10508F0F6C0C130D1052D
:1013300031F1209721F1C430D10508F545C085333E
:10134000910509F45FC0C997C1F68091B10383701C
:1013500009F036C18091B20383FF11C0C9E2D0E029
:101360000EC0833E910599F170F4803E910501F124
:10137000823E910511F68091B10382FD21C0CE011C
:10138000DF91CF910895863E910561F1873E9105E9
:1013900071F1843E910509F0B0CF8091B20381FFD5
:1013A000EECF8091B103C7EED0E084FD0DC0E7CF52
:1013B0008091B10380FD33C09091B20390FFDFCFE5
:1013C000C3EED0E084FFDBCFD0E0C0E0D8CF809187
:1013D000B10382FDF2C09091B20390FDF1C084FF91
:1013E000CECFF2CF8091B10383FDDDCFC8CF809106
:1013F000B10383FDE8C09091B20391FFF0CFC4EE3A
:10140000D0E0BDCF8091B10385FFB9CFA7CF809148
:10141000B10385FDDBC08091B20383FFB0CFC9E388
:10142000D0E0ADCF8091B10386FFA9CFCAE2D0E072
:10143000A6CF8091B10386FFA2CFC1E3D0E09FCFBA
:10144000CF3BD10508F6C85AD0E0CC0FDD1FC95DEF
:10145000DE4F0990D881C02DD46491CFC11540E5ED
:10146000D40708F064C0C11580E4D80708F05CC058
:10147000CE019A9581159F4108F481CFA5CFC11562
:1014800036E5D30718F5C11545E5D40708F07CC04B
:10149000C11584E5D80708F072C09E012370332778
:1014A0009C2F96959695C115D34508F459C0C1E077
:1014B000D0E002C0CC0FDD1F2A95E2F730E2939F07
:1014C000C0011124C82BD92BDA6859CFC1158AE580
:1014D000D80778F4C11529E5D20708F060C0C11516
:1014E00038E5D30708F470CFDC2FCC27C06FD06A63
:1014F00046CFCE0190568115904208F065CF8D2FD2
:101500008F710E94260990E0982F882788279F7165
:101510009C012C2BE90141C0C55AD0E0CC5DDE4FC7
:10152000C881D0E0D0642BCFDF70D06A28CFCE0145
:101530008370992721E030E002C0220F331F8A9583
:10154000E2F7C695C69580E2C89FE0011124C22B40
:10155000D32BDD6814CFDC2FCC27C16FD06A0FCF1F
:10156000C1E0D0E002C0CC0FDD1F2A95E2F720E2F7
:10157000929FC0011124C82BD92BDC6800CFDC2F2F
:10158000CC27C46FD06AFBCE8C2F0E942609C82FAF
:10159000D0E0DC2FCC27CC27DF71D062F0CE8C2FAF
:1015A0008F700E94260934E0D695C7953A95E1F7E9
:1015B000CF709C2FEC01D069E2CEC2EED0E0DFCE3E
:1015C000C0EED0E0DCCEC6EED0E0D9CEC5E3D0E0B0
:1015D000D6CE8091A40381111092A4030895809522
:1015E0009091A30398239093A3030895ECE5F2E070
:1015F0009191891303C0DF0111971C9292E0E236AA
:10160000F907B1F70895ACE5B2E0EFEF90E02D9166
:10161000821751F0EF3F19F4211101C0E92F9F5FAC
:101620009630A9F7EF3F09F408950E2E000CFF0B3A
:10163000E65AFD4F82830895809198039091670345
:10164000981301C008958F5F8770FACF292F9430C7
:1016500078F58C3068F590E03CE0239F800D911D7B
:101660001124682F677023E0969587952A95E1F7F6
:10167000FC01EE0FFF1FE80FF91FE15BFC4F50E08C
:1016800040E080E0219130E0062E02C0369527959B
:101690000A94E2F721703327042E01C0220F0A9426
:1016A000EAF7822B4F5F5F4F4330510559F708959A
:1016B00080E00895292F943098F58C3088F590E0DB
:1016C0003CE0239F800D911D1124282F277041E0BD
:1016D00001C0440F2A95EAF723E0969587952A954D
:1016E000E1F7FC01EE0FFF1FE80FF91FE15BFC4F74
:1016F00030E020E070E05191DF011197CB01022E24
:1017000002C0969587950A94E2F7817081958527A6
:10171000842385278C932F5F3F4F2330310559F762
:101720000895982F92959F7011F0892F94E0282F9B
:101730002695269511F09E5F822F869509F09F5F72
:10174000892F08958093B4076093B50724E630E0AD
:1017500042E050E064EB77E080EA0E94B82E21E09E
:10176000892B09F020E0822F0895B0E0A0E0EBEB98
:10177000FBE00C94222F6C017B0164E670E088E7AB
:101780000E941E2EEC0197FD12C010E000E0F60151
:10179000E00FF11F849164E670E00E948A2EEC0154
:1017A000892B29F40F5F1F4F0E151F0581F70E942B
:1017B000002FCE01CDB7DEB7E8E00C943E2FCF93DB
:1017C000C0915707809158078823D1F00E94EE04FA
:1017D000605A75418F4F9F4F609353077093540722
:1017E0008093550790935607C11108C062E070E0DE
:1017F00086E294E00E94B50B892B29F0C09157072F
:101800008C2FCF91089581E080935707F7CF809375
:101810006307709365076093640780917307843052
:10182000F9F48093E9008FEF9091E800815095FDE5
:1018300006C095ED9A95F1F700008111F5CF8091E2
:10184000E80085FF0DC050E040E063E070E083E613
:1018500097E00E94B5038091E8008E778093E800BE
:101860000895BC0184E00E94070C0895BC0183E048
:101870000E94070C0895CF93DF93EC0181E08093E1
:10188000E9008FEF9091E800815095FD06C095ED3D
:101890009A95F1F700008111F5CF8091E80085FF5E
:1018A00014C050E040E068E070E0CE010E94B50353
:1018B0008091E8008E778093E80088E0FE01A9E639
:1018C000B7E001900D928A95E1F7DF91CF910895ED
:1018D00081E08093E00080E28093D8001092C900FC
:1018E0008FE19EE40197F1F700C0000087E090EBE4
:1018F000DC018093C8079093C907A093CA07B093EF
:10190000CB0788E19CE00FB6F894A895809360001F
:101910000FBE90936000FFCFCF93DF9380913B0386
:10192000882339F165EC8EEF0E94A20B61E08DEF08
:101930000E94A20BD0E0C0E0C093B407DE01A5581E
:10194000BD4FE5EBF7E08D91819387E0E53CF8072B
:10195000D1F724E630E041E150E064EB77E080EA43
:101960000E94B82E892B09F02FC06096C03CD1058B
:1019700019F710923B03209A35B13E7F25B12160C3
:101980004FB7F8948CE393E0FC015191CF0168E0EC
:1019900025B9000000C057FF35B9550F000000C041
:1019A00000C000C035B900C06A9591F7F3E08E34ED
:1019B0009F0751F74FBF8FE594E00197F1F700C003
:1019C0000000DF91CF91089581E080937A02D1CF1A
:1019D000CF93DF93C7EAD1E060E0CE010E942530CB
:1019E0002196C11584E0D807B9F7DF91CF9108950A
:1019F0001F93CF93DF93122F8430E0F46430D0F440
:101A00004C30C0F4C42FD0E0CC0FDD1F98E1699FAB
:101A1000C00DD11D112490E6899FC00DD11D112448
:101A2000632FCE0187960E942530612FCE018896C4
:101A30000E942530DF91CF911F910895AF92BF9200
:101A4000CF92DF92EF92FF921F93CF93DF9388E2C2
:101A5000C82E84E0D82ED0E07601C0E014C0F50195
:101A600025913491412F6C2F8D2F0E94F80C82E02C
:101A7000A80EB11C1F5F1C3091F788E1E80EF11C25
:101A8000CF5FC43019F0570110E0E9CFDF5F80E687
:101A9000C80ED11CD43001F7DF91CF911F91FF9078
:101AA000EF90DF90CF90BF90AF900895CF93C82F65
:101AB0006FEF811162E283E290E00E9425306FEFC8
:101AC000C11169E084E290E00E9425306FEFC111FE
:101AD00064E285E290E00E942530CF91089580E095
:101AE0000E94560D60E086E290E00E9425300E9440
:101AF0001E0D0E94E80C81E00E94560D08950F9380
:101B00001F93CF93DF93843030F5643020F54C3051
:101B100010F5C42FD0E0CC0FDD1F28E1629FC00D6F
:101B2000D11D112430E6839FC00DD11D1124CE019B
:101B300087960E940730082F10E0102F0027CE0153
:101B400088960E9407309801282BC901DF91CF9118
:101B50001F910F91089590E080E0F8CF462F8430D8
:101B600040F4743030F46C3020F4672F0E947F0D05
:101B7000089590E080E00895CF92DF92FF920F9356
:101B80001F93CF93DF936C010091B3078091A5035E
:101B9000082BC7E0D0E010E0FC2EC8010C2E02C0DC
:101BA000959587950A94E2F780FD0CC02197A0F7E0
:101BB000F12C8F2DDF91CF911F910F91FF90DF902E
:101BC000CF900895B6018C2F0E94AE0D0E94690936
:101BD000019761F3EECFCF93DF93EC010E94BC0D30
:101BE000BE010E94AE0D0E946909DF91CF91089558
:101BF000FC0183819481892B29F080819181892343
:101C00008F3F51F480E00895843FE1F717C0883E8C
:101C1000A8F0813FB9F712C0808191810E94EB0D3D
:101C200092959F70963099F358F4925F9F7092301E
:101C300048F7803F19F040F7883E20F781E008958B
:101C40009A5FF4CF83E290E00E940730823289F4F9
:101C500084E290E00E940730893059F485E290E0F8
:101C60000E94073091E0843209F090E0892F817062
:101C7000089580E0FCCFCF9384E090E00E9407308D
:101C8000C82F82E290E00E940730982F8C2FCF91CE
:101C900008951F93CF93DF93EC01FC01EE5DFD4FA0
:101CA00080816823B1F00E94C82F182F0E94C82F8E
:101CB0008F77782F20E8720F08F47FEF612F8091E3
:101CC00084070E945507462F282F672FCE010E94B8
:101CD000E905DF91CF911F91089546E050E06CE156
:101CE00070E081E897E00E94153010925007089547
:101CF000E1E8F7E085E08083809121019091220165
:101D0000A091230181839283A3838FE784838FEF44
:101D100085830E946D0E08958091A3039091A20384
:101D2000892B80935A029091A403992391F0892BD7
:101D300080935A0220E08CE592E0FC013191CF01C2
:101D400031112F5FF2E082369F07B9F721110E940F
:101D5000E90A48E050E06AE973E08AE592E00E940F
:101D6000E12F892BA9F088E0EAE5F2E0AAE9B3E0E7
:101D700001900D928A95E1F7E0915B07F0915C0785
:101D8000309731F00280F381E02D8AE592E00995E9
:101D9000089590E080E00E94100590E080E00E94AD
:101DA000FA041092A2030E948C0E08958093B30748
:101DB0000E94C90E08958091B307982F96709630AF
:101DC00021F488600E94D60E0895877FFBCF21E022
:101DD00030E001C0220F8A95EAF720958091B30781
:101DE00082230E94D60E08959091990380958923AD
:101DF00080939903282F277091F4282F082E000C28
:101E0000330B9217130659F09091B20392FF07C05B
:101E10008595859585950E94E70E10929903089502
:101E2000CF93C091B203C2FB992790F9981791F014
:101E300080FBC2F9C093B2036091B10384E090E0EB
:101E40000E9425306C2F82E290E00E94253082E0D3
:101E50000E94F40ECF91089521E030E001C0220FDE
:101E60008A95EAF78091B307822B0E94D60E0895D7
:101E70008093A5030E94C90E08951092A303ECE578
:101E8000F2E086E0DF011D928A95E9F70E94C90E13
:101E90000895AAE2B0E0EFE4FFE00C94272F85E775
:101EA00097E02091F100DC012D93CD01B7E08D3753
:101EB0009B07B9F780917607833009F472C0B8F4B4
:101EC000813009F449C0823009F4B3C08091E80040
:101ED00083FF8BC280917507909176079A3008F046
:101EE00084C2E92FF0E0E255FF4C0C946F2F8A304A
:101EF00009F48EC08B3009F471C0893039F78091B4
:101F00007507813219F78091790790917A070097C8
:101F100011F00297D9F68091E800877F8093E8005E
:101F20008091E80082FF38C09091F3008091F20028
:101F3000029731F48091F100813011F0863021F464
:101F40008091F100809368078091E8008B778093FF
:101F5000E8000E94DF03BACF80917507813A09F04B
:101F6000B5CF8091E800877F8093E8008091790762
:101F700090917A07892B61F468E089E697E070E038
:101F80000E948B048091E8008B778093E8009ECFBD
:101F900060E090E080E0F3CF809173078111C0CFC3
:101FA00095CF80917507813A09F090CF809179079C
:101FB00090917A07892B09F089CF8091E800877F7B
:101FC0008093E8008091E80080FFFCCF80911D01A4
:101FD0008093F1008091E8008E77B9CF80917507EA
:101FE000813209F073CF8091790790917A07892B1C
:101FF00009F06CCF8091E800877F8093E8000E9411
:10200000DF038091770780931D010E943D0F5ECF13
:1020100080917507813209F059CF8091E800877F60
:102020008093E8000E94DF03809178078093670720
:102030004DCF80917507813A09F048CF8091E80033
:10204000877F8093E8008091E80080FFFCCF80913B
:102050006707BECF803899F0823809F0C6C18091F9
:1020600079078F70873008F0C0C18093E9008091B4
:10207000EB0085FB882780F91092E90006C080916B
:10208000710790917207911182609091E800977F9B
:102090009093E8008093F1001092F1008091E800A5
:1020A0008E779FC1882309F48DC1823009F09DC1CC
:1020B00080917707811190C1809179078F702FEF00
:1020C000280F263008F091C18093E9002091EB00A1
:1020D00020FF82C1933031F48091EB0080628093C5
:1020E000EB007AC19091EB0090619093EB0021E0BE
:1020F00030E001C0220F8A95EAF72093EA0010929F
:10210000EA008091EB008860EACF81116EC11091E6
:1021100077071F778091E3008078812B8093E3001D
:102120008091E800877F8093E8000E94DF03809120
:10213000E80080FFFCCF8091E30080688093E3009B
:1021400082E0111183E0809373074FC18058823081
:1021500008F04BC120917707309178072C3DE3E0E0
:102160003E07A1F583E08A838AE289834FB7F8941A
:10217000DE01139620E03EE051E2E32FF0E05093C1
:102180005700E49120FF03C0E295EF703F5FEF70CE
:102190008E2F90E0EA30C0F0C7968D939D932F5F0D
:1021A000243159F74FBF8091E800877F8093E80082
:1021B0006AE270E0CE0101960E948B048091E800F3
:1021C0008B778093E80011C1C096E7CF80917907A3
:1021D00090917A07432F55274330510509F44AC09F
:1021E00078F54130510509F47AC08BE590E0E8EAD2
:1021F000F5E04230510509F0F8C02091E800277F52
:102200002093E80020917B0730917C078217930789
:1022100008F49C0140E02115310509F065C0411129
:1022200063C08091E80082FDC9CF80917307882345
:1022300029F2853019F28091E80083FFF2CFBECFFA
:102240004132510509F43CC04232510509F0CDC07C
:102250008330910508F0C9C0FC01EE0FFF1FE45860
:10226000FE4F0190F081E02D87589E4FDC018C914C
:1022700090E01AC0332721303105D1F02115310506
:1022800061F02230310509F0B0C0E5E1F6E0E491FB
:102290008E2F90E0E5E1F6E007C0E1E5F6E0E4919D
:1022A0008E2F90E0E1E5F6E0009709F49EC0A5CFFF
:1022B000E9E3F6E0E4918E2F90E0E9E3F6E0F4CF75
:1022C0008330910508F091C0880F991FFC01EE57EB
:1022D000FE4F0190F081E02D89E090E08ECF82E109
:1022E00090E0E3E0F6E089CF80917307882309F45A
:1022F00065CF853009F462CF8091E80083FD5ECF21
:102300008091E80082FD8DCF8091E80080FF83CF2F
:102310009091F3008091F2002115310519F0883079
:10232000910550F041E0089709F040E08091E80005
:102330008E778093E8006FCF44914093F1003196FF
:10234000215031090196E8CF803809F04EC08091C4
:10235000E800877F8093E800809174078093F10004
:102360009DCE811142C0109177071230F0F5809117
:10237000E800877F8093E800109374070E94DF03D2
:10238000112311F084E005C08091E30087FDFACFAE
:1023900081E08093730742E061EC81E00E94FE03DC
:1023A00042E261EC84E00E94FE0342E261EC82E0E2
:1023B0000E94FE0342E260EC83E00E94FE038091F3
:1023C000730713C080917707813079F481E09330EF
:1023D00009F080E0809372071092E9008091E80094
:1023E000877F8093E8000E94DF038091E80083FFED
:1023F0000AC08091E800877F8093E8008091EB001D
:1024000080628093EB00AA96E3E00C94432F0E9435
:102410003D0F2FEF84E39CE0215080409040E1F796
:1024200000C0000088E19CE00FB6F894A895809366
:1024300060000FBE90936000FFCF882321F00E94C0
:10244000EF0A0E948C0E0895882339F09091A3031F
:10245000982B9093A3030E948C0E0895882309F46F
:102460004DC0823879F40E94260581FF47C089E378
:102470000E94030B0E948C0E89E30E94F60A0E94C0
:102480008C0E0895833859F40E94260580FF36C0CB
:1024900083E50E94030B0E948C0E83E5EECF843807
:1024A00059F40E94260582FF29C087E40E94030B8D
:1024B0000E948C0E87E4E1CF9CEF980F913AE8F2EE
:1024C00090E2980F983050F4877091E001C0990F16
:1024D0008A95EAF7892F0E94EF0AD1CF9BE5980FE2
:1024E000933028F490E080E00E9410050895885A07
:1024F000873120F490E080E00E94FA040895CF93A1
:10250000C82F8823C9F08238C9F40E94260581FDAE
:1025100013C089E30E94030B0E948C0E2FEF87EEFD
:1025200093E0215080409040E1F700C0000089E333
:102530000E94F60A0E948C0ECF9108958338A1F470
:102540000E94260580FDF8CF83E50E94030B0E94C0
:102550008C0E2FEF81EE94E0215080409040E1F707
:1025600000C0000083E5E4CF8438A1F40E94260572
:1025700082FDE2CF87E40E94030B0E948C0E2FEFB6
:1025800081EE94E0215080409040E1F700C00000CF
:1025900087E4CECF8CEF8C0F813A68F4ECE5F2E063
:1025A0008191C817A1F122E0E236F207C9F78C2F1A
:1025B0000E94030BBFCF80E28C0F883068F4C77095
:1025C00021E030E001C0220FCA95EAF78091A30311
:1025D000822B8093A303AECFEBE5EC0FE33040F406
:1025E000F0E0EC5DFE4F808190E00E941005A4CFEA
:1025F000C85AC73108F0A0CFEC2FF0E0EE0FFF1F54
:10260000E95DFE4F808191810E94FA0495CF8C2F65
:102610000E94F60A0E948C0ECACF1F93CF93DF93BD
:10262000182FD0E0C0E0893311F4C0E5D0E0812F4D
:102630000E947F12209739F4812F0E942E12DF9181
:10264000CF911F9108958FE99FE00197F1F700C0A6
:1026500000002197EFCF90E080E00E940F30883E8D
:102660009E4F19F40E94220E089580E0089568EEAE
:102670007EEF90E080E00E94433060E082E090E0F6
:102680000E94253060E083E090E00E9425301092A7
:10269000A50360E084E090E00E94253064E082E2DF
:1026A00090E00E94253060E085E090E00E942530B7
:1026B00060E086E090E00E9425306FEF87E090E0D8
:1026C0000E94253040E050E0BA0188E090E00E948E
:1026D000373060E08DE090E00E94253040E050E02F
:1026E000BA0188E190E00E94373060E087E190E035
:1026F0000E94253040E050E0BA018CE190E00E9459
:10270000373070E060E080E290E00E94433040E0CB
:1027100050E0BA0188E190E00E94373080E00E94EA
:10272000560D0E946F0D40E050E0BA018FE090E03E
:102730000E94373040E050E0BA0183E190E00E940F
:1027400037300895A4E0B0E0E8EAF3E10C94222FDA
:102750000E94182E65EC8EEF0E94A20B60E08DEFB8
:102760000E94A20B10E060E0812F0E94A20B1F5F6D
:102770001831C9F765EC8EEF0E94A20B61E08DEF76
:102780000E94A20B10E060E0812F0E94A20B1F5F4D
:10279000103CC9F765EC8EEF0E94A20B63E08DEF51
:1027A0000E94A20B60E08FE00E94A20B60E080E13B
:1027B0000E94A20B6FEF81E00E94A20B61E080E01B
:1027C0000E94A20B8FE39CE90197F1F700C0000083
:1027D00000E411E098E1C92EEE24E394F12CDD240D
:1027E000D39444E050E0B801CE0101960E94D82F66
:1027F0006A815B814C818981837090E0E62FE69548
:10280000E695E695C89E9001C99E300D11242E597B
:102810003D4FE20FF32FF11D6770D70101C0AA0FE2
:102820006A95EAF760816A2B6083E52FE695E69565
:10283000E695E20FF32FF11D5770B70101C0660F47
:102840005A95EAF75081562B5083E42FE695E6958A
:10285000E695E20FF32FF11D4770970102C0220F9A
:10286000331F4A95E2F7A9012081242B2083865843
:102870009D4FFC01D0820C5F1F4FF1E00C3F1F0702
:1028800009F0AFCF65EC8EEF0E94A20B60E08DEFF8
:102890000E94A20B82E6E82E82E0F82E10E0F701FB
:1028A00061917F01812F0E94A20B1F5F1831B9F740
:1028B00010927A022496E8E00C943E2FA4E0B0E057
:1028C000E4E6F4E10C94252FF62E042F122F853325
:1028D000910550F5880F991F880F991FBC01605C06
:1028E0007E4F44E050E0CE0101960E94D82F8981AE
:1028F0008370AA81E82FF0E020EC829FC0011124B0
:1029000085589D4FA80FB92FB11DFC92AB81A80F20
:10291000B92FB11D0C932C81820F911DDC011C93EA
:10292000E55CFC4F81E080832496E5E00C94412F28
:10293000FF920F931F93CF93DF93F82E062F142F40
:10294000D0E0C0E0212F402F6F2DCE010E945E14F9
:102950002196C533D105B1F7ECE3F3E0F1820083B2
:102960001283339683E0EE34F807C1F7CDB7DEB7B4
:10297000E5E00C94412F8F3291051CF40E945E1407
:1029800008958F97FC01EE0FFF1FE80FF91FE45C1D
:10299000FC4F61834083228308951F920F920FB6EC
:1029A0000F9211242F933F934F935F936F937F93D5
:1029B0008F939F93AF93BF93CF93DF93EF93FF9347
:1029C000D091E900DF708091EC00C82FC17080FDCC
:1029D000C0E81092E9008091F000877F8093F000BA
:1029E00078940E94490F1092E9008091F00088606D
:1029F0008093F000CD2BCF70C093E900FF91EF9151
:102A0000DF91CF91BF91AF919F918F917F916F9106
:102A10005F914F913F912F910F900FBE0F901F909C
:102A200018951F920F920FB60F9211242F933F9378
:102A30004F935F936F937F938F939F93AF93BF93C6
:102A4000EF93FF938091E10082FF09C08091E20043
:102A500082FF05C08091E1008B7F8093E10080912F
:102A6000DA0080FF24C08091D80080FF20C08091D0
:102A7000DA008E7F8093DA008091D90080FFA9C0B0
:102A800080E189BD82E189BD09B400FEFDCF81E00E
:102A90008093730780916607811109C00E946503C6
:102AA0000E9430048091E20084608093E200809173
:102AB000E10080FF1CC08091E20080FF18C080917F
:102AC000E2008E7F8093E2008091E200806180933B
:102AD000E2008091D80080628093D80019BC85E024
:102AE0008093730780916F00826080936F00809164
:102AF000E10084FF32C08091E20084FF2EC080E1BB
:102B000089BD82E189BD89B5982F917080FFFBCF87
:102B10008091D8008F7D8093D8008091E1008F7ED6
:102B20008093E1008091E2008F7E8093E2008091AB
:102B3000E20081608093E20080917407882309F4A9
:102B40004EC084E0809373078091730780916F007B
:102B50008D7F80936F000E9426058091E10083FFA6
:102B600027C08091E20083FF23C08091E100877F2E
:102B70008093E10082E08093730710927407809144
:102B8000E1008E7F8093E1008091E2008E7F809350
:102B9000E2008091E20080618093E20042E060E028
:102BA00080E00E94FE038091F00088608093F00036
:102BB000FF91EF91BF91AF919F918F917F916F9115
:102BC0005F914F913F912F910F900FBE0F901F90EB
:102BD000189519BC109273071092660768CF809100
:102BE000E30087FD93E090937307AECF78941F9234
:102BF0001FB61F9211248F939F93AF93BF93809121
:102C00005F0790916007A0916107B09162070196FC
:102C1000A11DB11D80935F0790936007A09361078A
:102C2000B0936207BF91AF919F918F911F901FBE8C
:102C30001F9018959C014FB7F89480915F07909171
:102C40006007A0916107B09162074FBF821B930B91
:102C500008952FB7F89480915F0790916007A09135
:102C60006107B09162072FBF08950F931F93CF9311
:102C7000DF93C62FD42F022FFC0182818823A9F075
:102C80006093B2070E9429169093B1078093B00712
:102C9000C77081E001C0880FCA95EAF70E9424122C
:102CA000DF91CF911F910F9108958091B207681322
:102CB00032C08091B0079091B1070E941A168639F0
:102CC000910548F510E21D0FCD17B9F080E28C0F89
:102CD000883040F4C77081E001C0880FCA95EAF7D8
:102CE0000E941D12183048F481E09D2F977001C09A
:102CF000880F9A95EAF70E942412802F0E940D13E4
:102D0000183070F6D77081E001C0880FDA95EAF7C5
:102D10000E941D12C5CFC77081E001C0880FCA95FF
:102D2000EAF7F6CFA5E0B0E0E8E9F6E10C94192F58
:102D30008C01FC0183819481892B31F08081918108
:102D400089238F3F09F003C62596E1E10C94352FC6
:102D50000E94BC0DF82E682F89819A810E945A0B1F
:102D600069817A818F2D0E94AE0D7C01F80122814C
:102D7000222309F4DFC590568115F0E29F0750F039
:102D8000905E811530E1930728F0915C81159F4199
:102D900008F061C0C7019927AC0144505109443281
:102DA000510518F08B970E9780F4E091C503F0E081
:102DB000EE0FFF1FE653FC4F808191818F3F3FE76D
:102DC000930719F0019691838083C70182519F4533
:102DD000409708F079C58FEF93E00E94073081118A
:102DE00028C08EEEE80E57EA852E99249394E110C0
:102DF0003CC01C821B82442443944AE0342E74015C
:102E0000FFEFEF1AFF0AC4010E94073089831A827C
:102E1000882379F09FEF980F9330A8F58A83498231
:102E200022E0820E911CC7010E9407308B83811122
:102E30002BC080919903877009F486CFF8018281B5
:102E4000882309F481CF8091B20382FF7DCF82E095
:102E50000E94F40E79CF90E080E0FFEFEF16F104CE
:102E600011F008F099CFC70197CF811494E099062B
:102E700001F3C4010E940730811101C0EA94EFEF11
:102E80008E1A9E0AB4CF4701CE0101967C01F7014C
:102E90002081222309F4B3CF213009F047C091816A
:102EA0008281913031F4F2E0EF0EF11C0E940D139B
:102EB00007C0923049F422E0E20EF11C0E947F121A
:102EC0003FEFE31AF30AE3CF933031F432E0E30E3D
:102ED000F11C0E942E12F4CF943021F08FEFE81AEB
:102EE000F80AEECF92E0E90EF11C30E020E0B701E5
:102EF0006F5F7F4FF70141818053990B8A309105B5
:102F000050F021503109E0F28FE99FE00197F1F78D
:102F100000C00000F6CF329EF001339EF00D112468
:102F20009C012E0F3F1F842F7B01E1CFE22FF0E0A9
:102F3000EC5BFD4F5490822F86958695869590E0A8
:102F4000FC01EC5CFD4F64902770712C022E02C0D6
:102F5000759467940A94E2F7E1E06E227724FC010D
:102F6000EC5DFD4FA490B12C022E02C0B594A79445
:102F70000A94E2F7F1E0AF22BB24FC01EC5EFD4FC6
:102F8000C490D12C02C0D594C7942A95E2F721E0D1
:102F9000C222DD246114710419F081EE0E947F12B7
:102FA000A114B10419F086EE0E947F12852D0E94B3
:102FB0000D13A114B10419F086EE0E942E126114B3
:102FC000710419F081EE0E942E12C114D10409F48B
:102FD00077CF8CE26BCF81E00E942C0F0E94DB0E3A
:102FE00028CF81E00E94E70EF9CF222309F4ADC477
:102FF00082E0F2CF222361F084E30E947F1284E317
:103000000E942E1286E00E947F1286E00E942E12FD
:10301000F8018281882309F4ABC41092B207F3E06F
:10302000EF16FDE5FF0608F084C02AEFE2162CE556
:10303000F20630F4C70182509C45449708F086C0E0
:103040000E943B0E9093B2038093B103E2E1EE162F
:10305000ECE5FE0609F499C108F0D7C029E0E216B4
:103060002CE5F20609F46FC108F09AC085E0E81675
:103070008CE5F80609F457C108F084C0E3E0EE16C9
:10308000ECE5FE0609F447C108F049C18091B1039F
:10309000816022E0E2162CE5F20609F4B3C06091EB
:1030A000B103F090B20384E090E00E9425306F2DD0
:1030B00082E290E00E9425300E943D0FBACE22238A
:1030C00009F4A6CF81EE0E947F1285E30E947F1251
:1030D00081EE0E942E1285E30E942E1284E00E944F
:1030E0007F1284E093CF95EFE9169CE5F906D1F0C5
:1030F000A8F027E245EE66EEF6EFEF16FCE5FF06D8
:1031000009F086CFC8010E94351693CE27E245EE1E
:1031100065EEF8CF26E241EE60EEF4CF27E245EE11
:1031200064EEF0CF26E241EE62EEECCF28E241E021
:10313000EFCF35EAE3163DE5F30609F481CFE0F47D
:1031400091E6E9169DE5F90609F47ACF86E1E816DD
:103150008CE5F80609F084C48091A3038A7A91E093
:1031600009F490E090934E03811139C189E20E94E5
:10317000030B0E948C0E5DCEC7018D5A9D450397AF
:1031800028F75ECF8091B103806237E0E3163CE51B
:10319000F306C1F108F4D3C08091B103806432C05A
:1031A0009DE0E9169CE5F90609F4D7C0A0F48091EA
:1031B000B1038E7FFBE0EF16FCE5FF0619F180916D
:1031C000B1038C602CE0E2162CE5F206D8F0809179
:1031D000B1038D7F17C03FE0E3163CE5F30609F429
:1031E000CCC008F4BEC090E1E9169CE5F90609F4EC
:1031F000C8C08091B1038F7BE1E1EE16ECE5FE06DD
:1032000009F04DCF8093B1034ACFFFEFEF16FCE5F5
:10321000FF0609F4C4C0D8F53AEFE3163CE5F3061F
:1032200009F485C0D0F494E1E9169CE5F90609F4A7
:10323000C4C008F4B0C0F5E1EF16FCE5FF0609F0E4
:103240002ECF8091B10382FB992790F921E092273C
:1032500090FB82F990FB83F9D5CF2CEFE2162CE599
:10326000F20609F482C008F466C08DEFE8168CE51A
:10327000F80609F47EC08091B20383609EEFE916E0
:103280009CE5F90609F00BCF8093B20308CFE1E685
:10329000EE16EDE5FE0609F49BC0A0F421E0E2166F
:1032A0002DE5F20609F492C008F47DC060E082E0EA
:1032B000E8168DE5F80609F0F2CE8EE090E00E9467
:1032C0002530EDCE9DEAE9169DE5F90601F168F499
:1032D0009091B103892F8E7F90FF8160F5EAEF1600
:1032E000FDE5FF0609F48ECFDACE2EEAE2162DE5D3
:1032F000F20679F13FEAE3163DE5F30609F0CFCE99
:103300009091B203892F877F93FF8860BDCF809112
:10331000B2038860B9CF8091B103826073CF80918E
:10332000B10384606FCF8091B10388606BCF8091CF
:10333000B2038160A9CF8091B2038260A5CF809152
:10334000B10380615FCF0E943D0F8091B10380681F
:1033500059CF8091B203877F97CF8091B1038B7F44
:1033600051CF8091B103877F4DCF8091B2038E7F83
:103370008BCF8091B2038D7F87CF8091B1038F7EF9
:1033800041CF8091B1038F7D3DCF0E943D0F809151
:10339000B1038F7737CF8091B103837F33CF809193
:1033A000B2038C7F71CF8091B203982F909591706A
:1033B0008E7F892B90FB81F967CF0E943D0F909102
:1033C000B103892F97FB87F980581CCF61E075CF37
:1033D0009091B103892F8F7E94FF806113CF85E395
:1033E000C6CE80914E03811104C089E20E94F60A84
:1033F000C0CE85E3FBCF4FEC55E06AED75E00E944F
:10340000330517CD4AED55E06FEC75E0F8CF40EA93
:1034100055E06BEA75E0F3CF48E655E066E775E006
:10342000EECF61E081E00E94B60503CD0E943D0F22
:103430009FEFE4E3FCE09150E040F040E1F700C092
:1034400000000E94680C8091B20382FB882780F9FB
:1034500091E089270E94100FF8018281E080F180BD
:10346000882309F445C0C7010E94BC0DD82E682FDF
:10347000C7010E945A0BB7018D2D0E94AE0D0E940C
:1034800069097C01882EF801D280B580B2943FE0B2
:10349000B322809199038770C1F0AD2CDD20B1F08B
:1034A0008F2D807F803421F080E28E0D883068F08F
:1034B0008091B20382FF09C082E00E94F40E8091E5
:1034C00099038770AA24A3948111A12C9F2C929414
:1034D0002FE09222FBE0F91508F479C0E92DF0E025
:1034E000E854FF4C0C946F2F81E0B4CF80E0B2CF52
:1034F000C7010E94260BD82EBECF2F2D2F70C22EB3
:103500008F2D807F19F0C29490EFC922DD20B9F091
:10351000CC2069F080E28E0D883010F0811009C057
:103520008091A303C82AC092A3030E948C0E8E2D03
:103530004CC08091A203C82AC092A203F6CF8E2D60
:103540000E942E12CC2009F442C080E28E0D8830F9
:1035500010F0811004C08C2D0E94EF0A06C0C094A8
:103560008091A203C822C092A2030E948C0E2FC099
:103570003F2D3F70C32E8F2D807F803219F0C29473
:1035800080EFC822882089F081E0881609F468C09D
:10359000DD2009F472C0BB2009F468C0F801858100
:1035A00080FFC5CF8F70858361C02091B20322FD5B
:1035B00035C0DD2069F1CC2039F08091A303C82A01
:1035C000C092A3030E948C0E80E00E947F12292DDE
:1035D0002850330B2430310510F40E942605AA2010
:1035E00009F4B2CB8091990380FDAECBF801128231
:1035F0008595859585950E942C0FC8010E9492168D
:10360000809199038595859585950E94E70E9CCBC1
:1036100080E00E942E12CC20D1F29DCFDD2099F0C7
:103620009091A4038C2D892BB11003C00E94241209
:10363000CECFE1E0BE12FACF22FFC9CF981739F200
:103640008093A403C4CFB11006C00E94E90A8C2D58
:103650000E941D12BCCFF1E0BF1609F4B8CFF5CF20
:10366000DD2031F025E02B1508F4B1CF8C2DDECF15
:1036700034E03B1508F4ABCFEACFBB2041F3F9E3CC
:103680008F1209C02FEF37EE83E021503040804089
:10369000E1F700C000008E2D0E942E1298CF8F2DD2
:1036A00086958695837061F0813009F090CFC701CF
:1036B0009370D11002C090E080E00E94FA0487CF9E
:1036C000C7019370D11002C090E080E00E94100505
:1036D0007ECF8F2D837091F5D11079CF4E2D4295ED
:1036E00046954770440F440F8E2D8F70042E01C0F5
:1036F000880F0A94EAF72E2D2071E4FE07C02FE010
:1037000030E001C0220F4A95EAF720953F2D36950B
:1037100036953370323069F050F44091A503313062
:1037200029F0822B84230E94380F51CF842B822BC7
:10373000FACF282B8091A5038227F5CF8695DD202F
:1037400011F08F2D8170882309F441CF4E2D4295C1
:1037500046954770440F440F8E2D8F70042E01C084
:10376000880F0A94EAF72E2D2071E4FE07C02FE09F
:1037700030E001C0220F4A95EAF720953F2D36959B
:1037800036953370323069F050F44091B3073130E0
:1037900029F0822B84230E94D60E19CF842B822BF2
:1037A000FACF282B8091B3078227F5CF9F2D9F70EA
:1037B000F92EDD2029F0892F0E942C0F8E2D36CF77
:1037C0008E2D0E941D128F2D0E94E70E00CF8E2D90
:1037D000E2EF8E16B1F1E81570F0F0EF8F16D1F030
:1037E00021EF821691F0DD2009F45EC0B1109FCE6A
:1037F0008F2D8F712AC033EF831651F194EF891208
:10380000F2CF8091B20382FD2FC08F2D8F71DD200A
:10381000D9F21BC0DD2081F0E4E0EB1508F4D7CE2F
:103820002F2D2F7181E090E001C0880F2A95EAF7D3
:103830009091B3078927AFCFF5E0FB1508F4C7CE09
:10384000EFCF8F2D8F71D110BFCF0E942C0FBFCE25
:1038500080E0DD2009F49FCF9F2D9F7181E001C0A2
:10386000880F9A95EAF797CFDD2099F02F2D2F71C9
:10387000F22E822F0E942C0F8091B20382FF07C08C
:1038800038E0F39EC00111248360809399038F2D4B
:10389000DCCF81E00E94F40E81E08B1508F097CE1A
:1038A00082E00E94F40E93CEBB2059F0893309F0D8
:1038B000F2CE9FEFE7EEF3E09150E040F040E1F709
:1038C000E8CE8F2D8F7180CFF0E1EF16FFE5FF0678
:1038D00009F481CB31E1E3163FE5F30609F485CB2A
:1038E00084EBE8168DE5F80609F484CB95EBE91630
:1038F0009DE5F90609F4E3CBE3EFEE16ECE5FE06F1
:1039000009F408CC08F0EFCB28EDE2162CE5F2061E
:1039100009F4FCCB39EDE3163CE5F30609F406CCDB
:1039200087EDE8168CE5F80609F072CB26E241EE49
:1039300061EEE8CB80E1E8168FE5F80609F451CB9B
:1039400091E1E9169FE5F90659F682E04BCB85E057
:10395000DE01119601900D928A95E1F7F80122811E
:1039600089819A812111F4C90E94260BF82EF8C989
:10397000F6E1EF16FCE5FF0609F433CD8091A303D1
:10398000827229ECE2162CE5F20609F445CDE0F549
:1039900095ECE9169CE5F90609F439CDE0F4F3EC71
:1039A000EF16FCE5FF0609F426CD08F02BCD32EC2E
:1039B000E3163CE5F30609F04FCD8091810791E0D5
:1039C00089278093810710921C01809150078160A4
:1039D000809350072ECA44E855E062E975E097EC01
:1039E000E9169CE5F90609F40ACD4BEA55E060EAD0
:1039F00075E0E8ECEE16ECE5FE0608F400CD42E9D1
:103A000055E064E875E0FBCCFDECEF16FCE5FF0645
:103A100009F407CDC8F449E355E067E475E03BECF1
:103A2000E3163CE5F30609F4EACC46E755E068E620
:103A300075E09CECE9169CE5F90608F4E0CC47E457
:103A400055E069E375E0DBCCE6EDEE16ECE5FE064D
:103A500008F4EFC9FDE5EF16FF0609F4EAC9FCCC4E
:103A60002AE5E2162DE5F20609F43ECD78F4E114DC
:103A70008CE5F80609F4DACC9EEDE9169CE5F9062A
:103A800009F0EACC0E9437130E940712ECE5EE160B
:103A9000EDE5FE0609F4D7CC08F428CD27EAE216B6
:103AA0002DE5F20689F3D8CC1F93CF93DF93809155
:103AB0006603807F09F049C080916303882309F47D
:103AC00044C080919803D091670360916103709125
:103AD0006203A0916403B0916503C62FC72316E06B
:103AE000D81799F190E0109711F0CF3F19F4019693
:103AF0008770F6CF189F9001199F300D1124F9019E
:103B0000E859FC4F41814713F2CF40814613EFCF74
:103B100042814111ECCF438154814A1B5B0B4639F2
:103B2000510528F7809166038F708061809366034A
:103B3000F901E359FC4F80818F708061808381E6B9
:103B400093E00E9492160E941C0BDF91CF911F916F
:103B50000895A1E1B0E0EFEAFDE10C94202F8C0183
:103B600085E0F801DE011D9601900D928A95E1F73E
:103B7000F801E28081E6A82E83E0B82E609164030C
:103B8000709165036115710509F426C19091610377
:103B900040916203892F84238F3F09F41DC1208146
:103BA0003181C380D480F0906303F601E61BF70BEC
:103BB000FF2009F4DCC080916603582F507FE6395E
:103BC000F10508F09FC051116BC0FE2C431314C0C7
:103BD000921312C0E11010C08F7080618093660351
:103BE000C5010E94921680916603F80185838F2D8E
:103BF0006196EAE00C943C2FC114D10429F0822F85
:103C000083238F3F09F003C180E0F82FF170DF2E8E
:103C100080FF3CC0809198034091670356E0841375
:103C200015C02D873E878D859E850E94EB0D292F1F
:103C300022952F702230F0F0243018F59F70F1F0AB
:103C4000F8019581907FD1F4D12C1EC090E0589F4F
:103C5000F001599FF00D1124E859FC4F6181361392
:103C600006C06081261303C06281E6120FC0019670
:103C70008770D5CF9F7011F0882331F3805E883034
:103C800018F3C8010E949216FD2CB1CFEE2009F462
:103C9000AECF80916603816080936603F12CA7CF3D
:103CA000431306C0921304C0F801EE2009F479C052
:103CB000C8010E94F80D882309F1EE20F9F08091E7
:103CC0006603803270F0209161033091620338877F
:103CD0002F831986DB86CA868C87CE0107960E94C1
:103CE000921686E0F801A1E6B3E001900D928A9564
:103CF000E1F70E94541DFF24F39479CFC8010E947C
:103D00009216F9CF51110AC081E693E00E949216F3
:103D100086E0F50111928A95E9F7C0CF43130FC0F1
:103D200092130DC0E1100BC0F8018583C8010E94F9
:103D3000921686E0F50111928A95E9F758CFC801ED
:103D40000E94F80D8823D1F2EE20C1F28091660323
:103D5000803238F220916103309162033A832983E3
:103D60001B82DD82CC828E83CE010196B8CFE639EC
:103D7000F105F8F6FE2CEE2009F243131FC0921352
:103D80001DC08091660380FD10C0982F907F69F060
:103D9000F8018583903F31F0982F907F905F8F706E
:103DA000892B8583C8010E94921686E0F801A1E65E
:103DB000B3E001900D928A95E1F719CFC8010E94F6
:103DC000F80D81118ECF8091660381608093660328
:103DD000C8010E9492160BCFEE2009F48FCFC801C4
:103DE0000E94F80DF82E882309F488CF86E0F801A8
:103DF000A1E6B3E001900D928A95E1F7809161030D
:103E0000909162030E94EB0D0E94541DF0CE81E060
:103E10008E25FBCEA7E1B0E0E0E1FFE10C94272F77
:103E20004B8B5C8B6D8B7E8B8F8B61111092A20301
:103E30001A8A198A85E0FE017396DE011D960190AB
:103E40000D928A95E1F786E0FE013D96DE01179618
:103E500001900D928A95E1F7CE0107960E94A91D67
:103E6000882359F016E08091980390916703891395
:103E700043C06796E3E00C94432F86E0FE0137963B
:103E8000DE01119601900D928A95E1F78A859B8556
:103E9000892B41F38F81988589238F3F19F32091D6
:103EA000670330E0C9010196877099274091980314
:103EB0004817190671F40E943D0F10926703109283
:103EC000980386E0E1E6F3E0DF011D928A95E9F7C9
:103ED000C9CF96E0929FD001939FB00D1124A859AD
:103EE000BC4FFE01319601900D929A95E1F78093B7
:103EF00067030E941C0BB6CF819FC0011124885913
:103F00009C4F0E94A91D882309F4B3CF8091980388
:103F100090E001968770992780939803A4CFA8E03A
:103F2000B0E0E5E9FFE10C941C2F8E010F5F1F4FFD
:103F300088E0D8011D928A95E9F725E5E22E21E077
:103F4000F22ECC24C394D12C88248394912C55E652
:103F5000A52E51E0B52EF70181917F018F3F09F425
:103F600049C0F894E82FE295EF70F0E021A18F703E
:103F7000A40102C0440F551F8A95E2F7CA01922F8F
:103F8000982B91A392A18095892382A3789400C055
:103F900091E6692E91E0792EF801A60140955095A1
:103FA000D3016D913D01808191816F3F09F463C020
:103FB000262F22952F7030E0D90190962C9130E079
:103FC0006F7002C0359527956A95E2F720FD53C0C2
:103FD0008C299D29918380833296A614B70401F71A
:103FE000F701319780818F3F11F00E940F09B0EAED
:103FF000BA95F1F7CC0CDD1CE1E6EE16E1E0FE0629
:1040000009F0A9CF48E050E0B80189EA93E00E94A6
:10401000E12F892B99F188E0F801A9EAB3E001903A
:104020000D928A95E1F781E08093A8030E942916FA
:104030009093A7038093A6038091A6039091A70372
:104040000E941A160597F0F048E050E069EA73E024
:1040500088E497E00E94E12F892BC9F088E0E9EA23
:10406000F3E0A8E4B7E001900D928A95E1F781E0D2
:104070001092A80308C084239523ACCF8091A80395
:104080008111DACF80E02896EEE00C94382F80E0A2
:10409000EFCF8F938FB78F939F93EF93FF93809181
:1040A00051079091520701969093520780935107C0
:1040B000E0915207E695E695F0E0EA51FC4FE49175
:1040C000FF91EF919F918F918FBF8F911895CDB7F1
:1040D000DEB7E7970FB6F894DEBF0FBECDBF85B74A
:1040E000806885BF85B7806885BF84B7877F84BFB8
:1040F0000FB6F894A8958091600088618093600065
:10410000109260000FBE80E890E00FB6F8948093A4
:104110006100909361000FBE8DE099E09093590289
:10412000809358020E9465030E9430048091E2004F
:1041300084608093E2007894809173078823A1F0D3
:104140001091E9001F709091EC00892F817090FD13
:1041500080E8182B1092E9008091E80083FD0E940E
:10416000490F1F701093E90082E084BD93E095BD74
:104170009AEF97BD80936E000E94220E811102C0BB
:104180000E946F0D05E511E0D8018D918D018F3FE3
:1041900011F00E940F09B1E001361B07A9F787E96A
:1041A0000E940F0987EF0E940F0986EF0E940F09F6
:1041B00085EF0E940F0988E0E8E4F7E0DF01282F8F
:1041C0001D922A95E9F7E9EAF3E0DF011D928A954D
:1041D000E9F70E942B13811102C00E94371382E07D
:1041E00090E00E9407308093B5030E943B0E9093AD
:1041F000B2038093B1030E948F1FEFE3FCE9319774
:10420000F1F700C000000E948F1F8091480780FFD7
:1042100008C06FEF7FEF90E080E00E9443300E9483
:10422000680C83E090E00E9407300E94380F0E94E3
:10423000A213109287078FEF9FEF9093A1078093AF
:10424000A0079093A3078093A2079093A50780935C
:10425000A4079093A7078093A6079093A90780933C
:10426000A8079093AB078093AA079093AD0780931C
:10427000AC079093AF078093AE071092FC03909326
:104280001604809315049093180480931704909358
:104290001A048093190490931C0480931B04909338
:1042A0001E0480931D049093200480931F04909318
:1042B00022048093210490932404809323040E9479
:1042C0002B13811104C00E9437130E94780E46E020
:1042D00050E06CE170E081E897E00E94F72F1092C7
:1042E0005007809181078C7F11F40E94780E109204
:1042F000430780E8809322050E94182E6DE070E04D
:1043000087ED92E00E94B50B892BC9F58091430798
:1043100063E070E081FDFBC084ED92E00E94B50B8C
:10432000892B69F56DE070E084EC92E00E94B50B9A
:10433000892B29F50E94EE04605A75418F4F9F4FDB
:1043400060935307709354078093550790935607D3
:10435000E3E4F5E080E092E0DF019C011D92215052
:104360003040E1F78FEF9FEF90934607809345072A
:1043700081E08093580780935707109244078091FB
:1043800081008860809381008091810081608093AA
:1043900081008FB7F89420ED33E0309389002093AB
:1043A00088008FBF84E091E090935C0780935B0767
:1043B0008091730712E1853009F4BEC00E948F1FFF
:1043C00046EB53E05EA74DA788E497E098AB8FA734
:1043D0004EEB53E0DC01E6EBF3E0219131918D915E
:1043E0009D914E175F0709F4B4C028173907A9F348
:1043F000312C212CF12CAFA5B8A94D905D90B8AB14
:10440000AFA7EDA5FEA581919191FEA7EDA784151B
:10441000950509F4BFC29C01242535253BAB2AAB89
:104420006101E12C66246394712C8AA99BA98621E1
:104430009721892B09F4A0C2420186209720EEA281
:10444000FFA281E08114910409F480E088A70E9412
:1044500029168160782F9AA789A74EA15FA168A528
:104460008AA50E940A1F8114910439F0F601E857C9
:10447000FE4F80818F3F09F018C21BA64BA5042F69
:1044800010E08091FC03800F912F911D099774F12A
:10449000F8E0AF2EB12CA01AB10AB80163507C4FDE
:1044A000A5018DEF93E00E94EE2FB8016B5F7B4F6B
:1044B000A50185E094E00E94EE2FA501440F551F51
:1044C000B801660F771F6B5E7B4F85E194E00E9419
:1044D000EE2FB801635F7B4FA5018DE094E00E9451
:1044E000EE2F88E05BA5851B8093FC038091FC0385
:1044F00090E0E9A9AE2FB0E09D01220F331F2854B0
:104500003E4FAA0FBB1FBD0167547E4FE7C181ED2F
:1045100092E004CF80917307992381F00E948F1F4E
:10452000E8E4F7E081919191892B11F00C94F72D3B
:1045300037E0E035F307B1F7909172078091730788
:10454000853041F30E943D0F0E94260510922105FF
:1045500035CF2817390709F04BCF0E9429168C0157
:104560008091B3039091B40308171907A1F08FEF5E
:1045700089A38AA31BA20E9429168160782F9DA37C
:104580008CA349A15AA16BA18DA10E940A1F10936F
:10459000B4030093B3031DA6C090CA03D090CB030D
:1045A0000D2C000CEE08FF088091100190E0EAEC61
:1045B000F3E021E030E03296821793070CF028C236
:1045C0008091C6039091C703A091C803B091C9031D
:1045D0002FB7F89480905F0790906007A0906107D4
:1045E000B09062072FBF881A990AAA0ABB0A1091D5
:1045F0001001F9EC8F169104A104B10414F180911B
:10460000C50390E0019669E170E00E945B2F809302
:10461000C503880F991FFC01E653FC4F11821082DD
:10462000812F183108F087E18F5F809310010E947D
:10463000EE046093C6037093C7038093C8039093FE
:10464000C90322E0C216D104E104F1040CF4EDC167
:10465000A0E6BAEEA70196010E9468306B017C01CA
:1046600048EC149F90011124032E000C440B550BB1
:10467000280D391D4A1D5B1DA5E0B0E00E94683081
:104680009B01AC01C701B6010E947B3049015A0170
:1046900051EF85169104A104B1042CF0F0EF8F2E98
:1046A000912CA12CB12C8091C1039091C203A091B7
:1046B000C303B091C4032FB7F894C0905F07D090A4
:1046C0006007E0906107F09062072FBFC81AD90A0F
:1046D000EA0AFB0A85E6C816D104E104F10484F075
:1046E0000E94EE046093C1037093C2038093C303DE
:1046F0009093C4038091C0038093BF038092BE0354
:104700001091BF03A091BE03A11BBB0BA701960193
:104710000E94733024E630E040E050E00E944930CF
:10472000210F2093C003C0902504D0902604E09070
:104730002704F09028048FB7F89440905F075090BA
:10474000600760906107709062078FBF530142015C
:104750008C189D08AE08BF080E94EE0460932504E3
:10476000709326048093270490932804A091FC035F
:10477000ECEFF3E02A2F30E0BFEFCB0EDB1EE11CA5
:10478000F11CC418D508E608F708A31352C12093FA
:10479000FC032091210521115FC120918107E22FA7
:1047A000E370EBA7EE2319F0269526952BA7209111
:1047B0001C01213009F469C1222309F44FC12230C0
:1047C00009F450C7233009F459C78091580788234A
:1047D00099F120914507309146072115310539F0AF
:1047E0008091440761E070E0882309F46CC78091F0
:1047F0005707882309F10E94EE0400915307109196
:1048000054072091550730915607601B710B820B9E
:10481000930B6F3F7F4F8F4F9F4770F480915807E6
:10482000882351F062E070E084EE92E00E94B50BC4
:10483000892B11F4109257072DA521110E94DF0B2F
:104840000E94260590914707891721F0809347071A
:104850000E94EE0480917307843009F0A9CD83E0B3
:104860008093E9008091E80082FFA2CD8091E8006A
:1048700090E085FF07C00E948403882311F40C9404
:10488000312C91E08091E8008B778093E8009923A8
:1048900009F48ECDE981E150E33110F00C94C22C83
:1048A000F0E0EC53FF4C0C946F2F89AB31E03BA749
:1048B000E5CD90E0FC01E450FC4FD9015C915183BF
:1048C000DB015C915187B9A9B18B880F991FFC015D
:1048D000E450FC4F128E118E91E0842F41E0480F7E
:1048E000FBA59F1730F38093FC03892809F444C08B
:1048F000809181078C7F8C3309F03EC0F601E85728
:10490000FE4F80818F3FC1F1B12CA12C812C90E012
:104910009C01220F331FA90148545E4F5DAB4CAB85
:10492000D901A754BE4FBFABAEABF601EF50FB4F62
:10493000FCA7EBA78501912CF801E857FE4F808179
:104940008F3F61F0F81032C0E91030C0ABA5BCA5B4
:104950002C9130E2230F08F42FEF2C9393940F5FE8
:104960001F4F4CE09412E8CF83945CE0A50EB11C7D
:1049700080E3A816B104F1F6E394660C771C9FEF70
:10498000C91AD90AACE0EA1250CDEDA5FEA53297BE
:1049900051824082F394BCE02B0E311CE4E0FE1205
:1049A0002ACD0E94EE04F1E0FDA7F6CD90E0FC01D7
:1049B000EE0FFF1FE854FE4FACA9BDA92C9130812A
:1049C000231B880F991FFC01E857FE4FAEA9BFA912
:1049D0008C9191A9891B8802C00111242202800DAB
:1049E000911D11240E940807893208F0B7CF28E2F0
:1049F000382F231B08F420E0F801EF50FB4F213142
:104A000008F020E13081320F08F43FEF3083A6CF69
:104A100040815181052E000C660B770BC40ED51E0C
:104A2000E61EF71E2F5F3F4FC6CD812C912C5401FF
:104A30003ACE418D528D2A01712C612CC414D504BB
:104A4000E604F70420F421503F5F32969ECE480DD5
:104A5000591D528F418FF8CF1BA6A9CE10921E016F
:104A600060937D0770937E0780937F079093800704
:104A700089E2ECEFF3E0A7E8B7E001900D928A95A8
:104A8000E1F781E080931C01A0CE80911201FBA58B
:104A9000F81324C09091810793702091110130E0A8
:104AA00081E09217130609F480E081708093200161
:104AB0008091860790911F01981739F080931F010C
:104AC00040E060E080E00E94E6052BA5243160F420
:104AD000E22FF0E0E952FF4C0C946F2F81E0E5CF1C
:104AE00080912001811102C000E065C140E060E0DA
:104AF00080E00E94E605F8CFE0901E018BE0E89E82
:104B0000E02C11241BE01E0D012F163308F005E3E5
:104B10006091820770918307809184070E945507F6
:104B2000C62EB72EA82EF12CE01628F001E0153382
:104B300008F441C1D9CFF701EE5DFD4F808190911E
:104B40001F01892331F02A2D4C2D6B2DC7010E94A6
:104B5000E9053FEFE31AF30AE7CFE0901E018BE08F
:104B6000E89EE02C11241BE01E0D012F163308F0E7
:104B700005E38090830790908407F09082076F2D63
:104B8000782D892D0E945507C62EB72EA82E60912C
:104B900085076F0D782D892D0E945507962E872E3B
:104BA000782EF12CE01610F6F701EE5DFD4F9081A6
:104BB00080911F01892359F0272D492D682D90FDE3
:104BC00003C02A2D4C2D6B2DC7010E94E9054FEF24
:104BD000E41AF40AE7CFE0901E018BE0E89E802DF6
:104BE00011241BE0180F012F163308F005E3B090D5
:104BF0008307A090840720918507E0E4DE2E5D2DD9
:104C0000529F512D1124D52EE82EF12CE01608F0DC
:104C10008DCFF701EE5DFD4F808190911F018923BB
:104C2000B9F0F701EE0FFF1FE857FE4F81A98295FB
:104C30008F70609182078D9D600D11247B2D8A2DD0
:104C40000E945507462F282F672FC7010E94E905AC
:104C50008FEFE81AF80ADACFE0901E018BE0E89EA9
:104C6000802D11241BE0180F012F163308F005E3E7
:104C7000B0908307A09084072091850760E4D62E2A
:104C80003D2D329F312D1124D32EE82EF12CE0162C
:104C900008F04CCFF701EE5DFD4F808190911F0130
:104CA0008923D9F0F701EE0FFF1FE857FE4F60A9E7
:104CB000D69EB001112455E0759567955A95E1F798
:104CC00080918207680F7B2D8A2D0E945507462F01
:104CD000282F672FC7010E94E9054FEFE41AF40A55
:104CE000D6CF88E896E00E94C308082F64C08EE5FE
:104CF00096E0F9CFE0901E018BE0E89E802D112414
:104D00001BE0180F9091200191111FC06091850741
:104D100050E1650F08F46FEF80917D0790917E0759
:104D20000E9438076AE070E00E94042F892B09F086
:104D3000FDCE0E94F30665E30E944F2F60911F0194
:104D4000892F90E00E94E907F1CE912F163308F0E9
:104D500095E3E82EF12CC92ED12CEC14FD040CF0B7
:104D6000E5CE60911F01C7010E94E9078FEFE81AA5
:104D7000F80AF3CF00912001011145C06091850729
:104D800020E1620F08F46FEF80917D0790917E071C
:104D90000E94380765E070E00E94042F892B09F01B
:104DA000A3CE0E94C82F65E370E00E945B2F609144
:104DB0001F010E94490E80911E018F5F80931E018A
:104DC0000111FAC382E080931C01809120018111BE
:104DD000F3C3EBA5EE2309F44FC48091B3070E94FF
:104DE000910B813009F415C4882309F4EAC3823099
:104DF00009F4FDC3833009F0E8CC20E040E06FEF18
:104E000081E090E0F1C3E0901E018BE0E89E802DF0
:104E100011241BE0180F912F163308F095E3E82EAC
:104E2000F12CC92ED12CEC14FD040CF07FCE609136
:104E30001F01C7010E94490E3FEFE31AF30AF3CFA7
:104E4000E0901E010BE0E09E002D11243BE0D32EEC
:104E5000D00ECD2C45E34D1510F425E3C22EB090B5
:104E60008307E0908407F09082076091850766953C
:104E70006695669580917D0790917E070E94380720
:104E80000E94B106805887FD8195880F682F2CE01D
:104E9000629F612D11246F0D7B2D8E2D0E94550771
:104EA000B62EA72E982E10E00C1530F001E054E33A
:104EB0005D1508F080CF18CEF801EE5DFD4F8081C2
:104EC00090911F01892331F0292D4B2D6A2DC801A6
:104ED0000E94E9050F5F1F4FE7CF80ED96E003CFFB
:104EE0008DE496E000CF80911E011BE0819F100DA4
:104EF000112440917D0750917E0760917F0770914A
:104F000080078091290490912A04A0912B04B091EC
:104F10002C0484179507A607B70708F007CE0E9450
:104F2000F306D82E0E94F30695E3891BF0F7890F4C
:104F3000E82EF12CF701EE5DFD4F80911F0190816D
:104F4000892309F4F3CD20E040E060E0D1FC13C0F8
:104F50000E94F306D82E0E94F3068695782F2FE73D
:104F6000720F08F47FEF6D2D809184070E94550722
:104F7000462F282F672FC7010E94E905209185073A
:104F800030E1230F08F42FEF60E1822F90E00E94C0
:104F90003807BC0184EF91E00E94042F80917D07C7
:104FA00090917E07A0917F07B0918007860F971F91
:104FB000A11DB11D8093290490932A04A0932B0472
:104FC000B0932C04B3CD4091CC045091CD046091AA
:104FD000CE047091CF0480917D0790917E07A091BF
:104FE0007F07B091800784179507A607B70708F4D5
:104FF0007BCD80912001811122C080911E019BE018
:10500000899F802D11241BE0180F012F163308F003
:1050100005E3C82ED12C43E0849FC0011124DC019C
:10502000A35DBB4F7D01C01608F445C0EDE2F4E07E
:1050300089EC94E0153308F05DC001E0BCCE40E09F
:1050400060E080E00E94E6059DE2C92E94E0D92E42
:10505000F12CE12C1FE70E94F30681FF0FC0F6013F
:10506000108211821282BFEFEB1AFB0AE3E0CE0E30
:10507000D11CF5E3EF16F10471F7BFCF0E94F306E0
:10508000982E0E94F3068695782F710F08F47FEF13
:105090005701AA0CBB1CAE0CBF1C9501235D3B4FF6
:1050A0005901692D809184070E945507D5016D93A0
:1050B0007D938C93D8CFF601EE5DFD4F808190916A
:1050C0001F01892351F0D70112962C9112974C9110
:1050D00011966C91C6010E94E905B3E0EB0EF11C3C
:1050E000EFEFCE1ADE0A9FCF2381348145812193D1
:1050F000319341938E179F07B9F70E94F30681FF02
:105100001FC01092C9041092CA041092CB040E94CE
:10511000420700917D0710917E0720917F07309113
:105120008007DC01CB01800F911FA21FB31F80936A
:10513000CC049093CD04A093CE04B093CF04D4CCF0
:105140000E94F306182F0E94F3068695782F2FE70A
:10515000720F08F47FEF612F809184070E9455073A
:105160006093C9047093CA048093CB04D0CF80911C
:105170002001882329F040E060E080E00E94E605FD
:1051800080911E011BE0819F100D112440917D072D
:1051900050917E0760917F07709180078091E804AD
:1051A0009091E904A091EA04B091EB04841795076B
:1051B000A607B70708F0BACC609182077091830701
:1051C000809184070E945507562E472E382EB0ED49
:1051D000CB2EB4E0DB2E08E8E02E01E0F02E4701F4
:1051E0003701560105E0D3018D913D0190E0F501B5
:1051F0002081222309F45FC0232D452D642D0E94B8
:10520000E905D4011B968C91232D452D642D90E04A
:105210000E94E905D50111968C91F50181935F01FA
:105220000150F1E08F1A91080111DDCFD7011596D9
:105230008C9190E0F6012581222309F447C0232DAB
:10524000452D642D0E94E905D70116968C91232DDA
:10525000452D642D90E00E94E9050E94F3068370BD
:1052600091E009F090E0D60115969C93B6E0CB0E44
:10527000D11CECE0EE0EF11CF8EBEF16F1E0FF06AE
:1052800009F0ADCF0E944207C0907D07D0907E0705
:10529000E0907F07F0908007DC01CB018C0D9D1D15
:1052A000AE1DBF1D8093E8049093E904A093EA0427
:1052B000B093EB043BCC20E040E060E00E94E905C5
:1052C000F401838520E040E060E0A1CF20E040E0F1
:1052D00060E00E94E905F701868120E040E060E09F
:1052E000B9CFA0901E018BE0A89EA02C1124ABE0AA
:1052F0008A2E8A0C682C25E3281510F4F5E36F2E0E
:1053000080912001882361F040E060E080E00E940D
:10531000E605E1EFF4E080E3DF011D928A95E9F70D
:1053200080911E01811115C08091ED049091EE04D1
:105330000E941A1621E08931910508F420E020939B
:10534000EC04499730F00E9429169093EE04809364
:10535000ED04912C00E0B12C6CE0462E75E5372E63
:10536000EAEA5E2E2224239404C00B3008F055C0D4
:10537000B12CEB2CF12C499CC0011124FC01E85705
:10538000FE4FEE0DFF1DC080CA1408F43EC0C614C7
:1053900008F03BC00F5FD12CF601EE5DFD4F208180
:1053A00030911F01232309F430C08F509B4FE80E2A
:1053B000F91EF7011081312F232D321B08F430E044
:1053C00070918307252D210F08F42FEF409184075A
:1053D000822F880F820F8E5F582F549F512D1124DA
:1053E000852F652D631B0E945507462F282F672F99
:1053F000C6010E94E9058091EC04882331F0222D3A
:10540000121B08F410E0D7011C93B394BCE0BB124C
:10541000B0CF9394E4E09E12A8CF01E0F4E3F81536
:1054200008F0C9CC61CB1091840723E0129F700172
:105430001124F694E794F694E7944E2C812E912C47
:105440008FEF90E0B4010E945B2F562E80912001D7
:10545000882371F040E060E080E00E94E605E1EF23
:10546000F4E080E3DF011D928A95E9F71092F004E1
:105470008091EF048F5F8093EF04D12CC12C8E18A4
:105480009F08560100E0A6014F505B4F3A01809102
:10549000F004802B09F043C00E94C82F8535954049
:1054A000F4F5F3011083F501E857FE4FE081EF3F7B
:1054B000D1F0D501AF50BB4F2C91F0E0421608F06F
:1054C0003FC030E02E193F092E9DC0012F9D900D49
:1054D0003E9D900D1124B4010E94042F262F412FD0
:1054E000CF010E94E9050F5FFCE0AF0EB11C043054
:1054F00071F62FEFC21AD20A3CE0C316D10409F0AC
:10550000C0CF8091EF04581202C01092EF04809136
:10551000F0048F5F8D31F0F48093F004E5CAF5015B
:10552000EF50FB4F8081882309F4BDCF811708F02D
:10553000BACF9091EF045912B6CF81508083B3CF88
:10554000129FC0011124B7010E94042F462F20E0B2
:1055500060E0C6CF1092F00489E095E043E05FEF91
:10556000510FE1EFF4E0BC01433021F424A1121308
:1055700001C054A3DB012D91BD01211740F09D0115
:1055800021503109D9015C93DB011B961C933196A4
:10559000B4E0ED3FFB0741F741500C974111E1CFDB
:1055A000A3CA84E396E00E9424089FCB82E096E0A1
:1055B000FACF8CEE95E0F7CFFBA5FF2309F405C9E0
:1055C0000CCC20E040E06FEF86E290E00E94E9051D
:1055D00020E041E26FEF88E290E00E94E90520E0E0
:1055E00041E26FEF8AE290E00E94E905EEC810E028
:1055F00000E0C80101970A9730F420E041E26FEF24
:10560000C8010E94E9050F5F1F4F0533110589F797
:10561000DCC820E041E26FEF89E090E00E94E905FC
:1056200020E041E26FEF8AE090E00E94E90520E08F
:1056300041E26FEF85E190E00E94E90520E041E260
:105640006FEF86E190E00E94E90520E041E26FEF14
:105650008DE290E00E94E90520E041E26FEF8EE2EA
:1056600090E0C2CF2BA52093120180918107837017
:10567000809311010E948C0C83E004CA8091500732
:1056800081110E946D0E40917D0750917E076091BF
:105690007F07709180072FB7F89480915F079091F2
:1056A0006007A0916107B09162072FBF841B950B23
:1056B000A60BB70B4097A105B10508F486C8109258
:1056C0001C0183C88F5F082F10E07B01082E02C0E9
:1056D000EE0CFF1C0A94E2F7A9014E215F21452B35
:1056E00089F39091430790FD46C08295880F80769C
:1056F0008093150198013695279536952795209327
:105700001801815E809316011092190124E630E0A1
:1057100047E050E063E171E088E70E94B82E892BF2
:1057200011F00C94F723A80135E0440F551F3A956A
:10573000E1F78091430780FD2CC04D5B5A4F04E692
:1057400010E020E230E060E488E70E94D92E892B47
:1057500011F00C94F7230E94DF0BE094F0948091F9
:10576000450790914607E822F922F0924607E09219
:1057700045070C94F723880F880F880F8093150135
:1057800010921801895F8093160183E080931901BC
:10579000BDCFE3E2F5E080E2DF011D928A95E9F7F3
:1057A000E9E6F1E0FCA7EBA705E611E09DE6292E6E
:1057B00091E0392E27E0A22E99249394ABA5BCA5A5
:1057C0002D91BCA7ABA7F80141908F01440E552E37
:1057D000511CC2018D5B9A4F2C01E22FF0E0ED5D70
:1057E000FA4F30E020E07A2C721AB92C022E01C058
:1057F000BB0C0A94EAF7620190E0D6018D916D012D
:105800008B21672D691B6770862E062E000C770B87
:10581000B82F01C0BB0F8A94EAF78B2E7195619562
:1058200071096770772701C086956A95EAF7882A1B
:105830008081882A80829F5F9830F9F62F5F3F4FE2
:1058400031962830310579F6EBA5FCA52E163F06DA
:1058500009F0B4CF04E610E020E230E043E255E086
:1058600072CF80E2E82EF12C8E010F5F1F4F8091E6
:10587000E80085FD0BC08091E8008B778093E800FD
:105880000E948403882399F30C9441248091F100B1
:10589000D8018D938D01B1E0EB1AF10841F70C941A
:1058A00041241A828AE08B8336C08A81823009F4CF
:1058B000B6C1833061F0813009F064C00E94EE040B
:1058C0000E94752F6B837C838D839E8324C080917F
:1058D0004807909149079827892798279C838B83AD
:1058E00080914A0790914B079827892798279E8394
:1058F0008D8380914C0790914D0798278927982791
:1059000098878F8380914E0790914F07982789271A
:1059100098279A87898780917307843011F00C94B7
:10592000D8211091E9001F709091EC00892F8170AF
:1059300090FD80E8182B82E08093E9008091E800D8
:1059400080FF0DC050E040E060E270E0CE010196C3
:105950000E94B5038091E8008E778093E8001F7065
:105960001093E9000C94D8218A81823059F46B811C
:105970007C818D819E810E94752F86E290E00E943D
:105980002530C9CF8FEF8983C6CF4C816B818A8147
:105990000E947F0D9827892798279E838D83BBCFF0
:1059A0002D813E813227232732274C816B818A81CA
:1059B0000E94F80CB0CF0E941E0DADCF8A818138B5
:1059C000E9F088F4803809F0A6CF4B8124EB429FA0
:1059D000412D11248091820720E06091830790E09F
:1059E0000E94550598CF823819F1833809F093CF7A
:1059F0008B8120E0409184076C81F1CF60E08B8146
:105A00000E94B6059B8180918107911109C0982F52
:105A1000937011F010921C018C7F809381077BCFD3
:105A2000982F937011F410921C018C7F8160F5CF38
:105A3000EB818FE7E43020F4F0E0E359FE4F808102
:105A40008093850768CF8A818138E1F078F48038C7
:105A500009F061CF80918407EFEF8E9FC001112480
:105A600064EB70E00E94042F6B8355CF823879F08D
:105A7000833809F050CF809182078B838091830710
:105A80008C8349CF80918107869586950CCF809134
:105A90008507873230F08F3530F08E3930F083E073
:105AA00002CF80E000CF81E0FECE82E0FCCE0E94FB
:105AB0006D0E31CFF0E1FA832ECF82E08A8389E543
:105AC000F2CECA80DB80DC24CD24DC248E010F5F83
:105AD0001F4FEC80E00EF12EF11CC60189559E4F40
